{
  "contractName": "DispatcherRole",
  "abi": [
    {
      "inputs": [],
      "stateMutability": "nonpayable",
      "type": "constructor"
    },
    {
      "anonymous": false,
      "inputs": [
        {
          "indexed": true,
          "internalType": "address",
          "name": "account",
          "type": "address"
        },
        {
          "indexed": false,
          "internalType": "uint256",
          "name": "timestamp",
          "type": "uint256"
        }
      ],
      "name": "DispatcherAdded",
      "type": "event"
    },
    {
      "anonymous": false,
      "inputs": [
        {
          "indexed": true,
          "internalType": "address",
          "name": "account",
          "type": "address"
        },
        {
          "indexed": false,
          "internalType": "uint256",
          "name": "timestamp",
          "type": "uint256"
        }
      ],
      "name": "DispatcherRemoved",
      "type": "event"
    },
    {
      "inputs": [
        {
          "internalType": "address",
          "name": "_account",
          "type": "address"
        }
      ],
      "name": "isDispatcher",
      "outputs": [
        {
          "internalType": "bool",
          "name": "",
          "type": "bool"
        }
      ],
      "stateMutability": "view",
      "type": "function"
    },
    {
      "inputs": [
        {
          "internalType": "address",
          "name": "_account",
          "type": "address"
        }
      ],
      "name": "addDispatcher",
      "outputs": [],
      "stateMutability": "nonpayable",
      "type": "function"
    },
    {
      "inputs": [
        {
          "internalType": "address",
          "name": "_account",
          "type": "address"
        }
      ],
      "name": "revokeDispatcher",
      "outputs": [],
      "stateMutability": "nonpayable",
      "type": "function"
    }
  ],
  "bytecode": "0x608060405234801561001057600080fd5b506100203361002560201b60201c565b6102d9565b61003d81600061004060201b61020f1790919060201c565b50565b600073ffffffffffffffffffffffffffffffffffffffff168173ffffffffffffffffffffffffffffffffffffffff1614156100b0576040517f08c379a00000000000000000000000000000000000000000000000000000000081526004016100a790610236565b60405180910390fd5b6100c0828261015e60201b60201c565b15610100576040517f08c379a00000000000000000000000000000000000000000000000000000000081526004016100f790610256565b60405180910390fd5b60018260000160008373ffffffffffffffffffffffffffffffffffffffff1673ffffffffffffffffffffffffffffffffffffffff16815260200190815260200160002060006101000a81548160ff0219169083151502179055505050565b60008073ffffffffffffffffffffffffffffffffffffffff168273ffffffffffffffffffffffffffffffffffffffff16141561019957600080fd5b8260000160008373ffffffffffffffffffffffffffffffffffffffff1673ffffffffffffffffffffffffffffffffffffffff16815260200190815260200160002060009054906101000a900460ff16905092915050565b60006101fd600f83610276565b915061020882610287565b602082019050919050565b6000610220601a83610276565b915061022b826102b0565b602082019050919050565b6000602082019050818103600083015261024f816101f0565b9050919050565b6000602082019050818103600083015261026f81610213565b9050919050565b600082825260208201905092915050565b7f63616e6e6f742061646420686f6c650000000000000000000000000000000000600082015250565b7f6163636f756e74206d757374206e6f74206861766520726f6c65000000000000600082015250565b610878806102e86000396000f3fe608060405234801561001057600080fd5b50600436106100415760003560e01c806375348d3514610046578063d257fee914610062578063fa78955b14610092575b600080fd5b610060600480360381019061005b9190610513565b6100ae565b005b61007c60048036038101906100779190610513565b610150565b6040516100899190610609565b60405180910390f35b6100ac60048036038101906100a79190610513565b61016d565b005b6100b733610150565b6100f6576040517f08c379a00000000000000000000000000000000000000000000000000000000081526004016100ed90610684565b60405180910390fd5b6100ff81610327565b8073ffffffffffffffffffffffffffffffffffffffff167fbd55d3e81a859ffec0d9ef348cd5d71726b2270aff4105f50d66e037ec078c344260405161014591906106c4565b60405180910390a250565b600061016682600061033e90919063ffffffff16565b9050919050565b61017633610150565b6101b5576040517f08c379a00000000000000000000000000000000000000000000000000000000081526004016101ac90610684565b60405180910390fd5b6101be816103d0565b8073ffffffffffffffffffffffffffffffffffffffff167fa3ab7333c318866d97e85edecc6942f223cfe878e790bf7339ad279fb6941ca94260405161020491906106c4565b60405180910390a250565b600073ffffffffffffffffffffffffffffffffffffffff168173ffffffffffffffffffffffffffffffffffffffff16141561027f576040517f08c379a000000000000000000000000000000000000000000000000000000000815260040161027690610624565b60405180910390fd5b610289828261033e565b156102c9576040517f08c379a00000000000000000000000000000000000000000000000000000000081526004016102c090610644565b60405180910390fd5b60018260000160008373ffffffffffffffffffffffffffffffffffffffff1673ffffffffffffffffffffffffffffffffffffffff16815260200190815260200160002060006101000a81548160ff0219169083151502179055505050565b61033b81600061020f90919063ffffffff16565b50565b60008073ffffffffffffffffffffffffffffffffffffffff168273ffffffffffffffffffffffffffffffffffffffff16141561037957600080fd5b8260000160008373ffffffffffffffffffffffffffffffffffffffff1673ffffffffffffffffffffffffffffffffffffffff16815260200190815260200160002060009054906101000a900460ff16905092915050565b6103e48160006103e790919063ffffffff16565b50565b600073ffffffffffffffffffffffffffffffffffffffff168173ffffffffffffffffffffffffffffffffffffffff161415610457576040517f08c379a000000000000000000000000000000000000000000000000000000000815260040161044e90610664565b60405180910390fd5b610461828261033e565b6104a0576040517f08c379a0000000000000000000000000000000000000000000000000000000008152600401610497906106a4565b60405180910390fd5b60008260000160008373ffffffffffffffffffffffffffffffffffffffff1673ffffffffffffffffffffffffffffffffffffffff16815260200190815260200160002060006101000a81548160ff0219169083151502179055505050565b60008135905061050d8161082b565b92915050565b60006020828403121561052557600080fd5b6000610533848285016104fe565b91505092915050565b61054581610702565b82525050565b6000610558600f836106df565b915061056382610738565b602082019050919050565b600061057b601a836106df565b915061058682610761565b602082019050919050565b600061059e601c836106df565b91506105a98261078a565b602082019050919050565b60006105c16021836106df565b91506105cc826107b3565b604082019050919050565b60006105e46016836106df565b91506105ef82610802565b602082019050919050565b6106038161072e565b82525050565b600060208201905061061e600083018461053c565b92915050565b6000602082019050818103600083015261063d8161054b565b9050919050565b6000602082019050818103600083015261065d8161056e565b9050919050565b6000602082019050818103600083015261067d81610591565b9050919050565b6000602082019050818103600083015261069d816105b4565b9050919050565b600060208201905081810360008301526106bd816105d7565b9050919050565b60006020820190506106d960008301846105fa565b92915050565b600082825260208201905092915050565b60006106fb8261070e565b9050919050565b60008115159050919050565b600073ffffffffffffffffffffffffffffffffffffffff82169050919050565b6000819050919050565b7f63616e6e6f742061646420686f6c650000000000000000000000000000000000600082015250565b7f6163636f756e74206d757374206e6f74206861766520726f6c65000000000000600082015250565b7f616464726573732063616e6e6f7420626520626c61636b20686f6c6500000000600082015250565b7f6f6e6c7920446973706174636865722063616e2063616c6c2066756e6374696f60008201527f6e00000000000000000000000000000000000000000000000000000000000000602082015250565b7f61646472657373206d757374206861766520726f6c6500000000000000000000600082015250565b610834816106f0565b811461083f57600080fd5b5056fea264697066735822122096f06bc93bf16176fd33b7f2ddcdd2cd9fd24290d00793b3544f0bf799f417f564736f6c63430008040033",
  "immutableReferences": {},
  "source": "// SPDX-License-Identifier: MIT\npragma solidity 0.8.4;\n\nimport './Roles.sol';\n\ncontract DispatcherRole {\n    using Roles for Roles.Role;\n    Roles.Role private dispatcher;\n    \n    event DispatcherAdded(address indexed account, uint timestamp);\n    event DispatcherRemoved(address indexed account, uint timestamp);\n\n\n    modifier onlyDispatcher() {\n        require(isDispatcher(msg.sender), 'only Dispatcher can call function');\n        _;\n    }\n\n    constructor() {\n        _addDispatcher(msg.sender);\n    }\n\n    function isDispatcher(address _account) public view returns(bool) \n    {\n        return dispatcher.hasRole(_account);\n    }\n\n    function _addDispatcher(address _account) internal \n    {\n        dispatcher.add(_account);\n    }\n\n    function addDispatcher(address _account) external onlyDispatcher \n    {\n        _addDispatcher(_account);\n        emit DispatcherAdded(_account, block.timestamp);\n    }\n\n    function _revokeDispatcher(address _account) internal \n    {\n        dispatcher.remove(_account);\n    }\n\n    function revokeDispatcher(address _account) external onlyDispatcher \n    {\n        _revokeDispatcher(_account);\n        emit DispatcherRemoved(_account, block.timestamp);\n\n    }\n}\n",
  "sourcePath": "/home/godwin/blockchain-developer-bootcamp-final-project/contracts/AccessControl/DispatcherRole.sol",
  "compiler": {
    "name": "solc",
    "version": "0.8.4+commit.c7e474f2.Emscripten.clang"
  },
  "schemaVersion": "3.4.3",
  "updatedAt": "2021-11-23T08:08:09.904Z",
  "devdoc": {
    "kind": "dev",
    "methods": {},
    "version": 1
  },
  "userdoc": {
    "kind": "user",
    "methods": {},
    "version": 1
  }
}