{
  "contractName": "DispatcherRole",
  "abi": [
    {
      "inputs": [],
      "stateMutability": "nonpayable",
      "type": "constructor"
    },
    {
      "anonymous": false,
      "inputs": [
        {
          "indexed": true,
          "internalType": "address",
          "name": "account",
          "type": "address"
        },
        {
          "indexed": false,
          "internalType": "uint256",
          "name": "timestamp",
          "type": "uint256"
        }
      ],
      "name": "DispatcherAdded",
      "type": "event"
    },
    {
      "anonymous": false,
      "inputs": [
        {
          "indexed": true,
          "internalType": "address",
          "name": "account",
          "type": "address"
        },
        {
          "indexed": false,
          "internalType": "uint256",
          "name": "timestamp",
          "type": "uint256"
        }
      ],
      "name": "DispatcherRemoved",
      "type": "event"
    },
    {
      "inputs": [
        {
          "internalType": "address",
          "name": "_account",
          "type": "address"
        }
      ],
      "name": "isDispatcher",
      "outputs": [
        {
          "internalType": "bool",
          "name": "",
          "type": "bool"
        }
      ],
      "stateMutability": "view",
      "type": "function"
    },
    {
      "inputs": [
        {
          "internalType": "address",
          "name": "_account",
          "type": "address"
        }
      ],
      "name": "addDispatcher",
      "outputs": [],
      "stateMutability": "nonpayable",
      "type": "function"
    },
    {
      "inputs": [
        {
          "internalType": "address",
          "name": "_account",
          "type": "address"
        }
      ],
      "name": "revokeDispatcher",
      "outputs": [],
      "stateMutability": "nonpayable",
      "type": "function"
    }
  ],
  "bytecode": "0x608060405234801561001057600080fd5b506100203361002560201b60201c565b6102d9565b61003d81600061004060201b61020f1790919060201c565b50565b600073ffffffffffffffffffffffffffffffffffffffff168173ffffffffffffffffffffffffffffffffffffffff1614156100b0576040517f08c379a00000000000000000000000000000000000000000000000000000000081526004016100a79061024d565b60405180910390fd5b6100c0828261015e60201b60201c565b15610100576040517f08c379a00000000000000000000000000000000000000000000000000000000081526004016100f7906102b9565b60405180910390fd5b60018260000160008373ffffffffffffffffffffffffffffffffffffffff1673ffffffffffffffffffffffffffffffffffffffff16815260200190815260200160002060006101000a81548160ff0219169083151502179055505050565b60008073ffffffffffffffffffffffffffffffffffffffff168273ffffffffffffffffffffffffffffffffffffffff16141561019957600080fd5b8260000160008373ffffffffffffffffffffffffffffffffffffffff1673ffffffffffffffffffffffffffffffffffffffff16815260200190815260200160002060009054906101000a900460ff16905092915050565b600082825260208201905092915050565b7f63616e6e6f742061646420686f6c650000000000000000000000000000000000600082015250565b6000610237600f836101f0565b915061024282610201565b602082019050919050565b600060208201905081810360008301526102668161022a565b9050919050565b7f6163636f756e74206d757374206e6f74206861766520726f6c65000000000000600082015250565b60006102a3601a836101f0565b91506102ae8261026d565b602082019050919050565b600060208201905081810360008301526102d281610296565b9050919050565b610881806102e86000396000f3fe608060405234801561001057600080fd5b50600436106100415760003560e01c806375348d3514610046578063d257fee914610062578063fa78955b14610092575b600080fd5b610060600480360381019061005b9190610561565b6100ae565b005b61007c60048036038101906100779190610561565b610150565b60405161008991906105a9565b60405180910390f35b6100ac60048036038101906100a79190610561565b61016d565b005b6100b733610150565b6100f6576040517f08c379a00000000000000000000000000000000000000000000000000000000081526004016100ed90610647565b60405180910390fd5b6100ff81610327565b8073ffffffffffffffffffffffffffffffffffffffff167fbd55d3e81a859ffec0d9ef348cd5d71726b2270aff4105f50d66e037ec078c34426040516101459190610680565b60405180910390a250565b600061016682600061033e90919063ffffffff16565b9050919050565b61017633610150565b6101b5576040517f08c379a00000000000000000000000000000000000000000000000000000000081526004016101ac90610647565b60405180910390fd5b6101be816103d0565b8073ffffffffffffffffffffffffffffffffffffffff167fa3ab7333c318866d97e85edecc6942f223cfe878e790bf7339ad279fb6941ca9426040516102049190610680565b60405180910390a250565b600073ffffffffffffffffffffffffffffffffffffffff168173ffffffffffffffffffffffffffffffffffffffff16141561027f576040517f08c379a0000000000000000000000000000000000000000000000000000000008152600401610276906106e7565b60405180910390fd5b610289828261033e565b156102c9576040517f08c379a00000000000000000000000000000000000000000000000000000000081526004016102c090610753565b60405180910390fd5b60018260000160008373ffffffffffffffffffffffffffffffffffffffff1673ffffffffffffffffffffffffffffffffffffffff16815260200190815260200160002060006101000a81548160ff0219169083151502179055505050565b61033b81600061020f90919063ffffffff16565b50565b60008073ffffffffffffffffffffffffffffffffffffffff168273ffffffffffffffffffffffffffffffffffffffff16141561037957600080fd5b8260000160008373ffffffffffffffffffffffffffffffffffffffff1673ffffffffffffffffffffffffffffffffffffffff16815260200190815260200160002060009054906101000a900460ff16905092915050565b6103e48160006103e790919063ffffffff16565b50565b600073ffffffffffffffffffffffffffffffffffffffff168173ffffffffffffffffffffffffffffffffffffffff161415610457576040517f08c379a000000000000000000000000000000000000000000000000000000000815260040161044e906107bf565b60405180910390fd5b610461828261033e565b6104a0576040517f08c379a00000000000000000000000000000000000000000000000000000000081526004016104979061082b565b60405180910390fd5b60008260000160008373ffffffffffffffffffffffffffffffffffffffff1673ffffffffffffffffffffffffffffffffffffffff16815260200190815260200160002060006101000a81548160ff0219169083151502179055505050565b600080fd5b600073ffffffffffffffffffffffffffffffffffffffff82169050919050565b600061052e82610503565b9050919050565b61053e81610523565b811461054957600080fd5b50565b60008135905061055b81610535565b92915050565b600060208284031215610577576105766104fe565b5b60006105858482850161054c565b91505092915050565b60008115159050919050565b6105a38161058e565b82525050565b60006020820190506105be600083018461059a565b92915050565b600082825260208201905092915050565b7f6f6e6c7920446973706174636865722063616e2063616c6c2066756e6374696f60008201527f6e00000000000000000000000000000000000000000000000000000000000000602082015250565b60006106316021836105c4565b915061063c826105d5565b604082019050919050565b6000602082019050818103600083015261066081610624565b9050919050565b6000819050919050565b61067a81610667565b82525050565b60006020820190506106956000830184610671565b92915050565b7f63616e6e6f742061646420686f6c650000000000000000000000000000000000600082015250565b60006106d1600f836105c4565b91506106dc8261069b565b602082019050919050565b60006020820190508181036000830152610700816106c4565b9050919050565b7f6163636f756e74206d757374206e6f74206861766520726f6c65000000000000600082015250565b600061073d601a836105c4565b915061074882610707565b602082019050919050565b6000602082019050818103600083015261076c81610730565b9050919050565b7f616464726573732063616e6e6f7420626520626c61636b20686f6c6500000000600082015250565b60006107a9601c836105c4565b91506107b482610773565b602082019050919050565b600060208201905081810360008301526107d88161079c565b9050919050565b7f61646472657373206d757374206861766520726f6c6500000000000000000000600082015250565b60006108156016836105c4565b9150610820826107df565b602082019050919050565b6000602082019050818103600083015261084481610808565b905091905056fea26469706673582212208a797c06c0e78547e12758426f14550cf858afab07882b028b9e68db661015cc64736f6c63430008090033",
  "immutableReferences": {},
  "source": "// SPDX-License-Identifier: MIT\npragma solidity >=0.5.0 <0.9.0;\n\nimport './Roles.sol';\n\ncontract DispatcherRole {\n    using Roles for Roles.Role;\n    Roles.Role private dispatcher;\n    \n    event DispatcherAdded(address indexed account, uint timestamp);\n    event DispatcherRemoved(address indexed account, uint timestamp);\n\n\n    modifier onlyDispatcher() {\n        require(isDispatcher(msg.sender), 'only Dispatcher can call function');\n        _;\n    }\n\n    constructor() {\n        _addDispatcher(msg.sender);\n    }\n\n    function isDispatcher(address _account) public view returns(bool) \n    {\n        return dispatcher.hasRole(_account);\n    }\n\n    function _addDispatcher(address _account) internal \n    {\n        dispatcher.add(_account);\n    }\n\n    function addDispatcher(address _account) external onlyDispatcher \n    {\n        _addDispatcher(_account);\n        emit DispatcherAdded(_account, block.timestamp);\n    }\n\n    function _revokeDispatcher(address _account) internal \n    {\n        dispatcher.remove(_account);\n    }\n\n    function revokeDispatcher(address _account) external onlyDispatcher \n    {\n        _revokeDispatcher(_account);\n        emit DispatcherRemoved(_account, block.timestamp);\n\n    }\n}\n",
  "sourcePath": "/home/godwin/blockchain-developer-bootcamp-final-project/contracts/AccessControl/DispatcherRole.sol",
  "compiler": {
    "name": "solc",
    "version": "0.8.9+commit.e5eed63a.Emscripten.clang"
  },
  "schemaVersion": "3.4.3",
  "updatedAt": "2021-11-01T18:59:25.483Z",
  "devdoc": {
    "kind": "dev",
    "methods": {},
    "version": 1
  },
  "userdoc": {
    "kind": "user",
    "methods": {},
    "version": 1
  }
}