{
  "contractName": "Ownable",
  "abi": [
    {
      "inputs": [],
      "stateMutability": "nonpayable",
      "type": "constructor"
    },
    {
      "anonymous": false,
      "inputs": [
        {
          "indexed": true,
          "internalType": "address",
          "name": "oldOwner",
          "type": "address"
        },
        {
          "indexed": true,
          "internalType": "address",
          "name": "newOwner",
          "type": "address"
        }
      ],
      "name": "TransferOwnership",
      "type": "event"
    },
    {
      "inputs": [],
      "name": "ownerAccount",
      "outputs": [
        {
          "internalType": "address",
          "name": "",
          "type": "address"
        }
      ],
      "stateMutability": "view",
      "type": "function"
    },
    {
      "inputs": [],
      "name": "isOwner",
      "outputs": [
        {
          "internalType": "bool",
          "name": "",
          "type": "bool"
        }
      ],
      "stateMutability": "view",
      "type": "function"
    },
    {
      "inputs": [
        {
          "internalType": "address",
          "name": "_newOwner",
          "type": "address"
        }
      ],
      "name": "transferOwnership",
      "outputs": [],
      "stateMutability": "nonpayable",
      "type": "function"
    },
    {
      "inputs": [],
      "name": "renounceOwnership",
      "outputs": [],
      "stateMutability": "nonpayable",
      "type": "function"
    }
  ],
  "bytecode": "0x608060405234801561001057600080fd5b50336000806101000a81548173ffffffffffffffffffffffffffffffffffffffff021916908373ffffffffffffffffffffffffffffffffffffffff16021790555060008054906101000a900473ffffffffffffffffffffffffffffffffffffffff1673ffffffffffffffffffffffffffffffffffffffff16600073ffffffffffffffffffffffffffffffffffffffff167f5c486528ec3e3f0ea91181cff8116f02bfa350e03b8b6f12e00765adbb5af85c60405160405180910390a36105c7806100db6000396000f3fe608060405234801561001057600080fd5b506004361061004c5760003560e01c8063715018a6146100515780638f32d59b1461005b578063ea47cb2414610079578063f2fde38b14610097575b600080fd5b6100596100b3565b005b6100636101b8565b60405161007091906103d3565b60405180910390f35b61008161020f565b60405161008e919061042f565b60405180910390f35b6100b160048036038101906100ac919061047b565b610238565b005b6100bb6101b8565b6100fa576040517f08c379a00000000000000000000000000000000000000000000000000000000081526004016100f190610505565b60405180910390fd5b600073ffffffffffffffffffffffffffffffffffffffff1660008054906101000a900473ffffffffffffffffffffffffffffffffffffffff1673ffffffffffffffffffffffffffffffffffffffff167f5c486528ec3e3f0ea91181cff8116f02bfa350e03b8b6f12e00765adbb5af85c60405160405180910390a360008060006101000a81548173ffffffffffffffffffffffffffffffffffffffff021916908373ffffffffffffffffffffffffffffffffffffffff160217905550565b60008060009054906101000a900473ffffffffffffffffffffffffffffffffffffffff1673ffffffffffffffffffffffffffffffffffffffff163373ffffffffffffffffffffffffffffffffffffffff1614905090565b60008060009054906101000a900473ffffffffffffffffffffffffffffffffffffffff16905090565b6102406101b8565b61027f576040517f08c379a000000000000000000000000000000000000000000000000000000000815260040161027690610505565b60405180910390fd5b6102888161028b565b50565b600073ffffffffffffffffffffffffffffffffffffffff168173ffffffffffffffffffffffffffffffffffffffff1614156102fb576040517f08c379a00000000000000000000000000000000000000000000000000000000081526004016102f290610571565b60405180910390fd5b806000806101000a81548173ffffffffffffffffffffffffffffffffffffffff021916908373ffffffffffffffffffffffffffffffffffffffff1602179055508073ffffffffffffffffffffffffffffffffffffffff1660008054906101000a900473ffffffffffffffffffffffffffffffffffffffff1673ffffffffffffffffffffffffffffffffffffffff167f5c486528ec3e3f0ea91181cff8116f02bfa350e03b8b6f12e00765adbb5af85c60405160405180910390a350565b60008115159050919050565b6103cd816103b8565b82525050565b60006020820190506103e860008301846103c4565b92915050565b600073ffffffffffffffffffffffffffffffffffffffff82169050919050565b6000610419826103ee565b9050919050565b6104298161040e565b82525050565b60006020820190506104446000830184610420565b92915050565b600080fd5b6104588161040e565b811461046357600080fd5b50565b6000813590506104758161044f565b92915050565b6000602082840312156104915761049061044a565b5b600061049f84828501610466565b91505092915050565b600082825260208201905092915050565b7f6f6e6c79206f776e65722063616e2063616c6c2066756e6374696f6e00000000600082015250565b60006104ef601c836104a8565b91506104fa826104b9565b602082019050919050565b6000602082019050818103600083015261051e816104e2565b9050919050565b7f63616e6e6f74207472616e7366657220746f2061646472203000000000000000600082015250565b600061055b6019836104a8565b915061056682610525565b602082019050919050565b6000602082019050818103600083015261058a8161054e565b905091905056fea2646970667358221220b91b1c936150bfbae6ddc053f7be00e7d9cd980562b59e6184c1d37613df84ed64736f6c63430008090033",
  "immutableReferences": {},
  "source": "// SPDX-License-Identifier: MIT\npragma solidity >=0.5.0 <0.9.0;\n\n\ncontract Ownable {\n    address private originalOwner;\n    event TransferOwnership(address indexed oldOwner, address indexed newOwner);\n\n    constructor() {\n        originalOwner = msg.sender;\n        emit TransferOwnership(address(0), originalOwner);\n    }\n\n\n    function ownerAccount() public view returns(address) {\n        return originalOwner;\n    }\n\n\n    function isOwner() public view returns(bool) {\n        return msg.sender == originalOwner;\n    }\n\n    modifier onlyOwner() {\n        require(isOwner(), 'only owner can call function');\n        _;\n    }\n\n    function _transferOwnership(address newOwner_) internal {\n        require(newOwner_ != address(0), 'cannot transfer to addr 0');\n        originalOwner = newOwner_;\n        emit TransferOwnership(originalOwner, newOwner_);\n    }\n\n    function transferOwnership(address _newOwner) public onlyOwner {\n        _transferOwnership(_newOwner);\n    }\n\n    function renounceOwnership() public onlyOwner {\n        emit TransferOwnership(originalOwner, address(0));\n        originalOwner = address(0);\n  }\n}",
  "sourcePath": "/home/godwin/blockchain-developer-bootcamp-final-project/contracts/Core/Ownable.sol",
  "compiler": {
    "name": "solc",
    "version": "0.8.9+commit.e5eed63a.Emscripten.clang"
  },
  "schemaVersion": "3.4.3",
  "updatedAt": "2021-11-01T18:59:25.488Z",
  "devdoc": {
    "kind": "dev",
    "methods": {},
    "version": 1
  },
  "userdoc": {
    "kind": "user",
    "methods": {},
    "version": 1
  }
}