{
  "contractName": "Ownable",
  "abi": [
    {
      "inputs": [],
      "stateMutability": "nonpayable",
      "type": "constructor"
    },
    {
      "anonymous": false,
      "inputs": [
        {
          "indexed": true,
          "internalType": "address",
          "name": "oldOwner",
          "type": "address"
        },
        {
          "indexed": true,
          "internalType": "address",
          "name": "newOwner",
          "type": "address"
        }
      ],
      "name": "TransferOwnership",
      "type": "event"
    },
    {
      "inputs": [],
      "name": "ownerAccount",
      "outputs": [
        {
          "internalType": "address",
          "name": "",
          "type": "address"
        }
      ],
      "stateMutability": "view",
      "type": "function"
    },
    {
      "inputs": [],
      "name": "isOwner",
      "outputs": [
        {
          "internalType": "bool",
          "name": "",
          "type": "bool"
        }
      ],
      "stateMutability": "view",
      "type": "function"
    },
    {
      "inputs": [
        {
          "internalType": "address",
          "name": "_newOwner",
          "type": "address"
        }
      ],
      "name": "transferOwnership",
      "outputs": [],
      "stateMutability": "nonpayable",
      "type": "function"
    },
    {
      "inputs": [],
      "name": "renounceOwnership",
      "outputs": [],
      "stateMutability": "nonpayable",
      "type": "function"
    }
  ],
  "bytecode": "0x608060405234801561001057600080fd5b50336000806101000a81548173ffffffffffffffffffffffffffffffffffffffff021916908373ffffffffffffffffffffffffffffffffffffffff16021790555060008054906101000a900473ffffffffffffffffffffffffffffffffffffffff1673ffffffffffffffffffffffffffffffffffffffff16600073ffffffffffffffffffffffffffffffffffffffff167f5c486528ec3e3f0ea91181cff8116f02bfa350e03b8b6f12e00765adbb5af85c60405160405180910390a36105be806100db6000396000f3fe608060405234801561001057600080fd5b506004361061004c5760003560e01c8063715018a6146100515780638f32d59b1461005b578063ea47cb2414610079578063f2fde38b14610097575b600080fd5b6100596100b3565b005b6100636101b8565b6040516100709190610475565b60405180910390f35b61008161020f565b60405161008e919061045a565b60405180910390f35b6100b160048036038101906100ac91906103cd565b610238565b005b6100bb6101b8565b6100fa576040517f08c379a00000000000000000000000000000000000000000000000000000000081526004016100f1906104b0565b60405180910390fd5b600073ffffffffffffffffffffffffffffffffffffffff1660008054906101000a900473ffffffffffffffffffffffffffffffffffffffff1673ffffffffffffffffffffffffffffffffffffffff167f5c486528ec3e3f0ea91181cff8116f02bfa350e03b8b6f12e00765adbb5af85c60405160405180910390a360008060006101000a81548173ffffffffffffffffffffffffffffffffffffffff021916908373ffffffffffffffffffffffffffffffffffffffff160217905550565b60008060009054906101000a900473ffffffffffffffffffffffffffffffffffffffff1673ffffffffffffffffffffffffffffffffffffffff163373ffffffffffffffffffffffffffffffffffffffff1614905090565b60008060009054906101000a900473ffffffffffffffffffffffffffffffffffffffff16905090565b6102406101b8565b61027f576040517f08c379a0000000000000000000000000000000000000000000000000000000008152600401610276906104b0565b60405180910390fd5b6102888161028b565b50565b600073ffffffffffffffffffffffffffffffffffffffff168173ffffffffffffffffffffffffffffffffffffffff1614156102fb576040517f08c379a00000000000000000000000000000000000000000000000000000000081526004016102f290610490565b60405180910390fd5b806000806101000a81548173ffffffffffffffffffffffffffffffffffffffff021916908373ffffffffffffffffffffffffffffffffffffffff1602179055508073ffffffffffffffffffffffffffffffffffffffff1660008054906101000a900473ffffffffffffffffffffffffffffffffffffffff1673ffffffffffffffffffffffffffffffffffffffff167f5c486528ec3e3f0ea91181cff8116f02bfa350e03b8b6f12e00765adbb5af85c60405160405180910390a350565b6000813590506103c781610571565b92915050565b6000602082840312156103df57600080fd5b60006103ed848285016103b8565b91505092915050565b6103ff816104e1565b82525050565b61040e816104f3565b82525050565b60006104216019836104d0565b915061042c8261051f565b602082019050919050565b6000610444601c836104d0565b915061044f82610548565b602082019050919050565b600060208201905061046f60008301846103f6565b92915050565b600060208201905061048a6000830184610405565b92915050565b600060208201905081810360008301526104a981610414565b9050919050565b600060208201905081810360008301526104c981610437565b9050919050565b600082825260208201905092915050565b60006104ec826104ff565b9050919050565b60008115159050919050565b600073ffffffffffffffffffffffffffffffffffffffff82169050919050565b7f63616e6e6f74207472616e7366657220746f2061646472203000000000000000600082015250565b7f6f6e6c79206f776e65722063616e2063616c6c2066756e6374696f6e00000000600082015250565b61057a816104e1565b811461058557600080fd5b5056fea26469706673582212209d56caf9702a917b37bb2efef8265f55f8b290b0a3946b1d28ba4bee0f90724764736f6c63430008040033",
  "immutableReferences": {},
  "source": "// SPDX-License-Identifier: MIT\npragma solidity 0.8.4;\n\n\ncontract Ownable {\n    address private originalOwner;\n    event TransferOwnership(address indexed oldOwner, address indexed newOwner);\n\n    constructor() {\n        originalOwner = msg.sender;\n        emit TransferOwnership(address(0), originalOwner);\n    }\n\n\n    function ownerAccount() public view returns(address) {\n        return originalOwner;\n    }\n\n\n    function isOwner() public view returns(bool) {\n        return msg.sender == originalOwner;\n    }\n\n    modifier onlyOwner() {\n        require(isOwner(), 'only owner can call function');\n        _;\n    }\n\n    function _transferOwnership(address newOwner_) internal {\n        require(newOwner_ != address(0), 'cannot transfer to addr 0');\n        originalOwner = newOwner_;\n        emit TransferOwnership(originalOwner, newOwner_);\n    }\n\n    function transferOwnership(address _newOwner) public onlyOwner {\n        _transferOwnership(_newOwner);\n    }\n\n    function renounceOwnership() public onlyOwner {\n        emit TransferOwnership(originalOwner, address(0));\n        originalOwner = address(0);\n  }\n}",
  "sourcePath": "/home/godwin/blockchain-developer-bootcamp-final-project/contracts/Core/Ownable.sol",
  "compiler": {
    "name": "solc",
    "version": "0.8.4+commit.c7e474f2.Emscripten.clang"
  },
  "schemaVersion": "3.4.3",
  "updatedAt": "2021-11-23T08:08:09.910Z",
  "devdoc": {
    "kind": "dev",
    "methods": {},
    "version": 1
  },
  "userdoc": {
    "kind": "user",
    "methods": {},
    "version": 1
  }
}