{
  "contractName": "RestaurantRole",
  "abi": [
    {
      "inputs": [],
      "stateMutability": "nonpayable",
      "type": "constructor"
    },
    {
      "anonymous": false,
      "inputs": [
        {
          "indexed": true,
          "internalType": "address",
          "name": "account",
          "type": "address"
        }
      ],
      "name": "RestaurantAdded",
      "type": "event"
    },
    {
      "anonymous": false,
      "inputs": [
        {
          "indexed": true,
          "internalType": "address",
          "name": "account",
          "type": "address"
        }
      ],
      "name": "RestaurantRemoved",
      "type": "event"
    },
    {
      "inputs": [
        {
          "internalType": "address",
          "name": "_account",
          "type": "address"
        }
      ],
      "name": "isRestaurant",
      "outputs": [
        {
          "internalType": "bool",
          "name": "",
          "type": "bool"
        }
      ],
      "stateMutability": "view",
      "type": "function"
    },
    {
      "inputs": [
        {
          "internalType": "address",
          "name": "_account",
          "type": "address"
        }
      ],
      "name": "addRestaurant",
      "outputs": [],
      "stateMutability": "nonpayable",
      "type": "function"
    },
    {
      "inputs": [
        {
          "internalType": "address",
          "name": "_account",
          "type": "address"
        }
      ],
      "name": "_removeRestaurant",
      "outputs": [],
      "stateMutability": "nonpayable",
      "type": "function"
    }
  ],
  "bytecode": "0x608060405234801561001057600080fd5b506100203361002560201b60201c565b61031c565b61003d81600061008360201b6101731790919060201c565b8073ffffffffffffffffffffffffffffffffffffffff167f30fdfb5b96c8f1d53ce2c2df0c23849ad3b9a86a4b0aae4303d182d635593c4860405160405180910390a250565b600073ffffffffffffffffffffffffffffffffffffffff168173ffffffffffffffffffffffffffffffffffffffff1614156100f3576040517f08c379a00000000000000000000000000000000000000000000000000000000081526004016100ea90610279565b60405180910390fd5b61010382826101a160201b60201c565b15610143576040517f08c379a000000000000000000000000000000000000000000000000000000000815260040161013a90610299565b60405180910390fd5b60018260000160008373ffffffffffffffffffffffffffffffffffffffff1673ffffffffffffffffffffffffffffffffffffffff16815260200190815260200160002060006101000a81548160ff0219169083151502179055505050565b60008073ffffffffffffffffffffffffffffffffffffffff168273ffffffffffffffffffffffffffffffffffffffff1614156101dc57600080fd5b8260000160008373ffffffffffffffffffffffffffffffffffffffff1673ffffffffffffffffffffffffffffffffffffffff16815260200190815260200160002060009054906101000a900460ff16905092915050565b6000610240600f836102b9565b915061024b826102ca565b602082019050919050565b6000610263601a836102b9565b915061026e826102f3565b602082019050919050565b6000602082019050818103600083015261029281610233565b9050919050565b600060208201905081810360008301526102b281610256565b9050919050565b600082825260208201905092915050565b7f63616e6e6f742061646420686f6c650000000000000000000000000000000000600082015250565b7f6163636f756e74206d757374206e6f74206861766520726f6c65000000000000600082015250565b61082e8061032b6000396000f3fe608060405234801561001057600080fd5b50600436106100415760003560e01c8063328a8cc4146100465780638e673a2d14610062578063afc9e50814610092575b600080fd5b610060600480360381019061005b91906104fd565b6100ae565b005b61007c600480360381019061007791906104fd565b610102565b60405161008991906105e4565b60405180910390f35b6100ac60048036038101906100a791906104fd565b61011f565b005b6100b733610102565b6100f6576040517f08c379a00000000000000000000000000000000000000000000000000000000081526004016100ed9061067f565b60405180910390fd5b6100ff8161028b565b50565b60006101188260006102e590919063ffffffff16565b9050919050565b61012833610102565b610167576040517f08c379a000000000000000000000000000000000000000000000000000000000815260040161015e9061067f565b60405180910390fd5b61017081610377565b50565b600073ffffffffffffffffffffffffffffffffffffffff168173ffffffffffffffffffffffffffffffffffffffff1614156101e3576040517f08c379a00000000000000000000000000000000000000000000000000000000081526004016101da906105ff565b60405180910390fd5b6101ed82826102e5565b1561022d576040517f08c379a00000000000000000000000000000000000000000000000000000000081526004016102249061061f565b60405180910390fd5b60018260000160008373ffffffffffffffffffffffffffffffffffffffff1673ffffffffffffffffffffffffffffffffffffffff16815260200190815260200160002060006101000a81548160ff0219169083151502179055505050565b61029f81600061017390919063ffffffff16565b8073ffffffffffffffffffffffffffffffffffffffff167f30fdfb5b96c8f1d53ce2c2df0c23849ad3b9a86a4b0aae4303d182d635593c4860405160405180910390a250565b60008073ffffffffffffffffffffffffffffffffffffffff168273ffffffffffffffffffffffffffffffffffffffff16141561032057600080fd5b8260000160008373ffffffffffffffffffffffffffffffffffffffff1673ffffffffffffffffffffffffffffffffffffffff16815260200190815260200160002060009054906101000a900460ff16905092915050565b61038b8160006103d190919063ffffffff16565b8073ffffffffffffffffffffffffffffffffffffffff167fe2f8baf829f0cb6d609190eec3e8755addaa195065d640434d2ceecb9944c5f160405160405180910390a250565b600073ffffffffffffffffffffffffffffffffffffffff168173ffffffffffffffffffffffffffffffffffffffff161415610441576040517f08c379a00000000000000000000000000000000000000000000000000000000081526004016104389061063f565b60405180910390fd5b61044b82826102e5565b61048a576040517f08c379a00000000000000000000000000000000000000000000000000000000081526004016104819061065f565b60405180910390fd5b60008260000160008373ffffffffffffffffffffffffffffffffffffffff1673ffffffffffffffffffffffffffffffffffffffff16815260200190815260200160002060006101000a81548160ff0219169083151502179055505050565b6000813590506104f7816107e1565b92915050565b60006020828403121561050f57600080fd5b600061051d848285016104e8565b91505092915050565b61052f816106c2565b82525050565b6000610542600f8361069f565b915061054d826106ee565b602082019050919050565b6000610565601a8361069f565b915061057082610717565b602082019050919050565b6000610588601c8361069f565b915061059382610740565b602082019050919050565b60006105ab60168361069f565b91506105b682610769565b602082019050919050565b60006105ce60218361069f565b91506105d982610792565b604082019050919050565b60006020820190506105f96000830184610526565b92915050565b6000602082019050818103600083015261061881610535565b9050919050565b6000602082019050818103600083015261063881610558565b9050919050565b600060208201905081810360008301526106588161057b565b9050919050565b600060208201905081810360008301526106788161059e565b9050919050565b60006020820190508181036000830152610698816105c1565b9050919050565b600082825260208201905092915050565b60006106bb826106ce565b9050919050565b60008115159050919050565b600073ffffffffffffffffffffffffffffffffffffffff82169050919050565b7f63616e6e6f742061646420686f6c650000000000000000000000000000000000600082015250565b7f6163636f756e74206d757374206e6f74206861766520726f6c65000000000000600082015250565b7f616464726573732063616e6e6f7420626520626c61636b20686f6c6500000000600082015250565b7f61646472657373206d757374206861766520726f6c6500000000000000000000600082015250565b7f6f6e6c792072657374617572616e742063616e2063616c6c2066756e6374696f60008201527f6e00000000000000000000000000000000000000000000000000000000000000602082015250565b6107ea816106b0565b81146107f557600080fd5b5056fea26469706673582212203344eec18ae99e97bd1f0bb3c74afb9b7d0a161564a91bb42bfc9ab59513bae064736f6c63430008040033",
  "immutableReferences": {},
  "source": "// SPDX-License-Identifier: MIT\npragma solidity 0.8.4;\n\nimport './Roles.sol';\n\ncontract RestaurantRole {\n    using Roles for Roles.Role;\n    Roles.Role private restaurant;\n    \n    event RestaurantAdded(address indexed account);\n    event RestaurantRemoved(address indexed account);\n\n\n    modifier onlyRestaurant() {\n        require(isRestaurant(msg.sender), 'only restaurant can call function');\n        _;\n    }\n\n    constructor() {\n        _addRestaurant(msg.sender);\n    }\n\n    function isRestaurant(address _account) public view returns(bool) \n    {\n        return restaurant.hasRole(_account);\n    }\n\n    function _addRestaurant(address _account) internal \n    {\n        restaurant.add(_account);\n        emit RestaurantAdded(_account);\n    }\n\n    function addRestaurant(address _account) external onlyRestaurant \n    {\n        _addRestaurant(_account);\n    }\n\n    function _revokeRestaurant(address _account) internal \n    {\n        restaurant.remove(_account);\n        emit RestaurantRemoved(_account);\n    }\n\n    function _removeRestaurant(address _account) external onlyRestaurant \n    {\n        _revokeRestaurant(_account);\n    }\n}\n",
  "sourcePath": "/home/godwin/blockchain-developer-bootcamp-final-project/contracts/AccessControl/RestaurantRole.sol",
  "compiler": {
    "name": "solc",
    "version": "0.8.4+commit.c7e474f2.Emscripten.clang"
  },
  "schemaVersion": "3.4.3",
  "updatedAt": "2021-11-23T08:08:09.906Z",
  "devdoc": {
    "kind": "dev",
    "methods": {},
    "version": 1
  },
  "userdoc": {
    "kind": "user",
    "methods": {},
    "version": 1
  }
}