{
  "contractName": "RestaurantRole",
  "abi": [
    {
      "inputs": [],
      "stateMutability": "nonpayable",
      "type": "constructor"
    },
    {
      "anonymous": false,
      "inputs": [
        {
          "indexed": true,
          "internalType": "address",
          "name": "account",
          "type": "address"
        }
      ],
      "name": "RestaurantAdded",
      "type": "event"
    },
    {
      "anonymous": false,
      "inputs": [
        {
          "indexed": true,
          "internalType": "address",
          "name": "account",
          "type": "address"
        }
      ],
      "name": "RestaurantRemoved",
      "type": "event"
    },
    {
      "inputs": [
        {
          "internalType": "address",
          "name": "_account",
          "type": "address"
        }
      ],
      "name": "isRestaurant",
      "outputs": [
        {
          "internalType": "bool",
          "name": "",
          "type": "bool"
        }
      ],
      "stateMutability": "view",
      "type": "function"
    },
    {
      "inputs": [
        {
          "internalType": "address",
          "name": "_account",
          "type": "address"
        }
      ],
      "name": "addRestaurant",
      "outputs": [],
      "stateMutability": "nonpayable",
      "type": "function"
    },
    {
      "inputs": [
        {
          "internalType": "address",
          "name": "_account",
          "type": "address"
        }
      ],
      "name": "_removeRestaurant",
      "outputs": [],
      "stateMutability": "nonpayable",
      "type": "function"
    }
  ],
  "bytecode": "0x608060405234801561001057600080fd5b506100203361002560201b60201c565b61031c565b61003d81600061008360201b6101731790919060201c565b8073ffffffffffffffffffffffffffffffffffffffff167f30fdfb5b96c8f1d53ce2c2df0c23849ad3b9a86a4b0aae4303d182d635593c4860405160405180910390a250565b600073ffffffffffffffffffffffffffffffffffffffff168173ffffffffffffffffffffffffffffffffffffffff1614156100f3576040517f08c379a00000000000000000000000000000000000000000000000000000000081526004016100ea90610290565b60405180910390fd5b61010382826101a160201b60201c565b15610143576040517f08c379a000000000000000000000000000000000000000000000000000000000815260040161013a906102fc565b60405180910390fd5b60018260000160008373ffffffffffffffffffffffffffffffffffffffff1673ffffffffffffffffffffffffffffffffffffffff16815260200190815260200160002060006101000a81548160ff0219169083151502179055505050565b60008073ffffffffffffffffffffffffffffffffffffffff168273ffffffffffffffffffffffffffffffffffffffff1614156101dc57600080fd5b8260000160008373ffffffffffffffffffffffffffffffffffffffff1673ffffffffffffffffffffffffffffffffffffffff16815260200190815260200160002060009054906101000a900460ff16905092915050565b600082825260208201905092915050565b7f63616e6e6f742061646420686f6c650000000000000000000000000000000000600082015250565b600061027a600f83610233565b915061028582610244565b602082019050919050565b600060208201905081810360008301526102a98161026d565b9050919050565b7f6163636f756e74206d757374206e6f74206861766520726f6c65000000000000600082015250565b60006102e6601a83610233565b91506102f1826102b0565b602082019050919050565b60006020820190508181036000830152610315816102d9565b9050919050565b6108378061032b6000396000f3fe608060405234801561001057600080fd5b50600436106100415760003560e01c8063328a8cc4146100465780638e673a2d14610062578063afc9e50814610092575b600080fd5b610060600480360381019061005b919061054b565b6100ae565b005b61007c6004803603810190610077919061054b565b610102565b6040516100899190610593565b60405180910390f35b6100ac60048036038101906100a7919061054b565b61011f565b005b6100b733610102565b6100f6576040517f08c379a00000000000000000000000000000000000000000000000000000000081526004016100ed90610631565b60405180910390fd5b6100ff8161028b565b50565b60006101188260006102e590919063ffffffff16565b9050919050565b61012833610102565b610167576040517f08c379a000000000000000000000000000000000000000000000000000000000815260040161015e90610631565b60405180910390fd5b61017081610377565b50565b600073ffffffffffffffffffffffffffffffffffffffff168173ffffffffffffffffffffffffffffffffffffffff1614156101e3576040517f08c379a00000000000000000000000000000000000000000000000000000000081526004016101da9061069d565b60405180910390fd5b6101ed82826102e5565b1561022d576040517f08c379a000000000000000000000000000000000000000000000000000000000815260040161022490610709565b60405180910390fd5b60018260000160008373ffffffffffffffffffffffffffffffffffffffff1673ffffffffffffffffffffffffffffffffffffffff16815260200190815260200160002060006101000a81548160ff0219169083151502179055505050565b61029f81600061017390919063ffffffff16565b8073ffffffffffffffffffffffffffffffffffffffff167f30fdfb5b96c8f1d53ce2c2df0c23849ad3b9a86a4b0aae4303d182d635593c4860405160405180910390a250565b60008073ffffffffffffffffffffffffffffffffffffffff168273ffffffffffffffffffffffffffffffffffffffff16141561032057600080fd5b8260000160008373ffffffffffffffffffffffffffffffffffffffff1673ffffffffffffffffffffffffffffffffffffffff16815260200190815260200160002060009054906101000a900460ff16905092915050565b61038b8160006103d190919063ffffffff16565b8073ffffffffffffffffffffffffffffffffffffffff167fe2f8baf829f0cb6d609190eec3e8755addaa195065d640434d2ceecb9944c5f160405160405180910390a250565b600073ffffffffffffffffffffffffffffffffffffffff168173ffffffffffffffffffffffffffffffffffffffff161415610441576040517f08c379a000000000000000000000000000000000000000000000000000000000815260040161043890610775565b60405180910390fd5b61044b82826102e5565b61048a576040517f08c379a0000000000000000000000000000000000000000000000000000000008152600401610481906107e1565b60405180910390fd5b60008260000160008373ffffffffffffffffffffffffffffffffffffffff1673ffffffffffffffffffffffffffffffffffffffff16815260200190815260200160002060006101000a81548160ff0219169083151502179055505050565b600080fd5b600073ffffffffffffffffffffffffffffffffffffffff82169050919050565b6000610518826104ed565b9050919050565b6105288161050d565b811461053357600080fd5b50565b6000813590506105458161051f565b92915050565b600060208284031215610561576105606104e8565b5b600061056f84828501610536565b91505092915050565b60008115159050919050565b61058d81610578565b82525050565b60006020820190506105a86000830184610584565b92915050565b600082825260208201905092915050565b7f6f6e6c792072657374617572616e742063616e2063616c6c2066756e6374696f60008201527f6e00000000000000000000000000000000000000000000000000000000000000602082015250565b600061061b6021836105ae565b9150610626826105bf565b604082019050919050565b6000602082019050818103600083015261064a8161060e565b9050919050565b7f63616e6e6f742061646420686f6c650000000000000000000000000000000000600082015250565b6000610687600f836105ae565b915061069282610651565b602082019050919050565b600060208201905081810360008301526106b68161067a565b9050919050565b7f6163636f756e74206d757374206e6f74206861766520726f6c65000000000000600082015250565b60006106f3601a836105ae565b91506106fe826106bd565b602082019050919050565b60006020820190508181036000830152610722816106e6565b9050919050565b7f616464726573732063616e6e6f7420626520626c61636b20686f6c6500000000600082015250565b600061075f601c836105ae565b915061076a82610729565b602082019050919050565b6000602082019050818103600083015261078e81610752565b9050919050565b7f61646472657373206d757374206861766520726f6c6500000000000000000000600082015250565b60006107cb6016836105ae565b91506107d682610795565b602082019050919050565b600060208201905081810360008301526107fa816107be565b905091905056fea26469706673582212208ef6c0e3162e0430a8f21958c8b960f33afb8a033a78ee8729a1713814ee73fe64736f6c63430008090033",
  "immutableReferences": {},
  "source": "// SPDX-License-Identifier: MIT\npragma solidity >=0.5.0 <0.9.0;\n\nimport './Roles.sol';\n\ncontract RestaurantRole {\n    using Roles for Roles.Role;\n    Roles.Role private restaurant;\n    \n    event RestaurantAdded(address indexed account);\n    event RestaurantRemoved(address indexed account);\n\n\n    modifier onlyRestaurant() {\n        require(isRestaurant(msg.sender), 'only restaurant can call function');\n        _;\n    }\n\n    constructor() {\n        _addRestaurant(msg.sender);\n    }\n\n    function isRestaurant(address _account) public view returns(bool) \n    {\n        return restaurant.hasRole(_account);\n    }\n\n    function _addRestaurant(address _account) internal \n    {\n        restaurant.add(_account);\n        emit RestaurantAdded(_account);\n    }\n\n    function addRestaurant(address _account) external onlyRestaurant \n    {\n        _addRestaurant(_account);\n    }\n\n    function _revokeRestaurant(address _account) internal \n    {\n        restaurant.remove(_account);\n        emit RestaurantRemoved(_account);\n    }\n\n    function _removeRestaurant(address _account) external onlyRestaurant \n    {\n        _revokeRestaurant(_account);\n    }\n}\n",
  "sourcePath": "/home/godwin/blockchain-developer-bootcamp-final-project/contracts/AccessControl/RestaurantRole.sol",
  "compiler": {
    "name": "solc",
    "version": "0.8.9+commit.e5eed63a.Emscripten.clang"
  },
  "schemaVersion": "3.4.3",
  "updatedAt": "2021-11-01T18:59:25.485Z",
  "devdoc": {
    "kind": "dev",
    "methods": {},
    "version": 1
  },
  "userdoc": {
    "kind": "user",
    "methods": {},
    "version": 1
  }
}