{
  "contractName": "SupplyChain",
  "abi": [
    {
      "inputs": [],
      "stateMutability": "nonpayable",
      "type": "constructor"
    },
    {
      "anonymous": false,
      "inputs": [
        {
          "indexed": true,
          "internalType": "address",
          "name": "account",
          "type": "address"
        },
        {
          "indexed": false,
          "internalType": "uint256",
          "name": "timestamp",
          "type": "uint256"
        }
      ],
      "name": "ConsumerAdded",
      "type": "event"
    },
    {
      "anonymous": false,
      "inputs": [
        {
          "indexed": true,
          "internalType": "address",
          "name": "account",
          "type": "address"
        },
        {
          "indexed": false,
          "internalType": "uint256",
          "name": "timestamp",
          "type": "uint256"
        }
      ],
      "name": "ConsumerRemoved",
      "type": "event"
    },
    {
      "anonymous": false,
      "inputs": [
        {
          "indexed": true,
          "internalType": "address",
          "name": "account",
          "type": "address"
        },
        {
          "indexed": false,
          "internalType": "uint256",
          "name": "timestamp",
          "type": "uint256"
        }
      ],
      "name": "DispatcherAdded",
      "type": "event"
    },
    {
      "anonymous": false,
      "inputs": [
        {
          "indexed": true,
          "internalType": "address",
          "name": "account",
          "type": "address"
        },
        {
          "indexed": false,
          "internalType": "uint256",
          "name": "timestamp",
          "type": "uint256"
        }
      ],
      "name": "DispatcherRemoved",
      "type": "event"
    },
    {
      "anonymous": false,
      "inputs": [
        {
          "indexed": false,
          "internalType": "uint256",
          "name": "sku",
          "type": "uint256"
        },
        {
          "indexed": false,
          "internalType": "uint256",
          "name": "timestamp",
          "type": "uint256"
        }
      ],
      "name": "LogDis",
      "type": "event"
    },
    {
      "anonymous": false,
      "inputs": [
        {
          "indexed": false,
          "internalType": "uint256",
          "name": "sku",
          "type": "uint256"
        },
        {
          "indexed": false,
          "internalType": "uint256",
          "name": "timestamp",
          "type": "uint256"
        }
      ],
      "name": "LogDispatchSent",
      "type": "event"
    },
    {
      "anonymous": false,
      "inputs": [
        {
          "indexed": false,
          "internalType": "uint256",
          "name": "sku",
          "type": "uint256"
        },
        {
          "indexed": false,
          "internalType": "uint256",
          "name": "timestamp",
          "type": "uint256"
        }
      ],
      "name": "LogItemConfirmed",
      "type": "event"
    },
    {
      "anonymous": false,
      "inputs": [
        {
          "indexed": false,
          "internalType": "uint256",
          "name": "sku",
          "type": "uint256"
        },
        {
          "indexed": false,
          "internalType": "uint256",
          "name": "timestamp",
          "type": "uint256"
        }
      ],
      "name": "LogItemCooked",
      "type": "event"
    },
    {
      "anonymous": false,
      "inputs": [
        {
          "indexed": false,
          "internalType": "uint256",
          "name": "sku",
          "type": "uint256"
        },
        {
          "indexed": false,
          "internalType": "uint256",
          "name": "timestamp",
          "type": "uint256"
        }
      ],
      "name": "LogItemDispatched",
      "type": "event"
    },
    {
      "anonymous": false,
      "inputs": [
        {
          "indexed": false,
          "internalType": "uint256",
          "name": "upc",
          "type": "uint256"
        },
        {
          "indexed": false,
          "internalType": "uint256",
          "name": "timestamp",
          "type": "uint256"
        }
      ],
      "name": "LogItemOrder",
      "type": "event"
    },
    {
      "anonymous": false,
      "inputs": [
        {
          "indexed": false,
          "internalType": "uint256",
          "name": "sku",
          "type": "uint256"
        },
        {
          "indexed": false,
          "internalType": "uint256",
          "name": "timestamp",
          "type": "uint256"
        }
      ],
      "name": "LogItemPacked",
      "type": "event"
    },
    {
      "anonymous": false,
      "inputs": [
        {
          "indexed": false,
          "internalType": "uint256",
          "name": "sku",
          "type": "uint256"
        },
        {
          "indexed": false,
          "internalType": "uint256",
          "name": "timestamp",
          "type": "uint256"
        }
      ],
      "name": "LogItemPaid",
      "type": "event"
    },
    {
      "anonymous": false,
      "inputs": [
        {
          "indexed": false,
          "internalType": "uint256",
          "name": "sku",
          "type": "uint256"
        },
        {
          "indexed": false,
          "internalType": "uint256",
          "name": "timestamp",
          "type": "uint256"
        }
      ],
      "name": "LogItemProcessed",
      "type": "event"
    },
    {
      "anonymous": false,
      "inputs": [
        {
          "indexed": false,
          "internalType": "uint256",
          "name": "sku",
          "type": "uint256"
        },
        {
          "indexed": false,
          "internalType": "uint256",
          "name": "timestamp",
          "type": "uint256"
        }
      ],
      "name": "LogItemReceived",
      "type": "event"
    },
    {
      "anonymous": false,
      "inputs": [
        {
          "indexed": true,
          "internalType": "address",
          "name": "account",
          "type": "address"
        }
      ],
      "name": "RestaurantAdded",
      "type": "event"
    },
    {
      "anonymous": false,
      "inputs": [
        {
          "indexed": true,
          "internalType": "address",
          "name": "account",
          "type": "address"
        }
      ],
      "name": "RestaurantRemoved",
      "type": "event"
    },
    {
      "anonymous": false,
      "inputs": [
        {
          "indexed": true,
          "internalType": "address",
          "name": "oldOwner",
          "type": "address"
        },
        {
          "indexed": true,
          "internalType": "address",
          "name": "newOwner",
          "type": "address"
        }
      ],
      "name": "TransferOwnership",
      "type": "event"
    },
    {
      "inputs": [
        {
          "internalType": "address",
          "name": "_account",
          "type": "address"
        }
      ],
      "name": "_removeRestaurant",
      "outputs": [],
      "stateMutability": "nonpayable",
      "type": "function"
    },
    {
      "inputs": [
        {
          "internalType": "address",
          "name": "_account",
          "type": "address"
        }
      ],
      "name": "addConsumer",
      "outputs": [],
      "stateMutability": "nonpayable",
      "type": "function"
    },
    {
      "inputs": [
        {
          "internalType": "address",
          "name": "_account",
          "type": "address"
        }
      ],
      "name": "addDispatcher",
      "outputs": [],
      "stateMutability": "nonpayable",
      "type": "function"
    },
    {
      "inputs": [
        {
          "internalType": "address",
          "name": "_account",
          "type": "address"
        }
      ],
      "name": "addRestaurant",
      "outputs": [],
      "stateMutability": "nonpayable",
      "type": "function"
    },
    {
      "inputs": [
        {
          "internalType": "address",
          "name": "_account",
          "type": "address"
        }
      ],
      "name": "isConsumer",
      "outputs": [
        {
          "internalType": "bool",
          "name": "",
          "type": "bool"
        }
      ],
      "stateMutability": "view",
      "type": "function",
      "constant": true
    },
    {
      "inputs": [
        {
          "internalType": "address",
          "name": "_account",
          "type": "address"
        }
      ],
      "name": "isDispatcher",
      "outputs": [
        {
          "internalType": "bool",
          "name": "",
          "type": "bool"
        }
      ],
      "stateMutability": "view",
      "type": "function",
      "constant": true
    },
    {
      "inputs": [],
      "name": "isOwner",
      "outputs": [
        {
          "internalType": "bool",
          "name": "",
          "type": "bool"
        }
      ],
      "stateMutability": "view",
      "type": "function",
      "constant": true
    },
    {
      "inputs": [
        {
          "internalType": "address",
          "name": "_account",
          "type": "address"
        }
      ],
      "name": "isRestaurant",
      "outputs": [
        {
          "internalType": "bool",
          "name": "",
          "type": "bool"
        }
      ],
      "stateMutability": "view",
      "type": "function",
      "constant": true
    },
    {
      "inputs": [],
      "name": "ownerAccount",
      "outputs": [
        {
          "internalType": "address",
          "name": "",
          "type": "address"
        }
      ],
      "stateMutability": "view",
      "type": "function",
      "constant": true
    },
    {
      "inputs": [],
      "name": "renounceOwnership",
      "outputs": [],
      "stateMutability": "nonpayable",
      "type": "function"
    },
    {
      "inputs": [
        {
          "internalType": "address",
          "name": "_account",
          "type": "address"
        }
      ],
      "name": "revokeConsumer",
      "outputs": [],
      "stateMutability": "nonpayable",
      "type": "function"
    },
    {
      "inputs": [
        {
          "internalType": "address",
          "name": "_account",
          "type": "address"
        }
      ],
      "name": "revokeDispatcher",
      "outputs": [],
      "stateMutability": "nonpayable",
      "type": "function"
    },
    {
      "inputs": [
        {
          "internalType": "address",
          "name": "_newOwner",
          "type": "address"
        }
      ],
      "name": "transferOwnership",
      "outputs": [],
      "stateMutability": "nonpayable",
      "type": "function"
    },
    {
      "inputs": [],
      "name": "kill",
      "outputs": [],
      "stateMutability": "nonpayable",
      "type": "function"
    },
    {
      "inputs": [
        {
          "internalType": "address",
          "name": "_account",
          "type": "address"
        }
      ],
      "name": "transferOwnershipToAccount",
      "outputs": [],
      "stateMutability": "nonpayable",
      "type": "function"
    },
    {
      "inputs": [
        {
          "internalType": "uint256",
          "name": "_sku",
          "type": "uint256"
        },
        {
          "internalType": "address",
          "name": "_account",
          "type": "address"
        }
      ],
      "name": "addRestaurantAccount",
      "outputs": [],
      "stateMutability": "nonpayable",
      "type": "function"
    },
    {
      "inputs": [
        {
          "internalType": "uint256",
          "name": "_sku",
          "type": "uint256"
        },
        {
          "internalType": "address",
          "name": "_account",
          "type": "address"
        }
      ],
      "name": "transferOwnershipToDispatcher",
      "outputs": [],
      "stateMutability": "nonpayable",
      "type": "function"
    },
    {
      "inputs": [
        {
          "internalType": "uint256",
          "name": "_sku",
          "type": "uint256"
        },
        {
          "internalType": "address",
          "name": "_account",
          "type": "address"
        }
      ],
      "name": "enableDisapatcherAccount",
      "outputs": [],
      "stateMutability": "nonpayable",
      "type": "function"
    },
    {
      "inputs": [
        {
          "internalType": "uint256",
          "name": "_sku",
          "type": "uint256"
        },
        {
          "internalType": "address",
          "name": "_account",
          "type": "address"
        }
      ],
      "name": "enableConsumerAccount",
      "outputs": [],
      "stateMutability": "nonpayable",
      "type": "function"
    },
    {
      "inputs": [
        {
          "internalType": "uint256",
          "name": "_sku",
          "type": "uint256"
        },
        {
          "internalType": "address",
          "name": "_account",
          "type": "address"
        }
      ],
      "name": "transferOwnershipToConsumer",
      "outputs": [],
      "stateMutability": "nonpayable",
      "type": "function"
    },
    {
      "inputs": [
        {
          "internalType": "uint256",
          "name": "_sku",
          "type": "uint256"
        }
      ],
      "name": "OrderItem",
      "outputs": [],
      "stateMutability": "nonpayable",
      "type": "function"
    },
    {
      "inputs": [
        {
          "internalType": "uint256",
          "name": "_sku",
          "type": "uint256"
        }
      ],
      "name": "PayForItem",
      "outputs": [],
      "stateMutability": "payable",
      "type": "function",
      "payable": true
    },
    {
      "inputs": [
        {
          "internalType": "uint256",
          "name": "_sku",
          "type": "uint256"
        }
      ],
      "name": "ReceiveOrder",
      "outputs": [],
      "stateMutability": "nonpayable",
      "type": "function"
    },
    {
      "inputs": [
        {
          "internalType": "uint256",
          "name": "_sku",
          "type": "uint256"
        }
      ],
      "name": "CookOrder",
      "outputs": [],
      "stateMutability": "nonpayable",
      "type": "function"
    },
    {
      "inputs": [
        {
          "internalType": "uint256",
          "name": "_sku",
          "type": "uint256"
        }
      ],
      "name": "ProcessOrder",
      "outputs": [],
      "stateMutability": "nonpayable",
      "type": "function"
    },
    {
      "inputs": [
        {
          "internalType": "uint256",
          "name": "_sku",
          "type": "uint256"
        }
      ],
      "name": "PackageOrder",
      "outputs": [],
      "stateMutability": "nonpayable",
      "type": "function"
    },
    {
      "inputs": [
        {
          "internalType": "uint256",
          "name": "_sku",
          "type": "uint256"
        }
      ],
      "name": "DispatchOrder",
      "outputs": [],
      "stateMutability": "nonpayable",
      "type": "function"
    },
    {
      "inputs": [
        {
          "internalType": "uint256",
          "name": "_sku",
          "type": "uint256"
        }
      ],
      "name": "ReceiveDispatchedOrder",
      "outputs": [],
      "stateMutability": "nonpayable",
      "type": "function"
    },
    {
      "inputs": [
        {
          "internalType": "uint256",
          "name": "_sku",
          "type": "uint256"
        }
      ],
      "name": "DispatcherDispatchesOrder",
      "outputs": [],
      "stateMutability": "nonpayable",
      "type": "function"
    },
    {
      "inputs": [
        {
          "internalType": "uint256",
          "name": "_sku",
          "type": "uint256"
        }
      ],
      "name": "ConsumerReceivesItem",
      "outputs": [],
      "stateMutability": "nonpayable",
      "type": "function"
    },
    {
      "inputs": [
        {
          "internalType": "uint256",
          "name": "_sku",
          "type": "uint256"
        }
      ],
      "name": "getItemStatus",
      "outputs": [
        {
          "internalType": "string",
          "name": "status",
          "type": "string"
        }
      ],
      "stateMutability": "view",
      "type": "function",
      "constant": true
    },
    {
      "inputs": [],
      "name": "getTotalItems",
      "outputs": [
        {
          "internalType": "uint256",
          "name": "",
          "type": "uint256"
        }
      ],
      "stateMutability": "view",
      "type": "function",
      "constant": true
    },
    {
      "inputs": [],
      "name": "getOwner",
      "outputs": [
        {
          "internalType": "address",
          "name": "",
          "type": "address"
        }
      ],
      "stateMutability": "view",
      "type": "function",
      "constant": true
    },
    {
      "inputs": [
        {
          "internalType": "uint256",
          "name": "_sku",
          "type": "uint256"
        }
      ],
      "name": "getItemOwner",
      "outputs": [
        {
          "internalType": "address",
          "name": "",
          "type": "address"
        }
      ],
      "stateMutability": "view",
      "type": "function",
      "constant": true
    },
    {
      "inputs": [
        {
          "internalType": "uint256",
          "name": "_upc",
          "type": "uint256"
        }
      ],
      "name": "fetchRestaurantDetails",
      "outputs": [
        {
          "internalType": "uint256",
          "name": "itemSKU",
          "type": "uint256"
        },
        {
          "internalType": "address",
          "name": "ownerID",
          "type": "address"
        },
        {
          "internalType": "address",
          "name": "originRestaurantID",
          "type": "address"
        },
        {
          "internalType": "string",
          "name": "originRestaurantInfo",
          "type": "string"
        },
        {
          "internalType": "string",
          "name": "originRestaurantName",
          "type": "string"
        }
      ],
      "stateMutability": "view",
      "type": "function",
      "constant": true
    },
    {
      "inputs": [
        {
          "internalType": "uint256",
          "name": "_upc",
          "type": "uint256"
        }
      ],
      "name": "fetchProductDetails",
      "outputs": [
        {
          "internalType": "uint256",
          "name": "itemSKU",
          "type": "uint256"
        },
        {
          "internalType": "uint256",
          "name": "itemUPC",
          "type": "uint256"
        },
        {
          "internalType": "uint256",
          "name": "productID",
          "type": "uint256"
        },
        {
          "internalType": "string",
          "name": "productNotes",
          "type": "string"
        },
        {
          "internalType": "uint256",
          "name": "productPrice",
          "type": "uint256"
        },
        {
          "internalType": "string",
          "name": "status",
          "type": "string"
        },
        {
          "internalType": "address",
          "name": "dispatcherID",
          "type": "address"
        },
        {
          "internalType": "address",
          "name": "consumerID",
          "type": "address"
        }
      ],
      "stateMutability": "view",
      "type": "function",
      "constant": true
    }
  ],
  "bytecode": "0x60806040523480156200001157600080fd5b5062000023336200019b60201b60201c565b6200003433620001fc60201b60201c565b62000045336200021a60201b60201c565b33600360006101000a81548173ffffffffffffffffffffffffffffffffffffffff021916908373ffffffffffffffffffffffffffffffffffffffff160217905550600360009054906101000a900473ffffffffffffffffffffffffffffffffffffffff1673ffffffffffffffffffffffffffffffffffffffff16600073ffffffffffffffffffffffffffffffffffffffff167f5c486528ec3e3f0ea91181cff8116f02bfa350e03b8b6f12e00765adbb5af85c60405160405180910390a333600560006101000a81548173ffffffffffffffffffffffffffffffffffffffff021916908373ffffffffffffffffffffffffffffffffffffffff16021790555033600460006101000a81548173ffffffffffffffffffffffffffffffffffffffff021916908373ffffffffffffffffffffffffffffffffffffffff16021790555060006007819055506000600681905550620004e6565b620001b68160006200023860201b620036611790919060201c565b8073ffffffffffffffffffffffffffffffffffffffff167f30fdfb5b96c8f1d53ce2c2df0c23849ad3b9a86a4b0aae4303d182d635593c4860405160405180910390a250565b620002178160016200023860201b620036611790919060201c565b50565b620002358160026200023860201b620036611790919060201c565b50565b600073ffffffffffffffffffffffffffffffffffffffff168173ffffffffffffffffffffffffffffffffffffffff161415620002ab576040517f08c379a0000000000000000000000000000000000000000000000000000000008152600401620002a2906200043f565b60405180910390fd5b620002bd82826200035e60201b60201c565b1562000300576040517f08c379a0000000000000000000000000000000000000000000000000000000008152600401620002f79062000461565b60405180910390fd5b60018260000160008373ffffffffffffffffffffffffffffffffffffffff1673ffffffffffffffffffffffffffffffffffffffff16815260200190815260200160002060006101000a81548160ff0219169083151502179055505050565b60008073ffffffffffffffffffffffffffffffffffffffff168273ffffffffffffffffffffffffffffffffffffffff1614156200039a57600080fd5b8260000160008373ffffffffffffffffffffffffffffffffffffffff1673ffffffffffffffffffffffffffffffffffffffff16815260200190815260200160002060009054906101000a900460ff16905092915050565b600062000400600f8362000483565b91506200040d8262000494565b602082019050919050565b600062000427601a8362000483565b91506200043482620004bd565b602082019050919050565b600060208201905081810360008301526200045a81620003f1565b9050919050565b600060208201905081810360008301526200047c8162000418565b9050919050565b600082825260208201905092915050565b7f63616e6e6f742061646420686f6c650000000000000000000000000000000000600082015250565b7f6163636f756e74206d757374206e6f74206861766520726f6c65000000000000600082015250565b614a9180620004f66000396000f3fe60806040526004361061020f5760003560e01c806394fa1e8911610118578063bb8ddea7116100a0578063d257fee91161006f578063d257fee914610763578063ea47cb24146107a0578063f2fde38b146107cb578063fa0fde5d146107f4578063fa78955b1461081d5761020f565b8063bb8ddea7146106bf578063bf6bdfe8146106e8578063c76d3f9914610711578063ce74da4f1461073a5761020f565b8063a60ff034116100e7578063a60ff034146105d7578063aa39734b14610600578063aeee8db514610644578063afc9e5081461066d578063b9c84333146106965761020f565b806394fa1e8914610540578063991db50f1461056957806399cbf0c8146105925780639e2f4c6b146105bb5761020f565b806364dfa3b81161019b578063759974d71161016a578063759974d714610447578063834ff73914610470578063893d20e8146104ad5780638e673a2d146104d85780638f32d59b146105155761020f565b806364dfa3b81461039d5780636ef5c3f8146103c6578063715018a61461040757806375348d351461041e5761020f565b8063328a8cc4116101e2578063328a8cc4146102ce578063333f46ae146102f75780633bae4de81461032057806341c0e1b51461035d57806361182d63146103745761020f565b80630a852a7014610214578063112940f91461023d5780631d1440fd14610266578063310aac69146102a3575b600080fd5b34801561022057600080fd5b5061023b60048036038101906102369190613bde565b610846565b005b34801561024957600080fd5b50610264600480360381019061025f9190613b8c565b6109a7565b005b34801561027257600080fd5b5061028d60048036038101906102889190613bb5565b610a49565b60405161029a9190613fdd565b60405180910390f35b3480156102af57600080fd5b506102b8610ace565b6040516102c59190614315565b60405180910390f35b3480156102da57600080fd5b506102f560048036038101906102f09190613b8c565b610ad8565b005b34801561030357600080fd5b5061031e60048036038101906103199190613bb5565b610b2c565b005b34801561032c57600080fd5b5061034760048036038101906103429190613bb5565b610d32565b6040516103549190614013565b60405180910390f35b34801561036957600080fd5b506103726110a0565b005b34801561038057600080fd5b5061039b60048036038101906103969190613bb5565b611133565b005b3480156103a957600080fd5b506103c460048036038101906103bf9190613bb5565b611339565b005b3480156103d257600080fd5b506103ed60048036038101906103e89190613bb5565b61153f565b6040516103fe959493929190614330565b60405180910390f35b34801561041357600080fd5b5061041c611766565b005b34801561042a57600080fd5b5061044560048036038101906104409190613b8c565b61186e565b005b34801561045357600080fd5b5061046e60048036038101906104699190613bb5565b611910565b005b34801561047c57600080fd5b5061049760048036038101906104929190613b8c565b611b16565b6040516104a49190613ff8565b60405180910390f35b3480156104b957600080fd5b506104c2611b33565b6040516104cf9190613fdd565b60405180910390f35b3480156104e457600080fd5b506104ff60048036038101906104fa9190613b8c565b611b5d565b60405161050c9190613ff8565b60405180910390f35b34801561052157600080fd5b5061052a611b7a565b6040516105379190613ff8565b60405180910390f35b34801561054c57600080fd5b5061056760048036038101906105629190613bb5565b611bd2565b005b34801561057557600080fd5b50610590600480360381019061058b9190613bde565b611dd8565b005b34801561059e57600080fd5b506105b960048036038101906105b49190613b8c565b611ef3565b005b6105d560048036038101906105d09190613bb5565b611ff9565b005b3480156105e357600080fd5b506105fe60048036038101906105f99190613bde565b6124d2565b005b34801561060c57600080fd5b5061062760048036038101906106229190613bb5565b6125eb565b60405161063b9897969594939291906143ba565b60405180910390f35b34801561065057600080fd5b5061066b60048036038101906106669190613bde565b612ae2565b005b34801561067957600080fd5b50610694600480360381019061068f9190613b8c565b612c98565b005b3480156106a257600080fd5b506106bd60048036038101906106b89190613bb5565b612cec565b005b3480156106cb57600080fd5b506106e660048036038101906106e19190613bb5565b612dd7565b005b3480156106f457600080fd5b5061070f600480360381019061070a9190613bde565b612fdd565b005b34801561071d57600080fd5b5061073860048036038101906107339190613bb5565b613193565b005b34801561074657600080fd5b50610761600480360381019061075c9190613b8c565b613398565b005b34801561076f57600080fd5b5061078a60048036038101906107859190613b8c565b61343a565b6040516107979190613ff8565b60405180910390f35b3480156107ac57600080fd5b506107b5613457565b6040516107c29190613fdd565b60405180910390f35b3480156107d757600080fd5b506107f260048036038101906107ed9190613b8c565b613481565b005b34801561080057600080fd5b5061081b60048036038101906108169190613bb5565b6134d4565b005b34801561082957600080fd5b50610844600480360381019061083f9190613b8c565b6135bf565b005b816000811161088a576040517f08c379a000000000000000000000000000000000000000000000000000000000815260040161088190614035565b60405180910390fd5b81600073ffffffffffffffffffffffffffffffffffffffff168173ffffffffffffffffffffffffffffffffffffffff1614156108fb576040517f08c379a00000000000000000000000000000000000000000000000000000000081526004016108f2906142b5565b60405180910390fd5b6109043361343a565b610943576040517f08c379a000000000000000000000000000000000000000000000000000000000815260040161093a90614275565b60405180910390fd5b61094c83613779565b8260086000868152602001908152602001600020600a0160006101000a81548173ffffffffffffffffffffffffffffffffffffffff021916908373ffffffffffffffffffffffffffffffffffffffff16021790555050505050565b6109b033611b16565b6109ef576040517f08c379a00000000000000000000000000000000000000000000000000000000081526004016109e690614055565b60405180910390fd5b6109f881613779565b8073ffffffffffffffffffffffffffffffffffffffff167f2dc5af27f00486a48c2455869e7d6bb7d1564629e6bf6e5f5667c994bb2f925142604051610a3e9190614315565b60405180910390a250565b60008160008111610a8f576040517f08c379a0000000000000000000000000000000000000000000000000000000008152600401610a8690614035565b60405180910390fd5b6008600084815260200190815260200160002060020160009054906101000a900473ffffffffffffffffffffffffffffffffffffffff16915050919050565b6000600754905090565b610ae133611b5d565b610b20576040517f08c379a0000000000000000000000000000000000000000000000000000000008152600401610b17906142f5565b60405180910390fd5b610b2981613790565b50565b8060008111610b70576040517f08c379a0000000000000000000000000000000000000000000000000000000008152600401610b6790614035565b60405180910390fd5b8160016009811115610bab577f4e487b7100000000000000000000000000000000000000000000000000000000600052602160045260246000fd5b6008600083815260200190815260200160002060090160009054906101000a900460ff166009811115610c07577f4e487b7100000000000000000000000000000000000000000000000000000000600052602160045260246000fd5b14610c47576040517f08c379a0000000000000000000000000000000000000000000000000000000008152600401610c3e90614135565b60405180910390fd5b610c5033611b5d565b610c8f576040517f08c379a0000000000000000000000000000000000000000000000000000000008152600401610c86906142f5565b60405180910390fd5b60026008600085815260200190815260200160002060090160006101000a81548160ff02191690836009811115610cef577f4e487b7100000000000000000000000000000000000000000000000000000000600052602160045260246000fd5b02179055507f2ffba759c1dbe55ce8060edb69dbec03d7defa714829b81dd3d654010ed61a058342604051610d25929190614391565b60405180910390a1505050565b60608160008111610d78576040517f08c379a0000000000000000000000000000000000000000000000000000000008152600401610d6f90614035565b60405180910390fd5b60006008600085815260200190815260200160002060090160009054906101000a900460ff166009811115610dd6577f4e487b7100000000000000000000000000000000000000000000000000000000600052602160045260246000fd5b90506000811415610e1e576040518060400160405280600781526020017f4f726465726564000000000000000000000000000000000000000000000000008152509250611099565b6001811415610e64576040518060400160405280600481526020017f50616964000000000000000000000000000000000000000000000000000000008152509250611098565b6002811415610eaa576040518060400160405280600881526020017f52656365697665640000000000000000000000000000000000000000000000008152509250611097565b6003811415610ef0576040518060400160405280600681526020017f436f6f6b656400000000000000000000000000000000000000000000000000008152509250611096565b6004811415610f36576040518060400160405280600981526020017f50726f63657373656400000000000000000000000000000000000000000000008152509250611095565b6005811415610f7c576040518060400160405280600681526020017f5061636b656400000000000000000000000000000000000000000000000000008152509250611094565b6006811415610fc2576040518060400160405280600a81526020017f44697370617463686564000000000000000000000000000000000000000000008152509250611093565b6007811415611008576040518060400160405280601281526020017f44697370617463686564526563656976656400000000000000000000000000008152509250611092565b600881141561104e576040518060400160405280600c81526020017f446973706174636853656e7400000000000000000000000000000000000000008152509250611091565b6009811415611090576040518060400160405280600981526020017f436f6e6669726d6564000000000000000000000000000000000000000000000081525092505b5b5b5b5b5b5b5b5b5b5050919050565b600460009054906101000a900473ffffffffffffffffffffffffffffffffffffffff1673ffffffffffffffffffffffffffffffffffffffff163373ffffffffffffffffffffffffffffffffffffffff16141561113157600460009054906101000a900473ffffffffffffffffffffffffffffffffffffffff1673ffffffffffffffffffffffffffffffffffffffff16ff5b565b8060008111611177576040517f08c379a000000000000000000000000000000000000000000000000000000000815260040161116e90614035565b60405180910390fd5b81600660098111156111b2577f4e487b7100000000000000000000000000000000000000000000000000000000600052602160045260246000fd5b6008600083815260200190815260200160002060090160009054906101000a900460ff16600981111561120e577f4e487b7100000000000000000000000000000000000000000000000000000000600052602160045260246000fd5b1461124e576040517f08c379a0000000000000000000000000000000000000000000000000000000008152600401611245906141f5565b60405180910390fd5b6112573361343a565b611296576040517f08c379a000000000000000000000000000000000000000000000000000000000815260040161128d90614275565b60405180910390fd5b60076008600085815260200190815260200160002060090160006101000a81548160ff021916908360098111156112f6577f4e487b7100000000000000000000000000000000000000000000000000000000600052602160045260246000fd5b02179055507fbf7f3cbc6cc9c6fac63b3cd9594603ee48078524bcf254f89083492d240ea246834260405161132c929190614391565b60405180910390a1505050565b806000811161137d576040517f08c379a000000000000000000000000000000000000000000000000000000000815260040161137490614035565b60405180910390fd5b81600860098111156113b8577f4e487b7100000000000000000000000000000000000000000000000000000000600052602160045260246000fd5b6008600083815260200190815260200160002060090160009054906101000a900460ff166009811115611414577f4e487b7100000000000000000000000000000000000000000000000000000000600052602160045260246000fd5b14611454576040517f08c379a000000000000000000000000000000000000000000000000000000000815260040161144b90614095565b60405180910390fd5b61145d33611b16565b61149c576040517f08c379a000000000000000000000000000000000000000000000000000000000815260040161149390614055565b60405180910390fd5b60096008600085815260200190815260200160002060090160006101000a81548160ff021916908360098111156114fc577f4e487b7100000000000000000000000000000000000000000000000000000000600052602160045260246000fd5b02179055507f83f709bac2889b65ee3dba04dc2780022c7ebd4fad2f817e92046a5be03ac6878342604051611532929190614391565b60405180910390a1505050565b60008060006060806000861161158a576040517f08c379a000000000000000000000000000000000000000000000000000000000815260040161158190614035565b60405180910390fd5b60086000878152602001908152602001600020600001546008600088815260200190815260200160002060020160009054906101000a900473ffffffffffffffffffffffffffffffffffffffff166008600089815260200190815260200160002060030160009054906101000a900473ffffffffffffffffffffffffffffffffffffffff16600860008a8152602001908152602001600020600501600860008b81526020019081526020016000206004018180546116479061451c565b80601f01602080910402602001604051908101604052809291908181526020018280546116739061451c565b80156116c05780601f10611695576101008083540402835291602001916116c0565b820191906000526020600020905b8154815290600101906020018083116116a357829003601f168201915b505050505091508080546116d39061451c565b80601f01602080910402602001604051908101604052809291908181526020018280546116ff9061451c565b801561174c5780601f106117215761010080835404028352916020019161174c565b820191906000526020600020905b81548152906001019060200180831161172f57829003601f168201915b505050505090509450945094509450945091939590929450565b61176e611b7a565b6117ad576040517f08c379a00000000000000000000000000000000000000000000000000000000081526004016117a4906141d5565b60405180910390fd5b600073ffffffffffffffffffffffffffffffffffffffff16600360009054906101000a900473ffffffffffffffffffffffffffffffffffffffff1673ffffffffffffffffffffffffffffffffffffffff167f5c486528ec3e3f0ea91181cff8116f02bfa350e03b8b6f12e00765adbb5af85c60405160405180910390a36000600360006101000a81548173ffffffffffffffffffffffffffffffffffffffff021916908373ffffffffffffffffffffffffffffffffffffffff160217905550565b6118773361343a565b6118b6576040517f08c379a00000000000000000000000000000000000000000000000000000000081526004016118ad90614275565b60405180910390fd5b6118bf816137ea565b8073ffffffffffffffffffffffffffffffffffffffff167fbd55d3e81a859ffec0d9ef348cd5d71726b2270aff4105f50d66e037ec078c34426040516119059190614315565b60405180910390a250565b8060008111611954576040517f08c379a000000000000000000000000000000000000000000000000000000000815260040161194b90614035565b60405180910390fd5b816005600981111561198f577f4e487b7100000000000000000000000000000000000000000000000000000000600052602160045260246000fd5b6008600083815260200190815260200160002060090160009054906101000a900460ff1660098111156119eb577f4e487b7100000000000000000000000000000000000000000000000000000000600052602160045260246000fd5b14611a2b576040517f08c379a0000000000000000000000000000000000000000000000000000000008152600401611a2290614295565b60405180910390fd5b611a3433611b5d565b611a73576040517f08c379a0000000000000000000000000000000000000000000000000000000008152600401611a6a906142f5565b60405180910390fd5b60066008600085815260200190815260200160002060090160006101000a81548160ff02191690836009811115611ad3577f4e487b7100000000000000000000000000000000000000000000000000000000600052602160045260246000fd5b02179055507fb3c241758eed41f41cbea9cb9a8356524f679956602f0f53bb01f815abd083378342604051611b09929190614391565b60405180910390a1505050565b6000611b2c82600261380190919063ffffffff16565b9050919050565b6000600460009054906101000a900473ffffffffffffffffffffffffffffffffffffffff16905090565b6000611b7382600061380190919063ffffffff16565b9050919050565b6000600360009054906101000a900473ffffffffffffffffffffffffffffffffffffffff1673ffffffffffffffffffffffffffffffffffffffff163373ffffffffffffffffffffffffffffffffffffffff1614905090565b8060008111611c16576040517f08c379a0000000000000000000000000000000000000000000000000000000008152600401611c0d90614035565b60405180910390fd5b8160036009811115611c51577f4e487b7100000000000000000000000000000000000000000000000000000000600052602160045260246000fd5b6008600083815260200190815260200160002060090160009054906101000a900460ff166009811115611cad577f4e487b7100000000000000000000000000000000000000000000000000000000600052602160045260246000fd5b14611ced576040517f08c379a0000000000000000000000000000000000000000000000000000000008152600401611ce4906140d5565b60405180910390fd5b611cf633611b5d565b611d35576040517f08c379a0000000000000000000000000000000000000000000000000000000008152600401611d2c906142f5565b60405180910390fd5b60046008600085815260200190815260200160002060090160006101000a81548160ff02191690836009811115611d95577f4e487b7100000000000000000000000000000000000000000000000000000000600052602160045260246000fd5b02179055507f950b09e901f64e4ab9b871d275d75e90fc84a5ba62cbba02b843039d624a08208342604051611dcb929190614391565b60405180910390a1505050565b611de0611b7a565b611e1f576040517f08c379a0000000000000000000000000000000000000000000000000000000008152600401611e16906141d5565b60405180910390fd5b80600073ffffffffffffffffffffffffffffffffffffffff168173ffffffffffffffffffffffffffffffffffffffff161415611e90576040517f08c379a0000000000000000000000000000000000000000000000000000000008152600401611e87906142b5565b60405180910390fd5b611e9982613790565b816008600085815260200190815260200160002060030160006101000a81548173ffffffffffffffffffffffffffffffffffffffff021916908373ffffffffffffffffffffffffffffffffffffffff160217905550505050565b611efb611b7a565b611f3a576040517f08c379a0000000000000000000000000000000000000000000000000000000008152600401611f31906141d5565b60405180910390fd5b80600073ffffffffffffffffffffffffffffffffffffffff168173ffffffffffffffffffffffffffffffffffffffff161415611fab576040517f08c379a0000000000000000000000000000000000000000000000000000000008152600401611fa2906142b5565b60405180910390fd5b81600460006101000a81548173ffffffffffffffffffffffffffffffffffffffff021916908373ffffffffffffffffffffffffffffffffffffffff160217905550611ff582613481565b5050565b806000811161203d576040517f08c379a000000000000000000000000000000000000000000000000000000000815260040161203490614035565b60405180910390fd5b600860008381526020019081526020016000206008015480341015612097576040517f08c379a000000000000000000000000000000000000000000000000000000000815260040161208e906140f5565b60405180910390fd5b8283600060098111156120d3577f4e487b7100000000000000000000000000000000000000000000000000000000600052602160045260246000fd5b6008600083815260200190815260200160002060090160009054906101000a900460ff16600981111561212f577f4e487b7100000000000000000000000000000000000000000000000000000000600052602160045260246000fd5b1461216f576040517f08c379a0000000000000000000000000000000000000000000000000000000008152600401612166906141b5565b60405180910390fd5b61217833611b16565b6121b7576040517f08c379a00000000000000000000000000000000000000000000000000000000081526004016121ae90614055565b60405180910390fd5b60003390508060086000888152602001908152602001600020600a0160006101000a81548173ffffffffffffffffffffffffffffffffffffffff021916908373ffffffffffffffffffffffffffffffffffffffff16021790555060006008600088815260200190815260200160002060030160009054906101000a900473ffffffffffffffffffffffffffffffffffffffff1690506000600860008981526020019081526020016000206008015490506001600860008a815260200190815260200160002060090160006101000a81548160ff021916908360098111156122c7577f4e487b7100000000000000000000000000000000000000000000000000000000600052602160045260246000fd5b021790555060008273ffffffffffffffffffffffffffffffffffffffff16826040516122f290613fc8565b60006040518083038185875af1925050503d806000811461232f576040519150601f19603f3d011682016040523d82523d6000602084013e612334565b606091505b5050905080612378576040517f08c379a000000000000000000000000000000000000000000000000000000000815260040161236f90614115565b60405180910390fd5b7f223154f03370c4c2e8065e6a9b7eafdab7f1a069e866f228a758a841b807c95689426040516123a9929190614391565b60405180910390a1505050505060006008600083815260200190815260200160002060090160019054906101000a900473ffffffffffffffffffffffffffffffffffffffff1690506000600860008481526020019081526020016000206008015490506000813461241a919061446d565b905060008373ffffffffffffffffffffffffffffffffffffffff168260405161244290613fc8565b60006040518083038185875af1925050503d806000811461247f576040519150601f19603f3d011682016040523d82523d6000602084013e612484565b606091505b50509050806124c8576040517f08c379a00000000000000000000000000000000000000000000000000000000081526004016124bf90614155565b60405180910390fd5b5050505050505050565b8160008111612516576040517f08c379a000000000000000000000000000000000000000000000000000000000815260040161250d90614035565b60405180910390fd5b81600073ffffffffffffffffffffffffffffffffffffffff168173ffffffffffffffffffffffffffffffffffffffff161415612587576040517f08c379a000000000000000000000000000000000000000000000000000000000815260040161257e906142b5565b60405180910390fd5b612590836137ea565b826008600086815260200190815260200160002060090160016101000a81548173ffffffffffffffffffffffffffffffffffffffff021916908373ffffffffffffffffffffffffffffffffffffffff16021790555050505050565b6000806000606060006060600080886000811161263d576040517f08c379a000000000000000000000000000000000000000000000000000000000815260040161263490614035565b60405180910390fd5b600860008b8152602001908152602001600020600001549850600860008b8152602001908152602001600020600101549750600860008b8152602001908152602001600020600601549650600860008b815260200190815260200160002060070180546126a99061451c565b80601f01602080910402602001604051908101604052809291908181526020018280546126d59061451c565b80156127225780601f106126f757610100808354040283529160200191612722565b820191906000526020600020905b81548152906001019060200180831161270557829003601f168201915b50505050509550600860008b81526020019081526020016000206008015494506000600860008c815260200190815260200160002060090160009054906101000a900460ff1660098111156127a0577f4e487b7100000000000000000000000000000000000000000000000000000000600052602160045260246000fd5b905060008114156127e8576040518060400160405280600781526020017f4f726465726564000000000000000000000000000000000000000000000000008152509450612a63565b600181141561282e576040518060400160405280600481526020017f50616964000000000000000000000000000000000000000000000000000000008152509450612a62565b6002811415612874576040518060400160405280600881526020017f52656365697665640000000000000000000000000000000000000000000000008152509450612a61565b60038114156128ba576040518060400160405280600681526020017f436f6f6b656400000000000000000000000000000000000000000000000000008152509450612a60565b6004811415612900576040518060400160405280600981526020017f50726f63657373656400000000000000000000000000000000000000000000008152509450612a5f565b6005811415612946576040518060400160405280600681526020017f5061636b656400000000000000000000000000000000000000000000000000008152509450612a5e565b600681141561298c576040518060400160405280600a81526020017f44697370617463686564000000000000000000000000000000000000000000008152509450612a5d565b60078114156129d2576040518060400160405280601281526020017f44697370617463686564526563656976656400000000000000000000000000008152509450612a5c565b6008811415612a18576040518060400160405280600c81526020017f446973706174636853656e7400000000000000000000000000000000000000008152509450612a5b565b6009811415612a5a576040518060400160405280600981526020017f436f6e6669726d6564000000000000000000000000000000000000000000000081525094505b5b5b5b5b5b5b5b5b5b600860008c815260200190815260200160002060090160019054906101000a900473ffffffffffffffffffffffffffffffffffffffff169350600860008c8152602001908152602001600020600a0160009054906101000a900473ffffffffffffffffffffffffffffffffffffffff1692505050919395975091939597565b80600073ffffffffffffffffffffffffffffffffffffffff168173ffffffffffffffffffffffffffffffffffffffff161415612b53576040517f08c379a0000000000000000000000000000000000000000000000000000000008152600401612b4a906142b5565b60405180910390fd5b600060086000858152602001908152602001600020600a0160009054906101000a900473ffffffffffffffffffffffffffffffffffffffff1690508073ffffffffffffffffffffffffffffffffffffffff168373ffffffffffffffffffffffffffffffffffffffff1614612bfc576040517f08c379a0000000000000000000000000000000000000000000000000000000008152600401612bf390614235565b60405180910390fd5b80600460006101000a81548173ffffffffffffffffffffffffffffffffffffffff021916908373ffffffffffffffffffffffffffffffffffffffff160217905550806008600086815260200190815260200160002060020160006101000a81548173ffffffffffffffffffffffffffffffffffffffff021916908373ffffffffffffffffffffffffffffffffffffffff16021790555050505050565b612ca133611b5d565b612ce0576040517f08c379a0000000000000000000000000000000000000000000000000000000008152600401612cd7906142f5565b60405180910390fd5b612ce981613893565b50565b612cf533611b16565b612d34576040517f08c379a0000000000000000000000000000000000000000000000000000000008152600401612d2b90614055565b60405180910390fd5b60006008600083815260200190815260200160002060090160006101000a81548160ff02191690836009811115612d94577f4e487b7100000000000000000000000000000000000000000000000000000000600052602160045260246000fd5b02179055507fc9c8278df7d1e72d88c44e3308484ec9d198429e0da228d7d3db6581d946033560075442604051612dcc929190614391565b60405180910390a150565b8060008111612e1b576040517f08c379a0000000000000000000000000000000000000000000000000000000008152600401612e1290614035565b60405180910390fd5b8160046009811115612e56577f4e487b7100000000000000000000000000000000000000000000000000000000600052602160045260246000fd5b6008600083815260200190815260200160002060090160009054906101000a900460ff166009811115612eb2577f4e487b7100000000000000000000000000000000000000000000000000000000600052602160045260246000fd5b14612ef2576040517f08c379a0000000000000000000000000000000000000000000000000000000008152600401612ee990614255565b60405180910390fd5b612efb33611b5d565b612f3a576040517f08c379a0000000000000000000000000000000000000000000000000000000008152600401612f31906142f5565b60405180910390fd5b60056008600085815260200190815260200160002060090160006101000a81548160ff02191690836009811115612f9a577f4e487b7100000000000000000000000000000000000000000000000000000000600052602160045260246000fd5b02179055507fabff0e7b526b3546deaa921577d9b1e957a41739419f3465e63ead6051574e878342604051612fd0929190614391565b60405180910390a1505050565b80600073ffffffffffffffffffffffffffffffffffffffff168173ffffffffffffffffffffffffffffffffffffffff16141561304e576040517f08c379a0000000000000000000000000000000000000000000000000000000008152600401613045906142b5565b60405180910390fd5b60006008600085815260200190815260200160002060090160019054906101000a900473ffffffffffffffffffffffffffffffffffffffff1690508073ffffffffffffffffffffffffffffffffffffffff168373ffffffffffffffffffffffffffffffffffffffff16146130f7576040517f08c379a00000000000000000000000000000000000000000000000000000000081526004016130ee906140b5565b60405180910390fd5b80600460006101000a81548173ffffffffffffffffffffffffffffffffffffffff021916908373ffffffffffffffffffffffffffffffffffffffff160217905550806008600086815260200190815260200160002060020160006101000a81548173ffffffffffffffffffffffffffffffffffffffff021916908373ffffffffffffffffffffffffffffffffffffffff16021790555050505050565b80600081116131d7576040517f08c379a00000000000000000000000000000000000000000000000000000000081526004016131ce90614035565b60405180910390fd5b8160076009811115613212577f4e487b7100000000000000000000000000000000000000000000000000000000600052602160045260246000fd5b6008600083815260200190815260200160002060090160009054906101000a900460ff16600981111561326e577f4e487b7100000000000000000000000000000000000000000000000000000000600052602160045260246000fd5b146132ae576040517f08c379a00000000000000000000000000000000000000000000000000000000081526004016132a590614095565b60405180910390fd5b6132b73361343a565b6132f6576040517f08c379a00000000000000000000000000000000000000000000000000000000081526004016132ed90614275565b60405180910390fd5b600880600085815260200190815260200160002060090160006101000a81548160ff02191690836009811115613355577f4e487b7100000000000000000000000000000000000000000000000000000000600052602160045260246000fd5b02179055507f108110c44b0420b20431fe816414b81a1e96fbc6bfa7fb9f60dde02ef95a9eda834260405161338b929190614391565b60405180910390a1505050565b6133a133611b16565b6133e0576040517f08c379a00000000000000000000000000000000000000000000000000000000081526004016133d790614055565b60405180910390fd5b6133e9816138ed565b8073ffffffffffffffffffffffffffffffffffffffff167fa116f0ee5787718140c479c562d9adda97bee63979fc2e8a7bddb47948fce6564260405161342f9190614315565b60405180910390a250565b600061345082600161380190919063ffffffff16565b9050919050565b6000600360009054906101000a900473ffffffffffffffffffffffffffffffffffffffff16905090565b613489611b7a565b6134c8576040517f08c379a00000000000000000000000000000000000000000000000000000000081526004016134bf906141d5565b60405180910390fd5b6134d181613904565b50565b6134dd33611b5d565b61351c576040517f08c379a0000000000000000000000000000000000000000000000000000000008152600401613513906142f5565b60405180910390fd5b60036008600083815260200190815260200160002060090160006101000a81548160ff0219169083600981111561357c577f4e487b7100000000000000000000000000000000000000000000000000000000600052602160045260246000fd5b02179055507fc25a34432c9ef8c3e121c19cd384e660d83cab2a2a614519af47849ad7dea754600754426040516135b4929190614391565b60405180910390a150565b6135c83361343a565b613607576040517f08c379a00000000000000000000000000000000000000000000000000000000081526004016135fe90614275565b60405180910390fd5b61361081613a34565b8073ffffffffffffffffffffffffffffffffffffffff167fa3ab7333c318866d97e85edecc6942f223cfe878e790bf7339ad279fb6941ca9426040516136569190614315565b60405180910390a250565b600073ffffffffffffffffffffffffffffffffffffffff168173ffffffffffffffffffffffffffffffffffffffff1614156136d1576040517f08c379a00000000000000000000000000000000000000000000000000000000081526004016136c890614175565b60405180910390fd5b6136db8282613801565b1561371b576040517f08c379a000000000000000000000000000000000000000000000000000000000815260040161371290614195565b60405180910390fd5b60018260000160008373ffffffffffffffffffffffffffffffffffffffff1673ffffffffffffffffffffffffffffffffffffffff16815260200190815260200160002060006101000a81548160ff0219169083151502179055505050565b61378d81600261366190919063ffffffff16565b50565b6137a481600061366190919063ffffffff16565b8073ffffffffffffffffffffffffffffffffffffffff167f30fdfb5b96c8f1d53ce2c2df0c23849ad3b9a86a4b0aae4303d182d635593c4860405160405180910390a250565b6137fe81600161366190919063ffffffff16565b50565b60008073ffffffffffffffffffffffffffffffffffffffff168273ffffffffffffffffffffffffffffffffffffffff16141561383c57600080fd5b8260000160008373ffffffffffffffffffffffffffffffffffffffff1673ffffffffffffffffffffffffffffffffffffffff16815260200190815260200160002060009054906101000a900460ff16905092915050565b6138a7816000613a4b90919063ffffffff16565b8073ffffffffffffffffffffffffffffffffffffffff167fe2f8baf829f0cb6d609190eec3e8755addaa195065d640434d2ceecb9944c5f160405160405180910390a250565b613901816002613a4b90919063ffffffff16565b50565b600073ffffffffffffffffffffffffffffffffffffffff168173ffffffffffffffffffffffffffffffffffffffff161415613974576040517f08c379a000000000000000000000000000000000000000000000000000000000815260040161396b90614075565b60405180910390fd5b80600360006101000a81548173ffffffffffffffffffffffffffffffffffffffff021916908373ffffffffffffffffffffffffffffffffffffffff1602179055508073ffffffffffffffffffffffffffffffffffffffff16600360009054906101000a900473ffffffffffffffffffffffffffffffffffffffff1673ffffffffffffffffffffffffffffffffffffffff167f5c486528ec3e3f0ea91181cff8116f02bfa350e03b8b6f12e00765adbb5af85c60405160405180910390a350565b613a48816001613a4b90919063ffffffff16565b50565b600073ffffffffffffffffffffffffffffffffffffffff168173ffffffffffffffffffffffffffffffffffffffff161415613abb576040517f08c379a0000000000000000000000000000000000000000000000000000000008152600401613ab290614215565b60405180910390fd5b613ac58282613801565b613b04576040517f08c379a0000000000000000000000000000000000000000000000000000000008152600401613afb906142d5565b60405180910390fd5b60008260000160008373ffffffffffffffffffffffffffffffffffffffff1673ffffffffffffffffffffffffffffffffffffffff16815260200190815260200160002060006101000a81548160ff0219169083151502179055505050565b600081359050613b7181614a2d565b92915050565b600081359050613b8681614a44565b92915050565b600060208284031215613b9e57600080fd5b6000613bac84828501613b62565b91505092915050565b600060208284031215613bc757600080fd5b6000613bd584828501613b77565b91505092915050565b60008060408385031215613bf157600080fd5b6000613bff85828601613b77565b9250506020613c1085828601613b62565b9150509250929050565b613c23816144a1565b82525050565b613c32816144b3565b82525050565b6000613c4382614446565b613c4d818561445c565b9350613c5d8185602086016144e9565b613c66816145ac565b840191505092915050565b6000613c7e600f8361445c565b9150613c89826145bd565b602082019050919050565b6000613ca1601f8361445c565b9150613cac826145e6565b602082019050919050565b6000613cc460198361445c565b9150613ccf8261460f565b602082019050919050565b6000613ce760208361445c565b9150613cf282614638565b602082019050919050565b6000613d0a601e8361445c565b9150613d1582614661565b602082019050919050565b6000613d2d60138361445c565b9150613d388261468a565b602082019050919050565b6000613d50602a8361445c565b9150613d5b826146b3565b604082019050919050565b6000613d7360228361445c565b9150613d7e82614702565b604082019050919050565b6000613d9660118361445c565b9150613da182614751565b602082019050919050565b6000613db960148361445c565b9150613dc48261477a565b602082019050919050565b6000613ddc600f8361445c565b9150613de7826147a3565b602082019050919050565b6000613dff601a8361445c565b9150613e0a826147cc565b602082019050919050565b6000613e2260148361445c565b9150613e2d826147f5565b602082019050919050565b6000613e45601c8361445c565b9150613e508261481e565b602082019050919050565b6000613e6860168361445c565b9150613e7382614847565b602082019050919050565b6000613e8b601c8361445c565b9150613e9682614870565b602082019050919050565b6000613eae60218361445c565b9150613eb982614899565b604082019050919050565b6000613ed1600083614451565b9150613edc826148e8565b600082019050919050565b6000613ef460168361445c565b9150613eff826148eb565b602082019050919050565b6000613f1760218361445c565b9150613f2282614914565b604082019050919050565b6000613f3a60138361445c565b9150613f4582614963565b602082019050919050565b6000613f5d601c8361445c565b9150613f688261498c565b602082019050919050565b6000613f8060168361445c565b9150613f8b826149b5565b602082019050919050565b6000613fa360218361445c565b9150613fae826149de565b604082019050919050565b613fc2816144df565b82525050565b6000613fd382613ec4565b9150819050919050565b6000602082019050613ff26000830184613c1a565b92915050565b600060208201905061400d6000830184613c29565b92915050565b6000602082019050818103600083015261402d8184613c38565b905092915050565b6000602082019050818103600083015261404e81613c71565b9050919050565b6000602082019050818103600083015261406e81613c94565b9050919050565b6000602082019050818103600083015261408e81613cb7565b9050919050565b600060208201905081810360008301526140ae81613cda565b9050919050565b600060208201905081810360008301526140ce81613cfd565b9050919050565b600060208201905081810360008301526140ee81613d20565b9050919050565b6000602082019050818103600083015261410e81613d43565b9050919050565b6000602082019050818103600083015261412e81613d66565b9050919050565b6000602082019050818103600083015261414e81613d89565b9050919050565b6000602082019050818103600083015261416e81613dac565b9050919050565b6000602082019050818103600083015261418e81613dcf565b9050919050565b600060208201905081810360008301526141ae81613df2565b9050919050565b600060208201905081810360008301526141ce81613e15565b9050919050565b600060208201905081810360008301526141ee81613e38565b9050919050565b6000602082019050818103600083015261420e81613e5b565b9050919050565b6000602082019050818103600083015261422e81613e7e565b9050919050565b6000602082019050818103600083015261424e81613ea1565b9050919050565b6000602082019050818103600083015261426e81613ee7565b9050919050565b6000602082019050818103600083015261428e81613f0a565b9050919050565b600060208201905081810360008301526142ae81613f2d565b9050919050565b600060208201905081810360008301526142ce81613f50565b9050919050565b600060208201905081810360008301526142ee81613f73565b9050919050565b6000602082019050818103600083015261430e81613f96565b9050919050565b600060208201905061432a6000830184613fb9565b92915050565b600060a0820190506143456000830188613fb9565b6143526020830187613c1a565b61435f6040830186613c1a565b81810360608301526143718185613c38565b905081810360808301526143858184613c38565b90509695505050505050565b60006040820190506143a66000830185613fb9565b6143b36020830184613fb9565b9392505050565b6000610100820190506143d0600083018b613fb9565b6143dd602083018a613fb9565b6143ea6040830189613fb9565b81810360608301526143fc8188613c38565b905061440b6080830187613fb9565b81810360a083015261441d8186613c38565b905061442c60c0830185613c1a565b61443960e0830184613c1a565b9998505050505050505050565b600081519050919050565b600081905092915050565b600082825260208201905092915050565b6000614478826144df565b9150614483836144df565b9250828210156144965761449561454e565b5b828203905092915050565b60006144ac826144bf565b9050919050565b60008115159050919050565b600073ffffffffffffffffffffffffffffffffffffffff82169050919050565b6000819050919050565b60005b838110156145075780820151818401526020810190506144ec565b83811115614516576000848401525b50505050565b6000600282049050600182168061453457607f821691505b602082108114156145485761454761457d565b5b50919050565b7f4e487b7100000000000000000000000000000000000000000000000000000000600052601160045260246000fd5b7f4e487b7100000000000000000000000000000000000000000000000000000000600052602260045260246000fd5b6000601f19601f8301169050919050565b7f736b752063616e6e6f7420626520300000000000000000000000000000000000600082015250565b7f6f6e6c7920436f6e73756d65722063616e2063616c6c2066756e6374696f6e00600082015250565b7f63616e6e6f74207472616e7366657220746f2061646472203000000000000000600082015250565b7f6e6f7420726561647920746f2062652073656e7420746f20636f6e73756d6572600082015250565b7f6d75737420626520726561647920746f20626520646973706174636865640000600082015250565b7f6e6f7420696e20636f6f6b656420737461746500000000000000000000000000600082015250565b7f616d6f756e742070616964206d75737420626520686967686572207468616e2060008201527f6974656d20707269636500000000000000000000000000000000000000000000602082015250565b7f6661696c656420746f2073656e6420657468657220746f20726573746175726160008201527f6e74000000000000000000000000000000000000000000000000000000000000602082015250565b7f6e6f7420696e2070616964207374617465000000000000000000000000000000600082015250565b7f6661696c656420746f2073656e64206574686572000000000000000000000000600082015250565b7f63616e6e6f742061646420686f6c650000000000000000000000000000000000600082015250565b7f6163636f756e74206d757374206e6f74206861766520726f6c65000000000000600082015250565b7f6e6f7420696e206f726465726564207374617465000000000000000000000000600082015250565b7f6f6e6c79206f776e65722063616e2063616c6c2066756e6374696f6e00000000600082015250565b7f6e6f7420726561647920666f7220646973706174636800000000000000000000600082015250565b7f616464726573732063616e6e6f7420626520626c61636b20686f6c6500000000600082015250565b7f636f6e73756d6572206163636f756e74206d757374206265206578697374696e60008201527f6700000000000000000000000000000000000000000000000000000000000000602082015250565b50565b7f6e6f7420696e2070726f63657373656420737461746500000000000000000000600082015250565b7f6f6e6c7920446973706174636865722063616e2063616c6c2066756e6374696f60008201527f6e00000000000000000000000000000000000000000000000000000000000000602082015250565b7f6e6f7420696e207061636b656420737461746500000000000000000000000000600082015250565b7f63616e6e6f7420626520626c61636b20686f6c65206163636f756e7400000000600082015250565b7f61646472657373206d757374206861766520726f6c6500000000000000000000600082015250565b7f6f6e6c792072657374617572616e742063616e2063616c6c2066756e6374696f60008201527f6e00000000000000000000000000000000000000000000000000000000000000602082015250565b614a36816144a1565b8114614a4157600080fd5b50565b614a4d816144df565b8114614a5857600080fd5b5056fea2646970667358221220d7068f9da557c718a3e24431e578b18a40dd630fc2f61b411f1b124e0473877164736f6c63430008040033",
  "immutableReferences": {},
  "source": "// SPDX-License-Identifier: MIT\npragma solidity 0.8.4;\n\n\nimport './AccessControl/ConsumerRole.sol';\nimport './AccessControl/RestaurantRole.sol';\nimport './AccessControl/DispatcherRole.sol';\n\nimport './Core/Ownable.sol';\n\ncontract SupplyChain is RestaurantRole, DispatcherRole, ConsumerRole, Ownable {\n\n  // define owner\n  address owner;\n\n  address deployer;\n\n  // 'upc' universal product code\n  uint upc;\n\n  // 'sku' stock keeping unit\n  uint sku;\n\n  mapping (uint => Item) items;\n\n  enum State {\n    Ordered,\n    Paid,\n    Received,\n    Cooked,\n    Processed,\n    Packed,\n    Dispatched,\n    DispatchedReceived,\n    DispatchSent,\n    Confirmed\n  }\n\n  struct Item {\n      uint sku;\n      uint upc;\n      address ownerID;\n      address originRestaurantID;\n      string originRestaurantName;\n      string originRestaurantInfo;\n      uint productID;\n      string productNotes;\n      uint productPrice;\n      State itemState;\n      address dispatcherID;\n      address consumerID;\n  }\n\n\n  // LogItemOrder\n  event LogItemOrder(uint256 upc, uint timestamp);\n\n  // LogItemPaid\n  event LogItemPaid(uint256 sku, uint timestamp);\n\n  // LogItemConfirmed\n  event LogItemConfirmed(uint256 sku, uint timestamp);\n\n  // LogItemProcessed\n  event LogItemProcessed(uint256 sku, uint timestamp);\n\n  // LogItemPacked\n  event LogItemPacked(uint256 sku, uint timestamp);\n\n  // LogItemDispatched\n  event LogItemDispatched(uint256 sku, uint timestamp);\n\n  // LogitemReceived\n  event LogItemReceived(uint256 sku, uint timestamp);\n\n  event LogItemCooked(uint256 sku, uint timestamp);\n\n  event LogDis(uint256 sku, uint timestamp);\n\n  event LogDispatchSent(uint256 sku, uint timestamp);\n\n\n  modifier notZeroAddress(address _account) {\n     require(_account != address(0), 'cannot be black hole account');\n     _;\n }\n  \n  modifier checkSKU(uint _sku) {\n      require(_sku > 0, 'sku cannot be 0');\n      _;\n  }\n\n  modifier verifyCaller(address _account) {\n      require(msg.sender == _account, 'unauthorized');\n      _;\n  }\n\n  modifier ordered(uint _sku) {\n    require(items[_sku].itemState == State.Ordered, 'not in ordered state');\n    _;\n  }\n\n  modifier paid(uint _sku) {\n    require(items[_sku].itemState == State.Paid, 'not in paid state');\n    _;\n  }\n\n  modifier cooked(uint _sku) {\n    require(items[_sku].itemState == State.Cooked, 'not in cooked state');\n    _;\n  }\n\n  modifier processed(uint _sku) {\n    require(items[_sku].itemState == State.Processed, 'not in processed state');\n    _;\n  }\n  \n  modifier confirmed(uint _sku) {\n      require(items[_sku].itemState == State.Confirmed, 'status: not confirmed by consumer');\n      _;\n  }\n\n  modifier packed(uint _sku) {\n      require(items[_sku].itemState == State.Packed, 'not in packed state');\n      _;\n  }\n  \n  modifier dispatchersent(uint _sku) {\n      require(items[_sku].itemState == State.DispatchSent, 'not ready to be sent to consumer');\n      _;\n  }\n\n  modifier dispatcherreceive(uint _sku) {\n      require(items[_sku].itemState == State.DispatchedReceived, 'not ready to be sent to consumer');\n      _;\n  }\n\n  modifier dispatch(uint _sku) {\n      require(items[_sku].itemState == State.Dispatched, 'not ready for dispatch');\n      _;\n  }\n\n  modifier received(uint _sku) {\n      require(items[_sku].itemState == State.Received, 'not in received state');\n      _;\n  }\n  \n  modifier paidEnough(uint _price) {\n    require(msg.value >= _price, 'amount paid must be higher than item price');\n    _;\n  }\n  \n  modifier checkValue(uint _sku) {\n    _;\n    address dispatcher = items[_sku].dispatcherID;\n    uint price = items[_sku].productPrice;\n    uint amountToRefund = msg.value - price;\n    (bool success,) = payable(dispatcher).call{value: amountToRefund}('');\n    require(success, 'failed to send ether');\n  }\n\n  constructor() {\n    deployer = msg.sender;\n    owner = msg.sender;\n    sku = 0;\n    upc = 0;\n  }\n\n\n  function kill() public {\n    if(msg.sender == owner) {\n      selfdestruct(payable(owner));\n    }\n  }\n\n  function transferOwnershipToAccount(address _account) public onlyOwner notZeroAddress(_account) {\n      owner = _account;\n      transferOwnership(_account);\n    }\n\n  function addRestaurantAccount(uint _sku, address _account) \n    public\n    onlyOwner\n    notZeroAddress(_account)\n    {\n      _addRestaurant(_account);\n      items[_sku].originRestaurantID = _account;\n      // transferOwnershipToAccount(_account);\n    }\n\n\n    function transferOwnershipToDispatcher(uint _sku, address _account) public notZeroAddress(_account) {\n      address dispatcher = items[_sku].dispatcherID;\n      require(_account == dispatcher, 'must be ready to be dispatched');\n      owner = dispatcher;\n      items[_sku].ownerID = dispatcher;\n    }\n\n\n    function enableDisapatcherAccount(uint _sku, address _account) public checkSKU(_sku) notZeroAddress(_account) {\n      _addDispatcher(_account);\n      items[_sku].dispatcherID = _account;\n    }\n\n    function enableConsumerAccount(uint _sku, address _account) public checkSKU(_sku) notZeroAddress(_account) onlyDispatcher {\n      _addConsumer(_account);\n      items[_sku].consumerID = _account;\n    }\n\n\n\n    function transferOwnershipToConsumer(uint _sku, address _account) public notZeroAddress(_account) {\n      address consumer = items[_sku].consumerID;\n      require(_account == consumer, 'consumer account must be existing');\n      owner = consumer;\n      items[_sku].ownerID = consumer;\n    }\n\n  // comeback to this\n    function OrderItem(\n      uint _sku\n      ) public onlyConsumer {\n        items[_sku].itemState = State.Ordered;\n        emit LogItemOrder(sku, block.timestamp);\n      }\n\n    \n    function PayForItem(uint _sku) public payable checkSKU(_sku) paidEnough(items[_sku].productPrice) checkValue(_sku) ordered(_sku) onlyConsumer {\n      address consumer = msg.sender;\n      items[_sku].consumerID = consumer;\n      address restaurant = items[_sku].originRestaurantID;\n      uint price = items[_sku].productPrice;\n      items[_sku].itemState = State.Paid;\n      (bool succes, ) = payable(restaurant).call{value: price}('');\n      require(succes, 'failed to send ether to restaurant');\n      emit LogItemPaid(_sku, block.timestamp);\n    }\n\n\n    function ReceiveOrder(uint _sku) public checkSKU(_sku) paid(_sku) onlyRestaurant {\n      items[_sku].itemState = State.Received;\n      emit LogItemReceived(_sku, block.timestamp);\n    }\n\n\n    function CookOrder(\n      uint _sku\n    ) public onlyRestaurant {\n      items[_sku].itemState = State.Cooked;\n      emit LogItemCooked(sku, block.timestamp);\n    }\n\n    function ProcessOrder(uint _sku) public checkSKU(_sku) cooked(_sku) onlyRestaurant  {\n      items[_sku].itemState = State.Processed;\n      emit LogItemProcessed(_sku, block.timestamp);\n    }\n\n    function PackageOrder(uint _sku) public checkSKU(_sku) processed(_sku) onlyRestaurant  {\n      items[_sku].itemState = State.Packed;\n      emit LogItemPacked(_sku, block.timestamp);\n    }\n\n    function DispatchOrder(uint _sku) public checkSKU(_sku) packed(_sku) onlyRestaurant  {\n      items[_sku].itemState = State.Dispatched;\n      emit LogItemDispatched(_sku, block.timestamp);\n    }\n\n\n    function ReceiveDispatchedOrder(uint _sku) public checkSKU(_sku) dispatch(_sku) onlyDispatcher  {\n      items[_sku].itemState = State.DispatchedReceived;\n      emit LogDis(_sku, block.timestamp);\n    }\n\n\n    function DispatcherDispatchesOrder(uint _sku) public checkSKU(_sku)  dispatcherreceive(_sku) onlyDispatcher  {\n      items[_sku].itemState = State.DispatchSent;\n      emit LogDispatchSent(_sku, block.timestamp);\n    }\n\n\n    function ConsumerReceivesItem(uint _sku) public checkSKU(_sku) dispatchersent(_sku) onlyConsumer  {\n      items[_sku].itemState = State.Confirmed;\n      emit LogItemConfirmed(_sku, block.timestamp);\n    }\n\n\n    function getItemStatus(uint _sku) public checkSKU(_sku) view returns(string memory status) {\n    uint itemStatus = uint(items[_sku].itemState);\n    if(itemStatus == 0) {\n        status = 'Ordered';\n    } else if(itemStatus == 1) {\n        status = 'Paid';\n    } else if(itemStatus == 2) {\n        status = 'Received';\n        \n    }  else if(itemStatus == 3) {\n        status = 'Cooked';\n    }\n    else if(itemStatus == 4) {\n        status = 'Processed';\n    } else if(itemStatus == 5) {\n        status = 'Packed';\n    } else if(itemStatus == 6) {\n        status = 'Dispatched';\n    } else if(itemStatus == 7) {\n        status = 'DispatchedReceived';\n    } else if(itemStatus == 8) {\n        status = 'DispatchSent';\n    } else if(itemStatus == 9) {\n        status = 'Confirmed';\n    }\n    \n  }\n  \n    \n  function getTotalItems() public view returns(uint) {\n    return sku;\n  }\n  \n  \n  function getOwner() public view returns(address) {\n    return owner;\n  }\n\n  function getItemOwner(uint _sku) checkSKU(_sku) public view returns(address) {\n    return items[_sku].ownerID;\n  }\n\n\n  function fetchRestaurantDetails(uint _upc)  public view returns (\n    uint itemSKU,\n    address ownerID,\n    address originRestaurantID,\n    string memory originRestaurantInfo,\n    string memory originRestaurantName\n  )\n  {\n    require(_upc > 0, 'sku cannot be 0');\n    return (\n      items[_upc].sku,\n      items[_upc].ownerID,\n      items[_upc].originRestaurantID,\n      items[_upc].originRestaurantInfo,\n      items[_upc].originRestaurantName\n    );\n      \n  }\n  \n  \n    \n  function fetchProductDetails(uint _upc)  public checkSKU(_upc) view returns (\n    uint itemSKU,\n    uint itemUPC,\n    uint productID,\n    string memory productNotes,\n    uint productPrice,\n    string memory status,\n    address dispatcherID,\n    address consumerID\n    ) {\n      itemSKU = items[_upc].sku;\n      itemUPC = items[_upc].upc;\n      productID = items[_upc].productID;\n      productNotes = items[_upc].productNotes;\n      productPrice = items[_upc].productPrice;\n      uint itemState = uint(items[_upc].itemState);\n     if(itemState == 0) {\n        status = 'Ordered';\n    } else if(itemState == 1) {\n        status = 'Paid';\n    } else if(itemState == 2) {\n        status = 'Received';\n        \n    }  else if(itemState == 3) {\n        status = 'Cooked';\n    }\n    else if(itemState == 4) {\n        status = 'Processed';\n    } else if(itemState == 5) {\n        status = 'Packed';\n    } else if(itemState == 6) {\n        status = 'Dispatched';\n    } else if(itemState == 7) {\n        status = 'DispatchedReceived';\n    } else if(itemState == 8) {\n        status = 'DispatchSent';\n    } else if(itemState == 9) {\n        status = 'Confirmed';\n    } \n      dispatcherID = items[_upc].dispatcherID;\n      consumerID = items[_upc].consumerID;\n  }\n\n}\n",
  "sourcePath": "/home/godwin/blockchain-developer-bootcamp-final-project/contracts/SupplyChain.sol",
  "compiler": {
    "name": "solc",
    "version": "0.8.4+commit.c7e474f2.Emscripten.clang"
  },
  "schemaVersion": "3.4.3",
  "updatedAt": "2021-11-26T07:06:38.067Z",
  "networkType": "ethereum",
  "devdoc": {
    "kind": "dev",
    "methods": {},
    "version": 1
  },
  "userdoc": {
    "kind": "user",
    "methods": {},
    "version": 1
  }
}