{
  "contractName": "SupplyChain",
  "abi": [
    {
      "inputs": [],
      "stateMutability": "nonpayable",
      "type": "constructor"
    },
    {
      "anonymous": false,
      "inputs": [
        {
          "indexed": true,
          "internalType": "address",
          "name": "account",
          "type": "address"
        },
        {
          "indexed": false,
          "internalType": "uint256",
          "name": "timestamp",
          "type": "uint256"
        }
      ],
      "name": "ConsumerAdded",
      "type": "event"
    },
    {
      "anonymous": false,
      "inputs": [
        {
          "indexed": true,
          "internalType": "address",
          "name": "account",
          "type": "address"
        },
        {
          "indexed": false,
          "internalType": "uint256",
          "name": "timestamp",
          "type": "uint256"
        }
      ],
      "name": "ConsumerRemoved",
      "type": "event"
    },
    {
      "anonymous": false,
      "inputs": [
        {
          "indexed": true,
          "internalType": "address",
          "name": "account",
          "type": "address"
        },
        {
          "indexed": false,
          "internalType": "uint256",
          "name": "timestamp",
          "type": "uint256"
        }
      ],
      "name": "DispatcherAdded",
      "type": "event"
    },
    {
      "anonymous": false,
      "inputs": [
        {
          "indexed": true,
          "internalType": "address",
          "name": "account",
          "type": "address"
        },
        {
          "indexed": false,
          "internalType": "uint256",
          "name": "timestamp",
          "type": "uint256"
        }
      ],
      "name": "DispatcherRemoved",
      "type": "event"
    },
    {
      "anonymous": false,
      "inputs": [
        {
          "indexed": false,
          "internalType": "uint256",
          "name": "sku",
          "type": "uint256"
        },
        {
          "indexed": false,
          "internalType": "uint256",
          "name": "timestamp",
          "type": "uint256"
        }
      ],
      "name": "LogDis",
      "type": "event"
    },
    {
      "anonymous": false,
      "inputs": [
        {
          "indexed": false,
          "internalType": "uint256",
          "name": "sku",
          "type": "uint256"
        },
        {
          "indexed": false,
          "internalType": "uint256",
          "name": "timestamp",
          "type": "uint256"
        }
      ],
      "name": "LogDispatchSent",
      "type": "event"
    },
    {
      "anonymous": false,
      "inputs": [
        {
          "indexed": false,
          "internalType": "uint256",
          "name": "sku",
          "type": "uint256"
        },
        {
          "indexed": false,
          "internalType": "uint256",
          "name": "timestamp",
          "type": "uint256"
        }
      ],
      "name": "LogItemConfirmed",
      "type": "event"
    },
    {
      "anonymous": false,
      "inputs": [
        {
          "indexed": false,
          "internalType": "uint256",
          "name": "sku",
          "type": "uint256"
        },
        {
          "indexed": false,
          "internalType": "uint256",
          "name": "timestamp",
          "type": "uint256"
        }
      ],
      "name": "LogItemCooked",
      "type": "event"
    },
    {
      "anonymous": false,
      "inputs": [
        {
          "indexed": false,
          "internalType": "uint256",
          "name": "sku",
          "type": "uint256"
        },
        {
          "indexed": false,
          "internalType": "uint256",
          "name": "timestamp",
          "type": "uint256"
        }
      ],
      "name": "LogItemDispatched",
      "type": "event"
    },
    {
      "anonymous": false,
      "inputs": [
        {
          "indexed": false,
          "internalType": "uint256",
          "name": "upc",
          "type": "uint256"
        },
        {
          "indexed": false,
          "internalType": "uint256",
          "name": "timestamp",
          "type": "uint256"
        }
      ],
      "name": "LogItemOrder",
      "type": "event"
    },
    {
      "anonymous": false,
      "inputs": [
        {
          "indexed": false,
          "internalType": "uint256",
          "name": "sku",
          "type": "uint256"
        },
        {
          "indexed": false,
          "internalType": "uint256",
          "name": "timestamp",
          "type": "uint256"
        }
      ],
      "name": "LogItemPacked",
      "type": "event"
    },
    {
      "anonymous": false,
      "inputs": [
        {
          "indexed": false,
          "internalType": "uint256",
          "name": "sku",
          "type": "uint256"
        },
        {
          "indexed": false,
          "internalType": "uint256",
          "name": "timestamp",
          "type": "uint256"
        }
      ],
      "name": "LogItemPaid",
      "type": "event"
    },
    {
      "anonymous": false,
      "inputs": [
        {
          "indexed": false,
          "internalType": "uint256",
          "name": "sku",
          "type": "uint256"
        },
        {
          "indexed": false,
          "internalType": "uint256",
          "name": "timestamp",
          "type": "uint256"
        }
      ],
      "name": "LogItemProcessed",
      "type": "event"
    },
    {
      "anonymous": false,
      "inputs": [
        {
          "indexed": false,
          "internalType": "uint256",
          "name": "sku",
          "type": "uint256"
        },
        {
          "indexed": false,
          "internalType": "uint256",
          "name": "timestamp",
          "type": "uint256"
        }
      ],
      "name": "LogItemReceived",
      "type": "event"
    },
    {
      "anonymous": false,
      "inputs": [
        {
          "indexed": true,
          "internalType": "address",
          "name": "account",
          "type": "address"
        }
      ],
      "name": "RestaurantAdded",
      "type": "event"
    },
    {
      "anonymous": false,
      "inputs": [
        {
          "indexed": true,
          "internalType": "address",
          "name": "account",
          "type": "address"
        }
      ],
      "name": "RestaurantRemoved",
      "type": "event"
    },
    {
      "anonymous": false,
      "inputs": [
        {
          "indexed": true,
          "internalType": "address",
          "name": "oldOwner",
          "type": "address"
        },
        {
          "indexed": true,
          "internalType": "address",
          "name": "newOwner",
          "type": "address"
        }
      ],
      "name": "TransferOwnership",
      "type": "event"
    },
    {
      "inputs": [
        {
          "internalType": "address",
          "name": "_account",
          "type": "address"
        }
      ],
      "name": "_removeRestaurant",
      "outputs": [],
      "stateMutability": "nonpayable",
      "type": "function"
    },
    {
      "inputs": [
        {
          "internalType": "address",
          "name": "_account",
          "type": "address"
        }
      ],
      "name": "addConsumer",
      "outputs": [],
      "stateMutability": "nonpayable",
      "type": "function"
    },
    {
      "inputs": [
        {
          "internalType": "address",
          "name": "_account",
          "type": "address"
        }
      ],
      "name": "addDispatcher",
      "outputs": [],
      "stateMutability": "nonpayable",
      "type": "function"
    },
    {
      "inputs": [
        {
          "internalType": "address",
          "name": "_account",
          "type": "address"
        }
      ],
      "name": "addRestaurant",
      "outputs": [],
      "stateMutability": "nonpayable",
      "type": "function"
    },
    {
      "inputs": [
        {
          "internalType": "address",
          "name": "_account",
          "type": "address"
        }
      ],
      "name": "isConsumer",
      "outputs": [
        {
          "internalType": "bool",
          "name": "",
          "type": "bool"
        }
      ],
      "stateMutability": "view",
      "type": "function",
      "constant": true
    },
    {
      "inputs": [
        {
          "internalType": "address",
          "name": "_account",
          "type": "address"
        }
      ],
      "name": "isDispatcher",
      "outputs": [
        {
          "internalType": "bool",
          "name": "",
          "type": "bool"
        }
      ],
      "stateMutability": "view",
      "type": "function",
      "constant": true
    },
    {
      "inputs": [],
      "name": "isOwner",
      "outputs": [
        {
          "internalType": "bool",
          "name": "",
          "type": "bool"
        }
      ],
      "stateMutability": "view",
      "type": "function",
      "constant": true
    },
    {
      "inputs": [
        {
          "internalType": "address",
          "name": "_account",
          "type": "address"
        }
      ],
      "name": "isRestaurant",
      "outputs": [
        {
          "internalType": "bool",
          "name": "",
          "type": "bool"
        }
      ],
      "stateMutability": "view",
      "type": "function",
      "constant": true
    },
    {
      "inputs": [],
      "name": "ownerAccount",
      "outputs": [
        {
          "internalType": "address",
          "name": "",
          "type": "address"
        }
      ],
      "stateMutability": "view",
      "type": "function",
      "constant": true
    },
    {
      "inputs": [],
      "name": "renounceOwnership",
      "outputs": [],
      "stateMutability": "nonpayable",
      "type": "function"
    },
    {
      "inputs": [
        {
          "internalType": "address",
          "name": "_account",
          "type": "address"
        }
      ],
      "name": "revokeConsumer",
      "outputs": [],
      "stateMutability": "nonpayable",
      "type": "function"
    },
    {
      "inputs": [
        {
          "internalType": "address",
          "name": "_account",
          "type": "address"
        }
      ],
      "name": "revokeDispatcher",
      "outputs": [],
      "stateMutability": "nonpayable",
      "type": "function"
    },
    {
      "inputs": [
        {
          "internalType": "address",
          "name": "_newOwner",
          "type": "address"
        }
      ],
      "name": "transferOwnership",
      "outputs": [],
      "stateMutability": "nonpayable",
      "type": "function"
    },
    {
      "inputs": [],
      "name": "kill",
      "outputs": [],
      "stateMutability": "nonpayable",
      "type": "function"
    },
    {
      "inputs": [
        {
          "internalType": "address",
          "name": "_account",
          "type": "address"
        }
      ],
      "name": "transferOwnershipToAccount",
      "outputs": [],
      "stateMutability": "nonpayable",
      "type": "function"
    },
    {
      "inputs": [
        {
          "internalType": "uint256",
          "name": "_sku",
          "type": "uint256"
        },
        {
          "internalType": "address",
          "name": "_account",
          "type": "address"
        }
      ],
      "name": "addRestaurantAccount",
      "outputs": [],
      "stateMutability": "nonpayable",
      "type": "function"
    },
    {
      "inputs": [
        {
          "internalType": "uint256",
          "name": "_sku",
          "type": "uint256"
        },
        {
          "internalType": "address",
          "name": "_account",
          "type": "address"
        }
      ],
      "name": "transferOwnershipToDispatcher",
      "outputs": [],
      "stateMutability": "nonpayable",
      "type": "function"
    },
    {
      "inputs": [
        {
          "internalType": "uint256",
          "name": "_sku",
          "type": "uint256"
        },
        {
          "internalType": "address",
          "name": "_account",
          "type": "address"
        }
      ],
      "name": "enableDisapatcherAccount",
      "outputs": [],
      "stateMutability": "nonpayable",
      "type": "function"
    },
    {
      "inputs": [
        {
          "internalType": "uint256",
          "name": "_sku",
          "type": "uint256"
        },
        {
          "internalType": "address",
          "name": "_account",
          "type": "address"
        }
      ],
      "name": "enableConsumerAccount",
      "outputs": [],
      "stateMutability": "nonpayable",
      "type": "function"
    },
    {
      "inputs": [
        {
          "internalType": "uint256",
          "name": "_sku",
          "type": "uint256"
        },
        {
          "internalType": "address",
          "name": "_account",
          "type": "address"
        }
      ],
      "name": "transferOwnershipToConsumer",
      "outputs": [],
      "stateMutability": "nonpayable",
      "type": "function"
    },
    {
      "inputs": [
        {
          "internalType": "uint256",
          "name": "_sku",
          "type": "uint256"
        }
      ],
      "name": "OrderItem",
      "outputs": [],
      "stateMutability": "nonpayable",
      "type": "function"
    },
    {
      "inputs": [
        {
          "internalType": "uint256",
          "name": "_sku",
          "type": "uint256"
        }
      ],
      "name": "PayForItem",
      "outputs": [],
      "stateMutability": "payable",
      "type": "function",
      "payable": true
    },
    {
      "inputs": [
        {
          "internalType": "uint256",
          "name": "_sku",
          "type": "uint256"
        }
      ],
      "name": "ReceiveOrder",
      "outputs": [],
      "stateMutability": "nonpayable",
      "type": "function"
    },
    {
      "inputs": [
        {
          "internalType": "uint256",
          "name": "_sku",
          "type": "uint256"
        }
      ],
      "name": "CookOrder",
      "outputs": [],
      "stateMutability": "nonpayable",
      "type": "function"
    },
    {
      "inputs": [
        {
          "internalType": "uint256",
          "name": "_sku",
          "type": "uint256"
        }
      ],
      "name": "ProcessOrder",
      "outputs": [],
      "stateMutability": "nonpayable",
      "type": "function"
    },
    {
      "inputs": [
        {
          "internalType": "uint256",
          "name": "_sku",
          "type": "uint256"
        }
      ],
      "name": "PackageOrder",
      "outputs": [],
      "stateMutability": "nonpayable",
      "type": "function"
    },
    {
      "inputs": [
        {
          "internalType": "uint256",
          "name": "_sku",
          "type": "uint256"
        }
      ],
      "name": "DispatchOrder",
      "outputs": [],
      "stateMutability": "nonpayable",
      "type": "function"
    },
    {
      "inputs": [
        {
          "internalType": "uint256",
          "name": "_sku",
          "type": "uint256"
        }
      ],
      "name": "ReceiveDispatchedOrder",
      "outputs": [],
      "stateMutability": "nonpayable",
      "type": "function"
    },
    {
      "inputs": [
        {
          "internalType": "uint256",
          "name": "_sku",
          "type": "uint256"
        }
      ],
      "name": "DispatcherDispatchesOrder",
      "outputs": [],
      "stateMutability": "nonpayable",
      "type": "function"
    },
    {
      "inputs": [
        {
          "internalType": "uint256",
          "name": "_sku",
          "type": "uint256"
        }
      ],
      "name": "ConsumerReceivesItem",
      "outputs": [],
      "stateMutability": "nonpayable",
      "type": "function"
    },
    {
      "inputs": [
        {
          "internalType": "uint256",
          "name": "_sku",
          "type": "uint256"
        }
      ],
      "name": "getItemStatus",
      "outputs": [
        {
          "internalType": "string",
          "name": "status",
          "type": "string"
        }
      ],
      "stateMutability": "view",
      "type": "function",
      "constant": true
    },
    {
      "inputs": [],
      "name": "getTotalItems",
      "outputs": [
        {
          "internalType": "uint256",
          "name": "",
          "type": "uint256"
        }
      ],
      "stateMutability": "view",
      "type": "function",
      "constant": true
    },
    {
      "inputs": [],
      "name": "getOwner",
      "outputs": [
        {
          "internalType": "address",
          "name": "",
          "type": "address"
        }
      ],
      "stateMutability": "view",
      "type": "function",
      "constant": true
    },
    {
      "inputs": [
        {
          "internalType": "uint256",
          "name": "_sku",
          "type": "uint256"
        }
      ],
      "name": "getItemOwner",
      "outputs": [
        {
          "internalType": "address",
          "name": "",
          "type": "address"
        }
      ],
      "stateMutability": "view",
      "type": "function",
      "constant": true
    },
    {
      "inputs": [
        {
          "internalType": "uint256",
          "name": "_upc",
          "type": "uint256"
        }
      ],
      "name": "fetchRestaurantDetails",
      "outputs": [
        {
          "internalType": "uint256",
          "name": "itemSKU",
          "type": "uint256"
        },
        {
          "internalType": "address",
          "name": "ownerID",
          "type": "address"
        },
        {
          "internalType": "address",
          "name": "originRestaurantID",
          "type": "address"
        },
        {
          "internalType": "string",
          "name": "originRestaurantInfo",
          "type": "string"
        },
        {
          "internalType": "string",
          "name": "originRestaurantName",
          "type": "string"
        }
      ],
      "stateMutability": "view",
      "type": "function",
      "constant": true
    },
    {
      "inputs": [
        {
          "internalType": "uint256",
          "name": "_upc",
          "type": "uint256"
        }
      ],
      "name": "fetchProductDetails",
      "outputs": [
        {
          "internalType": "uint256",
          "name": "itemSKU",
          "type": "uint256"
        },
        {
          "internalType": "uint256",
          "name": "itemUPC",
          "type": "uint256"
        },
        {
          "internalType": "uint256",
          "name": "productID",
          "type": "uint256"
        },
        {
          "internalType": "string",
          "name": "productNotes",
          "type": "string"
        },
        {
          "internalType": "uint256",
          "name": "productPrice",
          "type": "uint256"
        },
        {
          "internalType": "string",
          "name": "status",
          "type": "string"
        },
        {
          "internalType": "address",
          "name": "dispatcherID",
          "type": "address"
        },
        {
          "internalType": "address",
          "name": "consumerID",
          "type": "address"
        }
      ],
      "stateMutability": "view",
      "type": "function",
      "constant": true
    }
  ],
  "bytecode": "0x60806040523480156200001157600080fd5b5062000023336200019b60201b60201c565b6200003433620001fc60201b60201c565b62000045336200021a60201b60201c565b33600360006101000a81548173ffffffffffffffffffffffffffffffffffffffff021916908373ffffffffffffffffffffffffffffffffffffffff160217905550600360009054906101000a900473ffffffffffffffffffffffffffffffffffffffff1673ffffffffffffffffffffffffffffffffffffffff16600073ffffffffffffffffffffffffffffffffffffffff167f5c486528ec3e3f0ea91181cff8116f02bfa350e03b8b6f12e00765adbb5af85c60405160405180910390a333600560006101000a81548173ffffffffffffffffffffffffffffffffffffffff021916908373ffffffffffffffffffffffffffffffffffffffff16021790555033600460006101000a81548173ffffffffffffffffffffffffffffffffffffffff021916908373ffffffffffffffffffffffffffffffffffffffff16021790555060006007819055506000600681905550620004e6565b620001b68160006200023860201b620031991790919060201c565b8073ffffffffffffffffffffffffffffffffffffffff167f30fdfb5b96c8f1d53ce2c2df0c23849ad3b9a86a4b0aae4303d182d635593c4860405160405180910390a250565b620002178160016200023860201b620031991790919060201c565b50565b620002358160026200023860201b620031991790919060201c565b50565b600073ffffffffffffffffffffffffffffffffffffffff168173ffffffffffffffffffffffffffffffffffffffff161415620002ab576040517f08c379a0000000000000000000000000000000000000000000000000000000008152600401620002a29062000452565b60405180910390fd5b620002bd82826200035e60201b60201c565b1562000300576040517f08c379a0000000000000000000000000000000000000000000000000000000008152600401620002f790620004c4565b60405180910390fd5b60018260000160008373ffffffffffffffffffffffffffffffffffffffff1673ffffffffffffffffffffffffffffffffffffffff16815260200190815260200160002060006101000a81548160ff0219169083151502179055505050565b60008073ffffffffffffffffffffffffffffffffffffffff168273ffffffffffffffffffffffffffffffffffffffff1614156200039a57600080fd5b8260000160008373ffffffffffffffffffffffffffffffffffffffff1673ffffffffffffffffffffffffffffffffffffffff16815260200190815260200160002060009054906101000a900460ff16905092915050565b600082825260208201905092915050565b7f63616e6e6f742061646420686f6c650000000000000000000000000000000000600082015250565b60006200043a600f83620003f1565b9150620004478262000402565b602082019050919050565b600060208201905081810360008301526200046d816200042b565b9050919050565b7f6163636f756e74206d757374206e6f74206861766520726f6c65000000000000600082015250565b6000620004ac601a83620003f1565b9150620004b98262000474565b602082019050919050565b60006020820190508181036000830152620004df816200049d565b9050919050565b61460980620004f66000396000f3fe60806040526004361061020f5760003560e01c806394fa1e8911610118578063bb8ddea7116100a0578063d257fee91161006f578063d257fee914610763578063ea47cb24146107a0578063f2fde38b146107cb578063fa0fde5d146107f4578063fa78955b1461081d5761020f565b8063bb8ddea7146106bf578063bf6bdfe8146106e8578063c76d3f9914610711578063ce74da4f1461073a5761020f565b8063a60ff034116100e7578063a60ff034146105d7578063aa39734b14610600578063aeee8db514610644578063afc9e5081461066d578063b9c84333146106965761020f565b806394fa1e8914610540578063991db50f1461056957806399cbf0c8146105925780639e2f4c6b146105bb5761020f565b806364dfa3b81161019b578063759974d71161016a578063759974d714610447578063834ff73914610470578063893d20e8146104ad5780638e673a2d146104d85780638f32d59b146105155761020f565b806364dfa3b81461039d5780636ef5c3f8146103c6578063715018a61461040757806375348d351461041e5761020f565b8063328a8cc4116101e2578063328a8cc4146102ce578063333f46ae146102f75780633bae4de81461032057806341c0e1b51461035d57806361182d63146103745761020f565b80630a852a7014610214578063112940f91461023d5780631d1440fd14610266578063310aac69146102a3575b600080fd5b34801561022057600080fd5b5061023b60048036038101906102369190613733565b610846565b005b34801561024957600080fd5b50610264600480360381019061025f9190613773565b6109a7565b005b34801561027257600080fd5b5061028d600480360381019061028891906137a0565b610a49565b60405161029a91906137dc565b60405180910390f35b3480156102af57600080fd5b506102b8610ace565b6040516102c59190613806565b60405180910390f35b3480156102da57600080fd5b506102f560048036038101906102f09190613773565b610ad8565b005b34801561030357600080fd5b5061031e600480360381019061031991906137a0565b610b2c565b005b34801561032c57600080fd5b50610347600480360381019061034291906137a0565b610cc0565b60405161035491906138ba565b60405180910390f35b34801561036957600080fd5b50610372611008565b005b34801561038057600080fd5b5061039b600480360381019061039691906137a0565b61109b565b005b3480156103a957600080fd5b506103c460048036038101906103bf91906137a0565b61122f565b005b3480156103d257600080fd5b506103ed60048036038101906103e891906137a0565b6113cd565b6040516103fe9594939291906138dc565b60405180910390f35b34801561041357600080fd5b5061041c6115f4565b005b34801561042a57600080fd5b5061044560048036038101906104409190613773565b6116fc565b005b34801561045357600080fd5b5061046e600480360381019061046991906137a0565b61179e565b005b34801561047c57600080fd5b5061049760048036038101906104929190613773565b611932565b6040516104a49190613958565b60405180910390f35b3480156104b957600080fd5b506104c261194f565b6040516104cf91906137dc565b60405180910390f35b3480156104e457600080fd5b506104ff60048036038101906104fa9190613773565b611979565b60405161050c9190613958565b60405180910390f35b34801561052157600080fd5b5061052a611996565b6040516105379190613958565b60405180910390f35b34801561054c57600080fd5b50610567600480360381019061056291906137a0565b6119ee565b005b34801561057557600080fd5b50610590600480360381019061058b9190613733565b611b82565b005b34801561059e57600080fd5b506105b960048036038101906105b49190613773565b611c9d565b005b6105d560048036038101906105d091906137a0565b611da3565b005b3480156105e357600080fd5b506105fe60048036038101906105f99190613733565b61220a565b005b34801561060c57600080fd5b50610627600480360381019061062291906137a0565b612323565b60405161063b989796959493929190613973565b60405180910390f35b34801561065057600080fd5b5061066b60048036038101906106669190613733565b6127f4565b005b34801561067957600080fd5b50610694600480360381019061068f9190613773565b612955565b005b3480156106a257600080fd5b506106bd60048036038101906106b891906137a0565b6129a9565b005b3480156106cb57600080fd5b506106e660048036038101906106e191906137a0565b612a6e565b005b3480156106f457600080fd5b5061070f600480360381019061070a9190613733565b612c02565b005b34801561071d57600080fd5b50610738600480360381019061073391906137a0565b612d63565b005b34801561074657600080fd5b50610761600480360381019061075c9190613773565b612ef6565b005b34801561076f57600080fd5b5061078a60048036038101906107859190613773565b612f98565b6040516107979190613958565b60405180910390f35b3480156107ac57600080fd5b506107b5612fb5565b6040516107c291906137dc565b60405180910390f35b3480156107d757600080fd5b506107f260048036038101906107ed9190613773565b612fdf565b005b34801561080057600080fd5b5061081b600480360381019061081691906137a0565b613032565b005b34801561082957600080fd5b50610844600480360381019061083f9190613773565b6130f7565b005b816000811161088a576040517f08c379a000000000000000000000000000000000000000000000000000000000815260040161088190613a4b565b60405180910390fd5b81600073ffffffffffffffffffffffffffffffffffffffff168173ffffffffffffffffffffffffffffffffffffffff1614156108fb576040517f08c379a00000000000000000000000000000000000000000000000000000000081526004016108f290613ab7565b60405180910390fd5b61090433612f98565b610943576040517f08c379a000000000000000000000000000000000000000000000000000000000815260040161093a90613b49565b60405180910390fd5b61094c836132b1565b8260086000868152602001908152602001600020600a0160006101000a81548173ffffffffffffffffffffffffffffffffffffffff021916908373ffffffffffffffffffffffffffffffffffffffff16021790555050505050565b6109b033611932565b6109ef576040517f08c379a00000000000000000000000000000000000000000000000000000000081526004016109e690613bb5565b60405180910390fd5b6109f8816132b1565b8073ffffffffffffffffffffffffffffffffffffffff167f2dc5af27f00486a48c2455869e7d6bb7d1564629e6bf6e5f5667c994bb2f925142604051610a3e9190613806565b60405180910390a250565b60008160008111610a8f576040517f08c379a0000000000000000000000000000000000000000000000000000000008152600401610a8690613a4b565b60405180910390fd5b6008600084815260200190815260200160002060020160009054906101000a900473ffffffffffffffffffffffffffffffffffffffff16915050919050565b6000600754905090565b610ae133611979565b610b20576040517f08c379a0000000000000000000000000000000000000000000000000000000008152600401610b1790613c47565b60405180910390fd5b610b29816132c8565b50565b8060008111610b70576040517f08c379a0000000000000000000000000000000000000000000000000000000008152600401610b6790613a4b565b60405180910390fd5b8160016009811115610b8557610b84613c67565b5b6008600083815260200190815260200160002060090160009054906101000a900460ff166009811115610bbb57610bba613c67565b5b14610bfb576040517f08c379a0000000000000000000000000000000000000000000000000000000008152600401610bf290613ce2565b60405180910390fd5b610c0433611979565b610c43576040517f08c379a0000000000000000000000000000000000000000000000000000000008152600401610c3a90613c47565b60405180910390fd5b60026008600085815260200190815260200160002060090160006101000a81548160ff02191690836009811115610c7d57610c7c613c67565b5b02179055507f2ffba759c1dbe55ce8060edb69dbec03d7defa714829b81dd3d654010ed61a058342604051610cb3929190613d02565b60405180910390a1505050565b60608160008111610d06576040517f08c379a0000000000000000000000000000000000000000000000000000000008152600401610cfd90613a4b565b60405180910390fd5b60006008600085815260200190815260200160002060090160009054906101000a900460ff166009811115610d3e57610d3d613c67565b5b90506000811415610d86576040518060400160405280600781526020017f4f726465726564000000000000000000000000000000000000000000000000008152509250611001565b6001811415610dcc576040518060400160405280600481526020017f50616964000000000000000000000000000000000000000000000000000000008152509250611000565b6002811415610e12576040518060400160405280600881526020017f52656365697665640000000000000000000000000000000000000000000000008152509250610fff565b6003811415610e58576040518060400160405280600681526020017f436f6f6b656400000000000000000000000000000000000000000000000000008152509250610ffe565b6004811415610e9e576040518060400160405280600981526020017f50726f63657373656400000000000000000000000000000000000000000000008152509250610ffd565b6005811415610ee4576040518060400160405280600681526020017f5061636b656400000000000000000000000000000000000000000000000000008152509250610ffc565b6006811415610f2a576040518060400160405280600a81526020017f44697370617463686564000000000000000000000000000000000000000000008152509250610ffb565b6007811415610f70576040518060400160405280601281526020017f44697370617463686564526563656976656400000000000000000000000000008152509250610ffa565b6008811415610fb6576040518060400160405280600c81526020017f446973706174636853656e7400000000000000000000000000000000000000008152509250610ff9565b6009811415610ff8576040518060400160405280600981526020017f436f6e6669726d6564000000000000000000000000000000000000000000000081525092505b5b5b5b5b5b5b5b5b5b5050919050565b600460009054906101000a900473ffffffffffffffffffffffffffffffffffffffff1673ffffffffffffffffffffffffffffffffffffffff163373ffffffffffffffffffffffffffffffffffffffff16141561109957600460009054906101000a900473ffffffffffffffffffffffffffffffffffffffff1673ffffffffffffffffffffffffffffffffffffffff16ff5b565b80600081116110df576040517f08c379a00000000000000000000000000000000000000000000000000000000081526004016110d690613a4b565b60405180910390fd5b81600660098111156110f4576110f3613c67565b5b6008600083815260200190815260200160002060090160009054906101000a900460ff16600981111561112a57611129613c67565b5b1461116a576040517f08c379a000000000000000000000000000000000000000000000000000000000815260040161116190613d77565b60405180910390fd5b61117333612f98565b6111b2576040517f08c379a00000000000000000000000000000000000000000000000000000000081526004016111a990613b49565b60405180910390fd5b60076008600085815260200190815260200160002060090160006101000a81548160ff021916908360098111156111ec576111eb613c67565b5b02179055507fbf7f3cbc6cc9c6fac63b3cd9594603ee48078524bcf254f89083492d240ea2468342604051611222929190613d02565b60405180910390a1505050565b8060008111611273576040517f08c379a000000000000000000000000000000000000000000000000000000000815260040161126a90613a4b565b60405180910390fd5b816008600981111561128857611287613c67565b5b6008600083815260200190815260200160002060090160009054906101000a900460ff1660098111156112be576112bd613c67565b5b146112fe576040517f08c379a00000000000000000000000000000000000000000000000000000000081526004016112f590613de3565b60405180910390fd5b61130733611932565b611346576040517f08c379a000000000000000000000000000000000000000000000000000000000815260040161133d90613bb5565b60405180910390fd5b60096008600085815260200190815260200160002060090160006101000a81548160ff021916908360098111156113805761137f613c67565b5b021790555061138f83336127f4565b7f83f709bac2889b65ee3dba04dc2780022c7ebd4fad2f817e92046a5be03ac68783426040516113c0929190613d02565b60405180910390a1505050565b600080600060608060008611611418576040517f08c379a000000000000000000000000000000000000000000000000000000000815260040161140f90613a4b565b60405180910390fd5b60086000878152602001908152602001600020600001546008600088815260200190815260200160002060020160009054906101000a900473ffffffffffffffffffffffffffffffffffffffff166008600089815260200190815260200160002060030160009054906101000a900473ffffffffffffffffffffffffffffffffffffffff16600860008a8152602001908152602001600020600501600860008b81526020019081526020016000206004018180546114d590613e32565b80601f016020809104026020016040519081016040528092919081815260200182805461150190613e32565b801561154e5780601f106115235761010080835404028352916020019161154e565b820191906000526020600020905b81548152906001019060200180831161153157829003601f168201915b5050505050915080805461156190613e32565b80601f016020809104026020016040519081016040528092919081815260200182805461158d90613e32565b80156115da5780601f106115af576101008083540402835291602001916115da565b820191906000526020600020905b8154815290600101906020018083116115bd57829003601f168201915b505050505090509450945094509450945091939590929450565b6115fc611996565b61163b576040517f08c379a000000000000000000000000000000000000000000000000000000000815260040161163290613eb0565b60405180910390fd5b600073ffffffffffffffffffffffffffffffffffffffff16600360009054906101000a900473ffffffffffffffffffffffffffffffffffffffff1673ffffffffffffffffffffffffffffffffffffffff167f5c486528ec3e3f0ea91181cff8116f02bfa350e03b8b6f12e00765adbb5af85c60405160405180910390a36000600360006101000a81548173ffffffffffffffffffffffffffffffffffffffff021916908373ffffffffffffffffffffffffffffffffffffffff160217905550565b61170533612f98565b611744576040517f08c379a000000000000000000000000000000000000000000000000000000000815260040161173b90613b49565b60405180910390fd5b61174d81613322565b8073ffffffffffffffffffffffffffffffffffffffff167fbd55d3e81a859ffec0d9ef348cd5d71726b2270aff4105f50d66e037ec078c34426040516117939190613806565b60405180910390a250565b80600081116117e2576040517f08c379a00000000000000000000000000000000000000000000000000000000081526004016117d990613a4b565b60405180910390fd5b81600560098111156117f7576117f6613c67565b5b6008600083815260200190815260200160002060090160009054906101000a900460ff16600981111561182d5761182c613c67565b5b1461186d576040517f08c379a000000000000000000000000000000000000000000000000000000000815260040161186490613f1c565b60405180910390fd5b61187633611979565b6118b5576040517f08c379a00000000000000000000000000000000000000000000000000000000081526004016118ac90613c47565b60405180910390fd5b60066008600085815260200190815260200160002060090160006101000a81548160ff021916908360098111156118ef576118ee613c67565b5b02179055507fb3c241758eed41f41cbea9cb9a8356524f679956602f0f53bb01f815abd083378342604051611925929190613d02565b60405180910390a1505050565b600061194882600261333990919063ffffffff16565b9050919050565b6000600460009054906101000a900473ffffffffffffffffffffffffffffffffffffffff16905090565b600061198f82600061333990919063ffffffff16565b9050919050565b6000600360009054906101000a900473ffffffffffffffffffffffffffffffffffffffff1673ffffffffffffffffffffffffffffffffffffffff163373ffffffffffffffffffffffffffffffffffffffff1614905090565b8060008111611a32576040517f08c379a0000000000000000000000000000000000000000000000000000000008152600401611a2990613a4b565b60405180910390fd5b8160036009811115611a4757611a46613c67565b5b6008600083815260200190815260200160002060090160009054906101000a900460ff166009811115611a7d57611a7c613c67565b5b14611abd576040517f08c379a0000000000000000000000000000000000000000000000000000000008152600401611ab490613f88565b60405180910390fd5b611ac633611979565b611b05576040517f08c379a0000000000000000000000000000000000000000000000000000000008152600401611afc90613c47565b60405180910390fd5b60046008600085815260200190815260200160002060090160006101000a81548160ff02191690836009811115611b3f57611b3e613c67565b5b02179055507f950b09e901f64e4ab9b871d275d75e90fc84a5ba62cbba02b843039d624a08208342604051611b75929190613d02565b60405180910390a1505050565b611b8a611996565b611bc9576040517f08c379a0000000000000000000000000000000000000000000000000000000008152600401611bc090613eb0565b60405180910390fd5b80600073ffffffffffffffffffffffffffffffffffffffff168173ffffffffffffffffffffffffffffffffffffffff161415611c3a576040517f08c379a0000000000000000000000000000000000000000000000000000000008152600401611c3190613ab7565b60405180910390fd5b611c43826132c8565b816008600085815260200190815260200160002060030160006101000a81548173ffffffffffffffffffffffffffffffffffffffff021916908373ffffffffffffffffffffffffffffffffffffffff160217905550505050565b611ca5611996565b611ce4576040517f08c379a0000000000000000000000000000000000000000000000000000000008152600401611cdb90613eb0565b60405180910390fd5b80600073ffffffffffffffffffffffffffffffffffffffff168173ffffffffffffffffffffffffffffffffffffffff161415611d55576040517f08c379a0000000000000000000000000000000000000000000000000000000008152600401611d4c90613ab7565b60405180910390fd5b81600460006101000a81548173ffffffffffffffffffffffffffffffffffffffff021916908373ffffffffffffffffffffffffffffffffffffffff160217905550611d9f82612fdf565b5050565b8060008111611de7576040517f08c379a0000000000000000000000000000000000000000000000000000000008152600401611dde90613a4b565b60405180910390fd5b600860008381526020019081526020016000206008015480341015611e41576040517f08c379a0000000000000000000000000000000000000000000000000000000008152600401611e389061401a565b60405180910390fd5b828360006009811115611e5757611e56613c67565b5b6008600083815260200190815260200160002060090160009054906101000a900460ff166009811115611e8d57611e8c613c67565b5b14611ecd576040517f08c379a0000000000000000000000000000000000000000000000000000000008152600401611ec490614086565b60405180910390fd5b611ed633611932565b611f15576040517f08c379a0000000000000000000000000000000000000000000000000000000008152600401611f0c90613bb5565b60405180910390fd5b60003390508060086000888152602001908152602001600020600a0160006101000a81548173ffffffffffffffffffffffffffffffffffffffff021916908373ffffffffffffffffffffffffffffffffffffffff16021790555060006008600088815260200190815260200160002060030160009054906101000a900473ffffffffffffffffffffffffffffffffffffffff1690506000600860008981526020019081526020016000206008015490506001600860008a815260200190815260200160002060090160006101000a81548160ff02191690836009811115611fff57611ffe613c67565b5b021790555060008273ffffffffffffffffffffffffffffffffffffffff168260405161202a906140d7565b60006040518083038185875af1925050503d8060008114612067576040519150601f19603f3d011682016040523d82523d6000602084013e61206c565b606091505b50509050806120b0576040517f08c379a00000000000000000000000000000000000000000000000000000000081526004016120a79061415e565b60405180910390fd5b7f223154f03370c4c2e8065e6a9b7eafdab7f1a069e866f228a758a841b807c95689426040516120e1929190613d02565b60405180910390a1505050505060006008600083815260200190815260200160002060090160019054906101000a900473ffffffffffffffffffffffffffffffffffffffff1690506000600860008481526020019081526020016000206008015490506000813461215291906141ad565b905060008373ffffffffffffffffffffffffffffffffffffffff168260405161217a906140d7565b60006040518083038185875af1925050503d80600081146121b7576040519150601f19603f3d011682016040523d82523d6000602084013e6121bc565b606091505b5050905080612200576040517f08c379a00000000000000000000000000000000000000000000000000000000081526004016121f79061422d565b60405180910390fd5b5050505050505050565b816000811161224e576040517f08c379a000000000000000000000000000000000000000000000000000000000815260040161224590613a4b565b60405180910390fd5b81600073ffffffffffffffffffffffffffffffffffffffff168173ffffffffffffffffffffffffffffffffffffffff1614156122bf576040517f08c379a00000000000000000000000000000000000000000000000000000000081526004016122b690613ab7565b60405180910390fd5b6122c883613322565b826008600086815260200190815260200160002060090160016101000a81548173ffffffffffffffffffffffffffffffffffffffff021916908373ffffffffffffffffffffffffffffffffffffffff16021790555050505050565b60008060006060600060606000808860008111612375576040517f08c379a000000000000000000000000000000000000000000000000000000000815260040161236c90613a4b565b60405180910390fd5b600860008b8152602001908152602001600020600001549850600860008b8152602001908152602001600020600101549750600860008b8152602001908152602001600020600601549650600860008b815260200190815260200160002060070180546123e190613e32565b80601f016020809104026020016040519081016040528092919081815260200182805461240d90613e32565b801561245a5780601f1061242f5761010080835404028352916020019161245a565b820191906000526020600020905b81548152906001019060200180831161243d57829003601f168201915b50505050509550600860008b81526020019081526020016000206008015494506000600860008c815260200190815260200160002060090160009054906101000a900460ff1660098111156124b2576124b1613c67565b5b905060008114156124fa576040518060400160405280600781526020017f4f726465726564000000000000000000000000000000000000000000000000008152509450612775565b6001811415612540576040518060400160405280600481526020017f50616964000000000000000000000000000000000000000000000000000000008152509450612774565b6002811415612586576040518060400160405280600881526020017f52656365697665640000000000000000000000000000000000000000000000008152509450612773565b60038114156125cc576040518060400160405280600681526020017f436f6f6b656400000000000000000000000000000000000000000000000000008152509450612772565b6004811415612612576040518060400160405280600981526020017f50726f63657373656400000000000000000000000000000000000000000000008152509450612771565b6005811415612658576040518060400160405280600681526020017f5061636b656400000000000000000000000000000000000000000000000000008152509450612770565b600681141561269e576040518060400160405280600a81526020017f4469737061746368656400000000000000000000000000000000000000000000815250945061276f565b60078114156126e4576040518060400160405280601281526020017f4469737061746368656452656365697665640000000000000000000000000000815250945061276e565b600881141561272a576040518060400160405280600c81526020017f446973706174636853656e740000000000000000000000000000000000000000815250945061276d565b600981141561276c576040518060400160405280600981526020017f436f6e6669726d6564000000000000000000000000000000000000000000000081525094505b5b5b5b5b5b5b5b5b5b600860008c815260200190815260200160002060090160019054906101000a900473ffffffffffffffffffffffffffffffffffffffff169350600860008c8152602001908152602001600020600a0160009054906101000a900473ffffffffffffffffffffffffffffffffffffffff1692505050919395975091939597565b80600073ffffffffffffffffffffffffffffffffffffffff168173ffffffffffffffffffffffffffffffffffffffff161415612865576040517f08c379a000000000000000000000000000000000000000000000000000000000815260040161285c90613ab7565b60405180910390fd5b600060086000858152602001908152602001600020600a0160009054906101000a900473ffffffffffffffffffffffffffffffffffffffff1690508073ffffffffffffffffffffffffffffffffffffffff168373ffffffffffffffffffffffffffffffffffffffff161461290e576040517f08c379a0000000000000000000000000000000000000000000000000000000008152600401612905906142bf565b60405180910390fd5b80600460006101000a81548173ffffffffffffffffffffffffffffffffffffffff021916908373ffffffffffffffffffffffffffffffffffffffff16021790555050505050565b61295e33611979565b61299d576040517f08c379a000000000000000000000000000000000000000000000000000000000815260040161299490613c47565b60405180910390fd5b6129a6816133cb565b50565b6129b233611932565b6129f1576040517f08c379a00000000000000000000000000000000000000000000000000000000081526004016129e890613bb5565b60405180910390fd5b60006008600083815260200190815260200160002060090160006101000a81548160ff02191690836009811115612a2b57612a2a613c67565b5b02179055507fc9c8278df7d1e72d88c44e3308484ec9d198429e0da228d7d3db6581d946033560075442604051612a63929190613d02565b60405180910390a150565b8060008111612ab2576040517f08c379a0000000000000000000000000000000000000000000000000000000008152600401612aa990613a4b565b60405180910390fd5b8160046009811115612ac757612ac6613c67565b5b6008600083815260200190815260200160002060090160009054906101000a900460ff166009811115612afd57612afc613c67565b5b14612b3d576040517f08c379a0000000000000000000000000000000000000000000000000000000008152600401612b349061432b565b60405180910390fd5b612b4633611979565b612b85576040517f08c379a0000000000000000000000000000000000000000000000000000000008152600401612b7c90613c47565b60405180910390fd5b60056008600085815260200190815260200160002060090160006101000a81548160ff02191690836009811115612bbf57612bbe613c67565b5b02179055507fabff0e7b526b3546deaa921577d9b1e957a41739419f3465e63ead6051574e878342604051612bf5929190613d02565b60405180910390a1505050565b80600073ffffffffffffffffffffffffffffffffffffffff168173ffffffffffffffffffffffffffffffffffffffff161415612c73576040517f08c379a0000000000000000000000000000000000000000000000000000000008152600401612c6a90613ab7565b60405180910390fd5b60006008600085815260200190815260200160002060090160019054906101000a900473ffffffffffffffffffffffffffffffffffffffff1690508073ffffffffffffffffffffffffffffffffffffffff168373ffffffffffffffffffffffffffffffffffffffff1614612d1c576040517f08c379a0000000000000000000000000000000000000000000000000000000008152600401612d1390614397565b60405180910390fd5b80600460006101000a81548173ffffffffffffffffffffffffffffffffffffffff021916908373ffffffffffffffffffffffffffffffffffffffff16021790555050505050565b8060008111612da7576040517f08c379a0000000000000000000000000000000000000000000000000000000008152600401612d9e90613a4b565b60405180910390fd5b8160076009811115612dbc57612dbb613c67565b5b6008600083815260200190815260200160002060090160009054906101000a900460ff166009811115612df257612df1613c67565b5b14612e32576040517f08c379a0000000000000000000000000000000000000000000000000000000008152600401612e2990613de3565b60405180910390fd5b612e3b33612f98565b612e7a576040517f08c379a0000000000000000000000000000000000000000000000000000000008152600401612e7190613b49565b60405180910390fd5b600880600085815260200190815260200160002060090160006101000a81548160ff02191690836009811115612eb357612eb2613c67565b5b02179055507f108110c44b0420b20431fe816414b81a1e96fbc6bfa7fb9f60dde02ef95a9eda8342604051612ee9929190613d02565b60405180910390a1505050565b612eff33611932565b612f3e576040517f08c379a0000000000000000000000000000000000000000000000000000000008152600401612f3590613bb5565b60405180910390fd5b612f4781613425565b8073ffffffffffffffffffffffffffffffffffffffff167fa116f0ee5787718140c479c562d9adda97bee63979fc2e8a7bddb47948fce65642604051612f8d9190613806565b60405180910390a250565b6000612fae82600161333990919063ffffffff16565b9050919050565b6000600360009054906101000a900473ffffffffffffffffffffffffffffffffffffffff16905090565b612fe7611996565b613026576040517f08c379a000000000000000000000000000000000000000000000000000000000815260040161301d90613eb0565b60405180910390fd5b61302f8161343c565b50565b61303b33611979565b61307a576040517f08c379a000000000000000000000000000000000000000000000000000000000815260040161307190613c47565b60405180910390fd5b60036008600083815260200190815260200160002060090160006101000a81548160ff021916908360098111156130b4576130b3613c67565b5b02179055507fc25a34432c9ef8c3e121c19cd384e660d83cab2a2a614519af47849ad7dea754600754426040516130ec929190613d02565b60405180910390a150565b61310033612f98565b61313f576040517f08c379a000000000000000000000000000000000000000000000000000000000815260040161313690613b49565b60405180910390fd5b6131488161356c565b8073ffffffffffffffffffffffffffffffffffffffff167fa3ab7333c318866d97e85edecc6942f223cfe878e790bf7339ad279fb6941ca94260405161318e9190613806565b60405180910390a250565b600073ffffffffffffffffffffffffffffffffffffffff168173ffffffffffffffffffffffffffffffffffffffff161415613209576040517f08c379a000000000000000000000000000000000000000000000000000000000815260040161320090614403565b60405180910390fd5b6132138282613339565b15613253576040517f08c379a000000000000000000000000000000000000000000000000000000000815260040161324a9061446f565b60405180910390fd5b60018260000160008373ffffffffffffffffffffffffffffffffffffffff1673ffffffffffffffffffffffffffffffffffffffff16815260200190815260200160002060006101000a81548160ff0219169083151502179055505050565b6132c581600261319990919063ffffffff16565b50565b6132dc81600061319990919063ffffffff16565b8073ffffffffffffffffffffffffffffffffffffffff167f30fdfb5b96c8f1d53ce2c2df0c23849ad3b9a86a4b0aae4303d182d635593c4860405160405180910390a250565b61333681600161319990919063ffffffff16565b50565b60008073ffffffffffffffffffffffffffffffffffffffff168273ffffffffffffffffffffffffffffffffffffffff16141561337457600080fd5b8260000160008373ffffffffffffffffffffffffffffffffffffffff1673ffffffffffffffffffffffffffffffffffffffff16815260200190815260200160002060009054906101000a900460ff16905092915050565b6133df81600061358390919063ffffffff16565b8073ffffffffffffffffffffffffffffffffffffffff167fe2f8baf829f0cb6d609190eec3e8755addaa195065d640434d2ceecb9944c5f160405160405180910390a250565b61343981600261358390919063ffffffff16565b50565b600073ffffffffffffffffffffffffffffffffffffffff168173ffffffffffffffffffffffffffffffffffffffff1614156134ac576040517f08c379a00000000000000000000000000000000000000000000000000000000081526004016134a3906144db565b60405180910390fd5b80600360006101000a81548173ffffffffffffffffffffffffffffffffffffffff021916908373ffffffffffffffffffffffffffffffffffffffff1602179055508073ffffffffffffffffffffffffffffffffffffffff16600360009054906101000a900473ffffffffffffffffffffffffffffffffffffffff1673ffffffffffffffffffffffffffffffffffffffff167f5c486528ec3e3f0ea91181cff8116f02bfa350e03b8b6f12e00765adbb5af85c60405160405180910390a350565b61358081600161358390919063ffffffff16565b50565b600073ffffffffffffffffffffffffffffffffffffffff168173ffffffffffffffffffffffffffffffffffffffff1614156135f3576040517f08c379a00000000000000000000000000000000000000000000000000000000081526004016135ea90614547565b60405180910390fd5b6135fd8282613339565b61363c576040517f08c379a0000000000000000000000000000000000000000000000000000000008152600401613633906145b3565b60405180910390fd5b60008260000160008373ffffffffffffffffffffffffffffffffffffffff1673ffffffffffffffffffffffffffffffffffffffff16815260200190815260200160002060006101000a81548160ff0219169083151502179055505050565b600080fd5b6000819050919050565b6136b28161369f565b81146136bd57600080fd5b50565b6000813590506136cf816136a9565b92915050565b600073ffffffffffffffffffffffffffffffffffffffff82169050919050565b6000613700826136d5565b9050919050565b613710816136f5565b811461371b57600080fd5b50565b60008135905061372d81613707565b92915050565b6000806040838503121561374a5761374961369a565b5b6000613758858286016136c0565b92505060206137698582860161371e565b9150509250929050565b6000602082840312156137895761378861369a565b5b60006137978482850161371e565b91505092915050565b6000602082840312156137b6576137b561369a565b5b60006137c4848285016136c0565b91505092915050565b6137d6816136f5565b82525050565b60006020820190506137f160008301846137cd565b92915050565b6138008161369f565b82525050565b600060208201905061381b60008301846137f7565b92915050565b600081519050919050565b600082825260208201905092915050565b60005b8381101561385b578082015181840152602081019050613840565b8381111561386a576000848401525b50505050565b6000601f19601f8301169050919050565b600061388c82613821565b613896818561382c565b93506138a681856020860161383d565b6138af81613870565b840191505092915050565b600060208201905081810360008301526138d48184613881565b905092915050565b600060a0820190506138f160008301886137f7565b6138fe60208301876137cd565b61390b60408301866137cd565b818103606083015261391d8185613881565b905081810360808301526139318184613881565b90509695505050505050565b60008115159050919050565b6139528161393d565b82525050565b600060208201905061396d6000830184613949565b92915050565b600061010082019050613989600083018b6137f7565b613996602083018a6137f7565b6139a360408301896137f7565b81810360608301526139b58188613881565b90506139c460808301876137f7565b81810360a08301526139d68186613881565b90506139e560c08301856137cd565b6139f260e08301846137cd565b9998505050505050505050565b7f736b752063616e6e6f7420626520300000000000000000000000000000000000600082015250565b6000613a35600f8361382c565b9150613a40826139ff565b602082019050919050565b60006020820190508181036000830152613a6481613a28565b9050919050565b7f63616e6e6f7420626520626c61636b20686f6c65206163636f756e7400000000600082015250565b6000613aa1601c8361382c565b9150613aac82613a6b565b602082019050919050565b60006020820190508181036000830152613ad081613a94565b9050919050565b7f6f6e6c7920446973706174636865722063616e2063616c6c2066756e6374696f60008201527f6e00000000000000000000000000000000000000000000000000000000000000602082015250565b6000613b3360218361382c565b9150613b3e82613ad7565b604082019050919050565b60006020820190508181036000830152613b6281613b26565b9050919050565b7f6f6e6c7920436f6e73756d65722063616e2063616c6c2066756e6374696f6e00600082015250565b6000613b9f601f8361382c565b9150613baa82613b69565b602082019050919050565b60006020820190508181036000830152613bce81613b92565b9050919050565b7f6f6e6c792072657374617572616e742063616e2063616c6c2066756e6374696f60008201527f6e00000000000000000000000000000000000000000000000000000000000000602082015250565b6000613c3160218361382c565b9150613c3c82613bd5565b604082019050919050565b60006020820190508181036000830152613c6081613c24565b9050919050565b7f4e487b7100000000000000000000000000000000000000000000000000000000600052602160045260246000fd5b7f6e6f7420696e2070616964207374617465000000000000000000000000000000600082015250565b6000613ccc60118361382c565b9150613cd782613c96565b602082019050919050565b60006020820190508181036000830152613cfb81613cbf565b9050919050565b6000604082019050613d1760008301856137f7565b613d2460208301846137f7565b9392505050565b7f6e6f7420726561647920666f7220646973706174636800000000000000000000600082015250565b6000613d6160168361382c565b9150613d6c82613d2b565b602082019050919050565b60006020820190508181036000830152613d9081613d54565b9050919050565b7f6e6f7420726561647920746f2062652073656e7420746f20636f6e73756d6572600082015250565b6000613dcd60208361382c565b9150613dd882613d97565b602082019050919050565b60006020820190508181036000830152613dfc81613dc0565b9050919050565b7f4e487b7100000000000000000000000000000000000000000000000000000000600052602260045260246000fd5b60006002820490506001821680613e4a57607f821691505b60208210811415613e5e57613e5d613e03565b5b50919050565b7f6f6e6c79206f776e65722063616e2063616c6c2066756e6374696f6e00000000600082015250565b6000613e9a601c8361382c565b9150613ea582613e64565b602082019050919050565b60006020820190508181036000830152613ec981613e8d565b9050919050565b7f6e6f7420696e207061636b656420737461746500000000000000000000000000600082015250565b6000613f0660138361382c565b9150613f1182613ed0565b602082019050919050565b60006020820190508181036000830152613f3581613ef9565b9050919050565b7f6e6f7420696e20636f6f6b656420737461746500000000000000000000000000600082015250565b6000613f7260138361382c565b9150613f7d82613f3c565b602082019050919050565b60006020820190508181036000830152613fa181613f65565b9050919050565b7f616d6f756e742070616964206d75737420626520686967686572207468616e2060008201527f6974656d20707269636500000000000000000000000000000000000000000000602082015250565b6000614004602a8361382c565b915061400f82613fa8565b604082019050919050565b6000602082019050818103600083015261403381613ff7565b9050919050565b7f6e6f7420696e206f726465726564207374617465000000000000000000000000600082015250565b600061407060148361382c565b915061407b8261403a565b602082019050919050565b6000602082019050818103600083015261409f81614063565b9050919050565b600081905092915050565b50565b60006140c16000836140a6565b91506140cc826140b1565b600082019050919050565b60006140e2826140b4565b9150819050919050565b7f6661696c656420746f2073656e6420657468657220746f20726573746175726160008201527f6e74000000000000000000000000000000000000000000000000000000000000602082015250565b600061414860228361382c565b9150614153826140ec565b604082019050919050565b600060208201905081810360008301526141778161413b565b9050919050565b7f4e487b7100000000000000000000000000000000000000000000000000000000600052601160045260246000fd5b60006141b88261369f565b91506141c38361369f565b9250828210156141d6576141d561417e565b5b828203905092915050565b7f6661696c656420746f2073656e64206574686572000000000000000000000000600082015250565b600061421760148361382c565b9150614222826141e1565b602082019050919050565b600060208201905081810360008301526142468161420a565b9050919050565b7f636f6e73756d6572206163636f756e74206d757374206265206578697374696e60008201527f6700000000000000000000000000000000000000000000000000000000000000602082015250565b60006142a960218361382c565b91506142b48261424d565b604082019050919050565b600060208201905081810360008301526142d88161429c565b9050919050565b7f6e6f7420696e2070726f63657373656420737461746500000000000000000000600082015250565b600061431560168361382c565b9150614320826142df565b602082019050919050565b6000602082019050818103600083015261434481614308565b9050919050565b7f6d75737420626520726561647920746f20626520646973706174636865640000600082015250565b6000614381601e8361382c565b915061438c8261434b565b602082019050919050565b600060208201905081810360008301526143b081614374565b9050919050565b7f63616e6e6f742061646420686f6c650000000000000000000000000000000000600082015250565b60006143ed600f8361382c565b91506143f8826143b7565b602082019050919050565b6000602082019050818103600083015261441c816143e0565b9050919050565b7f6163636f756e74206d757374206e6f74206861766520726f6c65000000000000600082015250565b6000614459601a8361382c565b915061446482614423565b602082019050919050565b600060208201905081810360008301526144888161444c565b9050919050565b7f63616e6e6f74207472616e7366657220746f2061646472203000000000000000600082015250565b60006144c560198361382c565b91506144d08261448f565b602082019050919050565b600060208201905081810360008301526144f4816144b8565b9050919050565b7f616464726573732063616e6e6f7420626520626c61636b20686f6c6500000000600082015250565b6000614531601c8361382c565b915061453c826144fb565b602082019050919050565b6000602082019050818103600083015261456081614524565b9050919050565b7f61646472657373206d757374206861766520726f6c6500000000000000000000600082015250565b600061459d60168361382c565b91506145a882614567565b602082019050919050565b600060208201905081810360008301526145cc81614590565b905091905056fea2646970667358221220b9e02705b295958b8c2ce01cbda1973604fc1ee0d55231cac0f9f75e0821a7d364736f6c634300080a0033",
  "immutableReferences": {},
  "source": "// SPDX-License-Identifier: MIT\npragma solidity >=0.5.0 <0.9.0;\n\n\nimport './AccessControl/ConsumerRole.sol';\nimport './AccessControl/RestaurantRole.sol';\nimport './AccessControl/DispatcherRole.sol';\n\nimport './Core/Ownable.sol';\n\ncontract SupplyChain is RestaurantRole, DispatcherRole, ConsumerRole, Ownable {\n\n  // define owner\n  address owner;\n\n  address deployer;\n\n  // 'upc' universal product code\n  uint upc;\n\n  // 'sku' stock keeping unit\n  uint sku;\n\n  mapping (uint => Item) items;\n\n  enum State {\n    Ordered,\n    Paid,\n    Received,\n    Cooked,\n    Processed,\n    Packed,\n    Dispatched,\n    DispatchedReceived,\n    DispatchSent,\n    Confirmed\n  }\n\n  struct Item {\n      uint sku;\n      uint upc;\n      address ownerID;\n      address originRestaurantID;\n      string originRestaurantName;\n      string originRestaurantInfo;\n      uint productID;\n      string productNotes;\n      uint productPrice;\n      State itemState;\n      address dispatcherID;\n      address consumerID;\n  }\n\n\n  // LogItemOrder\n  event LogItemOrder(uint256 upc, uint timestamp);\n\n  // LogItemPaid\n  event LogItemPaid(uint256 sku, uint timestamp);\n\n  // LogItemConfirmed\n  event LogItemConfirmed(uint256 sku, uint timestamp);\n\n  // LogItemProcessed\n  event LogItemProcessed(uint256 sku, uint timestamp);\n\n  // LogItemPacked\n  event LogItemPacked(uint256 sku, uint timestamp);\n\n  // LogItemDispatched\n  event LogItemDispatched(uint256 sku, uint timestamp);\n\n  // LogitemReceived\n  event LogItemReceived(uint256 sku, uint timestamp);\n\n  event LogItemCooked(uint256 sku, uint timestamp);\n\n  event LogDis(uint256 sku, uint timestamp);\n\n  event LogDispatchSent(uint256 sku, uint timestamp);\n\n\n  modifier notZeroAddress(address _account) {\n     require(_account != address(0), 'cannot be black hole account');\n     _;\n }\n  \n  modifier checkSKU(uint _sku) {\n      require(_sku > 0, 'sku cannot be 0');\n      _;\n  }\n\n  modifier verifyCaller(address _account) {\n      require(msg.sender == _account, 'unauthorized');\n      _;\n  }\n\n  modifier ordered(uint _sku) {\n    require(items[_sku].itemState == State.Ordered, 'not in ordered state');\n    _;\n  }\n\n  modifier paid(uint _sku) {\n    require(items[_sku].itemState == State.Paid, 'not in paid state');\n    _;\n  }\n\n  modifier cooked(uint _sku) {\n    require(items[_sku].itemState == State.Cooked, 'not in cooked state');\n    _;\n  }\n\n  modifier processed(uint _sku) {\n    require(items[_sku].itemState == State.Processed, 'not in processed state');\n    _;\n  }\n  \n  modifier confirmed(uint _sku) {\n      require(items[_sku].itemState == State.Confirmed, 'status: not confirmed by consumer');\n      _;\n  }\n\n  modifier packed(uint _sku) {\n      require(items[_sku].itemState == State.Packed, 'not in packed state');\n      _;\n  }\n  \n  modifier dispatchersent(uint _sku) {\n      require(items[_sku].itemState == State.DispatchSent, 'not ready to be sent to consumer');\n      _;\n  }\n\n  modifier dispatcherreceive(uint _sku) {\n      require(items[_sku].itemState == State.DispatchedReceived, 'not ready to be sent to consumer');\n      _;\n  }\n\n  modifier dispatch(uint _sku) {\n      require(items[_sku].itemState == State.Dispatched, 'not ready for dispatch');\n      _;\n  }\n\n  modifier received(uint _sku) {\n      require(items[_sku].itemState == State.Received, 'not in received state');\n      _;\n  }\n  \n  modifier paidEnough(uint _price) {\n    require(msg.value >= _price, 'amount paid must be higher than item price');\n    _;\n  }\n  \n  modifier checkValue(uint _sku) {\n    _;\n    address dispatcher = items[_sku].dispatcherID;\n    uint price = items[_sku].productPrice;\n    uint amountToRefund = msg.value - price;\n    (bool success,) = payable(dispatcher).call{value: amountToRefund}('');\n    require(success, 'failed to send ether');\n  }\n\n  constructor() {\n    deployer = msg.sender;\n    owner = msg.sender;\n    sku = 0;\n    upc = 0;\n  }\n\n\n  function kill() public {\n    if(msg.sender == owner) {\n      selfdestruct(payable(owner));\n    }\n  }\n\n  function transferOwnershipToAccount(address _account) public onlyOwner notZeroAddress(_account) {\n      owner = _account;\n      transferOwnership(_account);\n    }\n\n  function addRestaurantAccount(uint _sku, address _account) \n    public\n    onlyOwner\n    notZeroAddress(_account)\n    {\n      _addRestaurant(_account);\n      items[_sku].originRestaurantID = _account;\n      // transferOwnershipToAccount(_account);\n    }\n\n\n    function transferOwnershipToDispatcher(uint _sku, address _account) public notZeroAddress(_account) {\n      address dispatcher = items[_sku].dispatcherID;\n      require(_account == dispatcher, 'must be ready to be dispatched');\n      owner = dispatcher;\n      // items[_sku].ownerID = dispatcher;\n    }\n\n\n    function enableDisapatcherAccount(uint _sku, address _account) public checkSKU(_sku) notZeroAddress(_account) {\n      _addDispatcher(_account);\n      items[_sku].dispatcherID = _account;\n    }\n\n    function enableConsumerAccount(uint _sku, address _account) public checkSKU(_sku) notZeroAddress(_account) onlyDispatcher {\n      _addConsumer(_account);\n      items[_sku].consumerID = _account;\n    }\n\n\n\n    function transferOwnershipToConsumer(uint _sku, address _account) public notZeroAddress(_account) {\n      address consumer = items[_sku].consumerID;\n      require(_account == consumer, 'consumer account must be existing');\n      owner = consumer;\n      // items[_sku].ownerID = consumer;\n    }\n\n  // comeback to this\n    function OrderItem(\n      uint _sku\n      ) public onlyConsumer {\n        items[_sku].itemState = State.Ordered;\n        emit LogItemOrder(sku, block.timestamp);\n      }\n\n    \n    function PayForItem(uint _sku) public payable checkSKU(_sku) paidEnough(items[_sku].productPrice) checkValue(_sku) ordered(_sku) onlyConsumer {\n      address consumer = msg.sender;\n      items[_sku].consumerID = consumer;\n      address restaurant = items[_sku].originRestaurantID;\n      uint price = items[_sku].productPrice;\n      items[_sku].itemState = State.Paid;\n      (bool succes, ) = payable(restaurant).call{value: price}('');\n      require(succes, 'failed to send ether to restaurant');\n      emit LogItemPaid(_sku, block.timestamp);\n    }\n\n\n    function ReceiveOrder(uint _sku) public checkSKU(_sku) paid(_sku) onlyRestaurant {\n      items[_sku].itemState = State.Received;\n      emit LogItemReceived(_sku, block.timestamp);\n    }\n\n\n    function CookOrder(\n      uint _sku\n      // string memory _originRestaurantName, \n      // string memory _originRestaurantInfo,\n      // string memory _productNotes\n    ) public onlyRestaurant {\n      items[_sku].itemState = State.Cooked;\n      // sku += 1;\n      // uint productID = upc + sku;\n      // items[sku] = Item({\n      //   sku: sku,\n      //   upc: sku,\n      //   ownerID: owner,\n      //   originRestaurantID: owner,\n      //   originRestaurantName: _originRestaurantName,\n      //   originRestaurantInfo: _originRestaurantInfo,\n      //   productID: productID,\n      //   productNotes: _productNotes,\n      //   productPrice: 0,\n      //   itemState: State.Cooked,\n      //   dispatcherID: address(0),\n      //   consumerID: address(0)\n      // });\n\n      emit LogItemCooked(sku, block.timestamp);\n    }\n\n    function ProcessOrder(uint _sku) public checkSKU(_sku) cooked(_sku) onlyRestaurant  {\n      items[_sku].itemState = State.Processed;\n      emit LogItemProcessed(_sku, block.timestamp);\n    }\n\n    function PackageOrder(uint _sku) public checkSKU(_sku) processed(_sku) onlyRestaurant  {\n      items[_sku].itemState = State.Packed;\n      emit LogItemPacked(_sku, block.timestamp);\n    }\n\n    function DispatchOrder(uint _sku) public checkSKU(_sku) packed(_sku) onlyRestaurant  {\n      items[_sku].itemState = State.Dispatched;\n      emit LogItemDispatched(_sku, block.timestamp);\n    }\n\n\n    function ReceiveDispatchedOrder(uint _sku) public checkSKU(_sku) dispatch(_sku) onlyDispatcher  {\n      items[_sku].itemState = State.DispatchedReceived;\n      emit LogDis(_sku, block.timestamp);\n    }\n\n\n    function DispatcherDispatchesOrder(uint _sku) public checkSKU(_sku)  dispatcherreceive(_sku) onlyDispatcher  {\n      items[_sku].itemState = State.DispatchSent;\n      emit LogDispatchSent(_sku, block.timestamp);\n    }\n\n\n    function ConsumerReceivesItem(uint _sku) public checkSKU(_sku) dispatchersent(_sku) onlyConsumer  {\n      items[_sku].itemState = State.Confirmed;\n      transferOwnershipToConsumer(_sku, msg.sender);\n      emit LogItemConfirmed(_sku, block.timestamp);\n    }\n\n\n    function getItemStatus(uint _sku) public checkSKU(_sku) view returns(string memory status) {\n    uint itemStatus = uint(items[_sku].itemState);\n    if(itemStatus == 0) {\n        status = 'Ordered';\n    } else if(itemStatus == 1) {\n        status = 'Paid';\n    } else if(itemStatus == 2) {\n        status = 'Received';\n        \n    }  else if(itemStatus == 3) {\n        status = 'Cooked';\n    }\n    else if(itemStatus == 4) {\n        status = 'Processed';\n    } else if(itemStatus == 5) {\n        status = 'Packed';\n    } else if(itemStatus == 6) {\n        status = 'Dispatched';\n    } else if(itemStatus == 7) {\n        status = 'DispatchedReceived';\n    } else if(itemStatus == 8) {\n        status = 'DispatchSent';\n    } else if(itemStatus == 9) {\n        status = 'Confirmed';\n    }\n    \n  }\n  \n    \n  function getTotalItems() public view returns(uint) {\n    return sku;\n  }\n  \n  \n  function getOwner() public view returns(address) {\n    return owner;\n  }\n\n  function getItemOwner(uint _sku) checkSKU(_sku) public view returns(address) {\n    return items[_sku].ownerID;\n  }\n\n\n  function fetchRestaurantDetails(uint _upc)  public view returns (\n    uint itemSKU,\n    address ownerID,\n    address originRestaurantID,\n    string memory originRestaurantInfo,\n    string memory originRestaurantName\n  )\n  {\n    require(_upc > 0, 'sku cannot be 0');\n    return (\n      items[_upc].sku,\n      items[_upc].ownerID,\n      items[_upc].originRestaurantID,\n      items[_upc].originRestaurantInfo,\n      items[_upc].originRestaurantName\n    );\n      \n  }\n  \n  \n    \n  function fetchProductDetails(uint _upc)  public checkSKU(_upc) view returns (\n    uint itemSKU,\n    uint itemUPC,\n    uint productID,\n    string memory productNotes,\n    uint productPrice,\n    string memory status,\n    address dispatcherID,\n    address consumerID\n    ) {\n      itemSKU = items[_upc].sku;\n      itemUPC = items[_upc].upc;\n      productID = items[_upc].productID;\n      productNotes = items[_upc].productNotes;\n      productPrice = items[_upc].productPrice;\n      uint itemState = uint(items[_upc].itemState);\n     if(itemState == 0) {\n        status = 'Ordered';\n    } else if(itemState == 1) {\n        status = 'Paid';\n    } else if(itemState == 2) {\n        status = 'Received';\n        \n    }  else if(itemState == 3) {\n        status = 'Cooked';\n    }\n    else if(itemState == 4) {\n        status = 'Processed';\n    } else if(itemState == 5) {\n        status = 'Packed';\n    } else if(itemState == 6) {\n        status = 'Dispatched';\n    } else if(itemState == 7) {\n        status = 'DispatchedReceived';\n    } else if(itemState == 8) {\n        status = 'DispatchSent';\n    } else if(itemState == 9) {\n        status = 'Confirmed';\n    } \n      dispatcherID = items[_upc].dispatcherID;\n      consumerID = items[_upc].consumerID;\n  }\n\n}\n",
  "sourcePath": "/home/godwin/blockchain-developer-bootcamp-final-project/contracts/SupplyChain.sol",
  "compiler": {
    "name": "solc",
    "version": "0.8.10+commit.fc410830.Emscripten.clang"
  },
  "schemaVersion": "3.4.3",
  "updatedAt": "2021-11-15T19:20:42.606Z",
  "networkType": "ethereum",
  "devdoc": {
    "kind": "dev",
    "methods": {},
    "version": 1
  },
  "userdoc": {
    "kind": "user",
    "methods": {},
    "version": 1
  }
}