{
  "contractName": "SupplyChain",
  "abi": [
    {
      "inputs": [],
      "stateMutability": "nonpayable",
      "type": "constructor"
    },
    {
      "anonymous": false,
      "inputs": [
        {
          "indexed": true,
          "internalType": "address",
          "name": "account",
          "type": "address"
        },
        {
          "indexed": false,
          "internalType": "uint256",
          "name": "timestamp",
          "type": "uint256"
        }
      ],
      "name": "ConsumerAdded",
      "type": "event"
    },
    {
      "anonymous": false,
      "inputs": [
        {
          "indexed": true,
          "internalType": "address",
          "name": "account",
          "type": "address"
        },
        {
          "indexed": false,
          "internalType": "uint256",
          "name": "timestamp",
          "type": "uint256"
        }
      ],
      "name": "ConsumerRemoved",
      "type": "event"
    },
    {
      "anonymous": false,
      "inputs": [
        {
          "indexed": true,
          "internalType": "address",
          "name": "account",
          "type": "address"
        },
        {
          "indexed": false,
          "internalType": "uint256",
          "name": "timestamp",
          "type": "uint256"
        }
      ],
      "name": "DispatcherAdded",
      "type": "event"
    },
    {
      "anonymous": false,
      "inputs": [
        {
          "indexed": true,
          "internalType": "address",
          "name": "account",
          "type": "address"
        },
        {
          "indexed": false,
          "internalType": "uint256",
          "name": "timestamp",
          "type": "uint256"
        }
      ],
      "name": "DispatcherRemoved",
      "type": "event"
    },
    {
      "anonymous": false,
      "inputs": [
        {
          "indexed": false,
          "internalType": "uint256",
          "name": "sku",
          "type": "uint256"
        },
        {
          "indexed": false,
          "internalType": "uint256",
          "name": "timestamp",
          "type": "uint256"
        }
      ],
      "name": "LogItemConfirmed",
      "type": "event"
    },
    {
      "anonymous": false,
      "inputs": [
        {
          "indexed": false,
          "internalType": "uint256",
          "name": "sku",
          "type": "uint256"
        },
        {
          "indexed": false,
          "internalType": "uint256",
          "name": "timestamp",
          "type": "uint256"
        }
      ],
      "name": "LogItemCooked",
      "type": "event"
    },
    {
      "anonymous": false,
      "inputs": [
        {
          "indexed": false,
          "internalType": "uint256",
          "name": "sku",
          "type": "uint256"
        },
        {
          "indexed": false,
          "internalType": "uint256",
          "name": "timestamp",
          "type": "uint256"
        }
      ],
      "name": "LogItemDispatched",
      "type": "event"
    },
    {
      "anonymous": false,
      "inputs": [
        {
          "indexed": false,
          "internalType": "uint256",
          "name": "upc",
          "type": "uint256"
        },
        {
          "indexed": false,
          "internalType": "uint256",
          "name": "timestamp",
          "type": "uint256"
        }
      ],
      "name": "LogItemOrder",
      "type": "event"
    },
    {
      "anonymous": false,
      "inputs": [
        {
          "indexed": false,
          "internalType": "uint256",
          "name": "sku",
          "type": "uint256"
        },
        {
          "indexed": false,
          "internalType": "uint256",
          "name": "timestamp",
          "type": "uint256"
        }
      ],
      "name": "LogItemPacked",
      "type": "event"
    },
    {
      "anonymous": false,
      "inputs": [
        {
          "indexed": false,
          "internalType": "uint256",
          "name": "sku",
          "type": "uint256"
        },
        {
          "indexed": false,
          "internalType": "uint256",
          "name": "timestamp",
          "type": "uint256"
        }
      ],
      "name": "LogItemPaid",
      "type": "event"
    },
    {
      "anonymous": false,
      "inputs": [
        {
          "indexed": false,
          "internalType": "uint256",
          "name": "sku",
          "type": "uint256"
        },
        {
          "indexed": false,
          "internalType": "uint256",
          "name": "timestamp",
          "type": "uint256"
        }
      ],
      "name": "LogItemProcessed",
      "type": "event"
    },
    {
      "anonymous": false,
      "inputs": [
        {
          "indexed": false,
          "internalType": "uint256",
          "name": "sku",
          "type": "uint256"
        },
        {
          "indexed": false,
          "internalType": "uint256",
          "name": "timestamp",
          "type": "uint256"
        }
      ],
      "name": "LogitemReceived",
      "type": "event"
    },
    {
      "anonymous": false,
      "inputs": [
        {
          "indexed": true,
          "internalType": "address",
          "name": "account",
          "type": "address"
        }
      ],
      "name": "RestaurantAdded",
      "type": "event"
    },
    {
      "anonymous": false,
      "inputs": [
        {
          "indexed": true,
          "internalType": "address",
          "name": "account",
          "type": "address"
        }
      ],
      "name": "RestaurantRemoved",
      "type": "event"
    },
    {
      "anonymous": false,
      "inputs": [
        {
          "indexed": true,
          "internalType": "address",
          "name": "oldOwner",
          "type": "address"
        },
        {
          "indexed": true,
          "internalType": "address",
          "name": "newOwner",
          "type": "address"
        }
      ],
      "name": "TransferOwnership",
      "type": "event"
    },
    {
      "inputs": [
        {
          "internalType": "address",
          "name": "_account",
          "type": "address"
        }
      ],
      "name": "_removeRestaurant",
      "outputs": [],
      "stateMutability": "nonpayable",
      "type": "function"
    },
    {
      "inputs": [
        {
          "internalType": "address",
          "name": "_account",
          "type": "address"
        }
      ],
      "name": "addConsumer",
      "outputs": [],
      "stateMutability": "nonpayable",
      "type": "function"
    },
    {
      "inputs": [
        {
          "internalType": "address",
          "name": "_account",
          "type": "address"
        }
      ],
      "name": "addDispatcher",
      "outputs": [],
      "stateMutability": "nonpayable",
      "type": "function"
    },
    {
      "inputs": [
        {
          "internalType": "address",
          "name": "_account",
          "type": "address"
        }
      ],
      "name": "addRestaurant",
      "outputs": [],
      "stateMutability": "nonpayable",
      "type": "function"
    },
    {
      "inputs": [
        {
          "internalType": "address",
          "name": "_account",
          "type": "address"
        }
      ],
      "name": "isConsumer",
      "outputs": [
        {
          "internalType": "bool",
          "name": "",
          "type": "bool"
        }
      ],
      "stateMutability": "view",
      "type": "function"
    },
    {
      "inputs": [
        {
          "internalType": "address",
          "name": "_account",
          "type": "address"
        }
      ],
      "name": "isDispatcher",
      "outputs": [
        {
          "internalType": "bool",
          "name": "",
          "type": "bool"
        }
      ],
      "stateMutability": "view",
      "type": "function"
    },
    {
      "inputs": [],
      "name": "isOwner",
      "outputs": [
        {
          "internalType": "bool",
          "name": "",
          "type": "bool"
        }
      ],
      "stateMutability": "view",
      "type": "function"
    },
    {
      "inputs": [
        {
          "internalType": "address",
          "name": "_account",
          "type": "address"
        }
      ],
      "name": "isRestaurant",
      "outputs": [
        {
          "internalType": "bool",
          "name": "",
          "type": "bool"
        }
      ],
      "stateMutability": "view",
      "type": "function"
    },
    {
      "inputs": [],
      "name": "ownerAccount",
      "outputs": [
        {
          "internalType": "address",
          "name": "",
          "type": "address"
        }
      ],
      "stateMutability": "view",
      "type": "function"
    },
    {
      "inputs": [],
      "name": "renounceOwnership",
      "outputs": [],
      "stateMutability": "nonpayable",
      "type": "function"
    },
    {
      "inputs": [
        {
          "internalType": "address",
          "name": "_account",
          "type": "address"
        }
      ],
      "name": "revokeConsumer",
      "outputs": [],
      "stateMutability": "nonpayable",
      "type": "function"
    },
    {
      "inputs": [
        {
          "internalType": "address",
          "name": "_account",
          "type": "address"
        }
      ],
      "name": "revokeDispatcher",
      "outputs": [],
      "stateMutability": "nonpayable",
      "type": "function"
    },
    {
      "inputs": [
        {
          "internalType": "address",
          "name": "_newOwner",
          "type": "address"
        }
      ],
      "name": "transferOwnership",
      "outputs": [],
      "stateMutability": "nonpayable",
      "type": "function"
    },
    {
      "inputs": [],
      "name": "kill",
      "outputs": [],
      "stateMutability": "nonpayable",
      "type": "function"
    },
    {
      "inputs": [
        {
          "internalType": "address",
          "name": "_account",
          "type": "address"
        }
      ],
      "name": "transferOwnershipToAccount",
      "outputs": [],
      "stateMutability": "nonpayable",
      "type": "function"
    },
    {
      "inputs": [
        {
          "internalType": "uint256",
          "name": "_sku",
          "type": "uint256"
        },
        {
          "internalType": "address",
          "name": "_account",
          "type": "address"
        }
      ],
      "name": "addRestaurantAccount",
      "outputs": [],
      "stateMutability": "nonpayable",
      "type": "function"
    },
    {
      "inputs": [
        {
          "internalType": "uint256",
          "name": "_sku",
          "type": "uint256"
        },
        {
          "internalType": "address",
          "name": "_account",
          "type": "address"
        }
      ],
      "name": "transferOwnershipToDispatcher",
      "outputs": [],
      "stateMutability": "nonpayable",
      "type": "function"
    },
    {
      "inputs": [
        {
          "internalType": "uint256",
          "name": "_sku",
          "type": "uint256"
        },
        {
          "internalType": "address",
          "name": "_account",
          "type": "address"
        }
      ],
      "name": "enableDisapatcherAccount",
      "outputs": [],
      "stateMutability": "nonpayable",
      "type": "function"
    },
    {
      "inputs": [
        {
          "internalType": "uint256",
          "name": "_sku",
          "type": "uint256"
        },
        {
          "internalType": "address",
          "name": "_account",
          "type": "address"
        }
      ],
      "name": "enableConsumerAccount",
      "outputs": [],
      "stateMutability": "nonpayable",
      "type": "function"
    },
    {
      "inputs": [
        {
          "internalType": "uint256",
          "name": "_sku",
          "type": "uint256"
        },
        {
          "internalType": "address",
          "name": "_account",
          "type": "address"
        }
      ],
      "name": "transferOwnershipToConsumer",
      "outputs": [],
      "stateMutability": "nonpayable",
      "type": "function"
    },
    {
      "inputs": [
        {
          "internalType": "uint256",
          "name": "_sku",
          "type": "uint256"
        }
      ],
      "name": "OrderItem",
      "outputs": [],
      "stateMutability": "nonpayable",
      "type": "function"
    },
    {
      "inputs": [
        {
          "internalType": "uint256",
          "name": "_sku",
          "type": "uint256"
        }
      ],
      "name": "PayForItem",
      "outputs": [],
      "stateMutability": "payable",
      "type": "function"
    },
    {
      "inputs": [
        {
          "internalType": "uint256",
          "name": "_sku",
          "type": "uint256"
        }
      ],
      "name": "ReceiveOrder",
      "outputs": [],
      "stateMutability": "nonpayable",
      "type": "function"
    },
    {
      "inputs": [
        {
          "internalType": "string",
          "name": "_originRestaurantName",
          "type": "string"
        },
        {
          "internalType": "string",
          "name": "_originRestaurantInfo",
          "type": "string"
        },
        {
          "internalType": "string",
          "name": "_productNotes",
          "type": "string"
        }
      ],
      "name": "CookOrder",
      "outputs": [],
      "stateMutability": "nonpayable",
      "type": "function"
    },
    {
      "inputs": [
        {
          "internalType": "uint256",
          "name": "_sku",
          "type": "uint256"
        }
      ],
      "name": "ProcessOrder",
      "outputs": [],
      "stateMutability": "nonpayable",
      "type": "function"
    },
    {
      "inputs": [
        {
          "internalType": "uint256",
          "name": "_sku",
          "type": "uint256"
        }
      ],
      "name": "PackageOrder",
      "outputs": [],
      "stateMutability": "nonpayable",
      "type": "function"
    },
    {
      "inputs": [
        {
          "internalType": "uint256",
          "name": "_sku",
          "type": "uint256"
        }
      ],
      "name": "DispatchOrder",
      "outputs": [],
      "stateMutability": "nonpayable",
      "type": "function"
    },
    {
      "inputs": [
        {
          "internalType": "uint256",
          "name": "_sku",
          "type": "uint256"
        }
      ],
      "name": "ReceiveDispatchedOrder",
      "outputs": [],
      "stateMutability": "nonpayable",
      "type": "function"
    },
    {
      "inputs": [
        {
          "internalType": "uint256",
          "name": "_sku",
          "type": "uint256"
        }
      ],
      "name": "DispatcherDispatchesOrder",
      "outputs": [],
      "stateMutability": "nonpayable",
      "type": "function"
    },
    {
      "inputs": [
        {
          "internalType": "uint256",
          "name": "_sku",
          "type": "uint256"
        }
      ],
      "name": "ConsumerReceivesItem",
      "outputs": [],
      "stateMutability": "nonpayable",
      "type": "function"
    },
    {
      "inputs": [
        {
          "internalType": "uint256",
          "name": "_sku",
          "type": "uint256"
        }
      ],
      "name": "getItemStatus",
      "outputs": [
        {
          "internalType": "string",
          "name": "status",
          "type": "string"
        }
      ],
      "stateMutability": "view",
      "type": "function"
    },
    {
      "inputs": [],
      "name": "getTotalItems",
      "outputs": [
        {
          "internalType": "uint256",
          "name": "",
          "type": "uint256"
        }
      ],
      "stateMutability": "view",
      "type": "function"
    },
    {
      "inputs": [],
      "name": "getOwner",
      "outputs": [
        {
          "internalType": "address",
          "name": "",
          "type": "address"
        }
      ],
      "stateMutability": "view",
      "type": "function"
    },
    {
      "inputs": [
        {
          "internalType": "uint256",
          "name": "_sku",
          "type": "uint256"
        }
      ],
      "name": "getItemOwner",
      "outputs": [
        {
          "internalType": "address",
          "name": "",
          "type": "address"
        }
      ],
      "stateMutability": "view",
      "type": "function"
    },
    {
      "inputs": [
        {
          "internalType": "uint256",
          "name": "_upc",
          "type": "uint256"
        }
      ],
      "name": "fetchProductDetails",
      "outputs": [
        {
          "internalType": "uint256",
          "name": "itemSKU",
          "type": "uint256"
        },
        {
          "internalType": "uint256",
          "name": "itemUPC",
          "type": "uint256"
        },
        {
          "internalType": "uint256",
          "name": "productID",
          "type": "uint256"
        },
        {
          "internalType": "string",
          "name": "productNotes",
          "type": "string"
        },
        {
          "internalType": "uint256",
          "name": "productPrice",
          "type": "uint256"
        },
        {
          "internalType": "string",
          "name": "status",
          "type": "string"
        },
        {
          "internalType": "address",
          "name": "dispatcherID",
          "type": "address"
        },
        {
          "internalType": "address",
          "name": "consumerID",
          "type": "address"
        }
      ],
      "stateMutability": "view",
      "type": "function"
    }
  ],
  "bytecode": "0x60806040523480156200001157600080fd5b5062000023336200019b60201b60201c565b6200003433620001fc60201b60201c565b62000045336200021a60201b60201c565b33600360006101000a81548173ffffffffffffffffffffffffffffffffffffffff021916908373ffffffffffffffffffffffffffffffffffffffff160217905550600360009054906101000a900473ffffffffffffffffffffffffffffffffffffffff1673ffffffffffffffffffffffffffffffffffffffff16600073ffffffffffffffffffffffffffffffffffffffff167f5c486528ec3e3f0ea91181cff8116f02bfa350e03b8b6f12e00765adbb5af85c60405160405180910390a333600560006101000a81548173ffffffffffffffffffffffffffffffffffffffff021916908373ffffffffffffffffffffffffffffffffffffffff16021790555033600460006101000a81548173ffffffffffffffffffffffffffffffffffffffff021916908373ffffffffffffffffffffffffffffffffffffffff16021790555060006007819055506000600681905550620004e6565b620001b68160006200023860201b620031541790919060201c565b8073ffffffffffffffffffffffffffffffffffffffff167f30fdfb5b96c8f1d53ce2c2df0c23849ad3b9a86a4b0aae4303d182d635593c4860405160405180910390a250565b620002178160016200023860201b620031541790919060201c565b50565b620002358160026200023860201b620031541790919060201c565b50565b600073ffffffffffffffffffffffffffffffffffffffff168173ffffffffffffffffffffffffffffffffffffffff161415620002ab576040517f08c379a0000000000000000000000000000000000000000000000000000000008152600401620002a29062000452565b60405180910390fd5b620002bd82826200035e60201b60201c565b1562000300576040517f08c379a0000000000000000000000000000000000000000000000000000000008152600401620002f790620004c4565b60405180910390fd5b60018260000160008373ffffffffffffffffffffffffffffffffffffffff1673ffffffffffffffffffffffffffffffffffffffff16815260200190815260200160002060006101000a81548160ff0219169083151502179055505050565b60008073ffffffffffffffffffffffffffffffffffffffff168273ffffffffffffffffffffffffffffffffffffffff1614156200039a57600080fd5b8260000160008373ffffffffffffffffffffffffffffffffffffffff1673ffffffffffffffffffffffffffffffffffffffff16815260200190815260200160002060009054906101000a900460ff16905092915050565b600082825260208201905092915050565b7f63616e6e6f742061646420686f6c650000000000000000000000000000000000600082015250565b60006200043a600f83620003f1565b9150620004478262000402565b602082019050919050565b600060208201905081810360008301526200046d816200042b565b9050919050565b7f6163636f756e74206d757374206e6f74206861766520726f6c65000000000000600082015250565b6000620004ac601a83620003f1565b9150620004b98262000474565b602082019050919050565b60006020820190508181036000830152620004df816200049d565b9050919050565b6147db80620004f66000396000f3fe6080604052600436106102045760003560e01c80638f32d59b11610118578063b9c84333116100a0578063ce74da4f1161006f578063ce74da4f14610717578063d257fee914610740578063ea47cb241461077d578063f2fde38b146107a8578063fa78955b146107d157610204565b8063b9c8433314610673578063bb8ddea71461069c578063bf6bdfe8146106c5578063c76d3f99146106ee57610204565b80639e2f4c6b116100e75780639e2f4c6b14610598578063a60ff034146105b4578063aa39734b146105dd578063aeee8db514610621578063afc9e5081461064a57610204565b80638f32d59b146104f257806394fa1e891461051d578063991db50f1461054657806399cbf0c81461056f57610204565b806341c0e1b51161019b57806375348d351161016a57806375348d35146103fb578063759974d714610424578063834ff7391461044d578063893d20e81461048a5780638e673a2d146104b557610204565b806341c0e1b51461037b57806361182d631461039257806364dfa3b8146103bb578063715018a6146103e457610204565b8063328a8cc4116101d7578063328a8cc4146102c3578063333f46ae146102ec57806337a6210e146103155780633bae4de81461033e57610204565b80630a852a7014610209578063112940f9146102325780631d1440fd1461025b578063310aac6914610298575b600080fd5b34801561021557600080fd5b50610230600480360381019061022b91906137a0565b6107fa565b005b34801561023e57600080fd5b50610259600480360381019061025491906137e0565b61095b565b005b34801561026757600080fd5b50610282600480360381019061027d919061380d565b6109fd565b60405161028f9190613849565b60405180910390f35b3480156102a457600080fd5b506102ad610a82565b6040516102ba9190613873565b60405180910390f35b3480156102cf57600080fd5b506102ea60048036038101906102e591906137e0565b610a8c565b005b3480156102f857600080fd5b50610313600480360381019061030e919061380d565b610ae0565b005b34801561032157600080fd5b5061033c600480360381019061033791906139d4565b610c74565b005b34801561034a57600080fd5b506103656004803603810190610360919061380d565b61101a565b6040516103729190613b03565b60405180910390f35b34801561038757600080fd5b506103906112d4565b005b34801561039e57600080fd5b506103b960048036038101906103b4919061380d565b611367565b005b3480156103c757600080fd5b506103e260048036038101906103dd919061380d565b611505565b005b3480156103f057600080fd5b506103f96116a3565b005b34801561040757600080fd5b50610422600480360381019061041d91906137e0565b6117ab565b005b34801561043057600080fd5b5061044b6004803603810190610446919061380d565b61184d565b005b34801561045957600080fd5b50610474600480360381019061046f91906137e0565b6119e1565b6040516104819190613b40565b60405180910390f35b34801561049657600080fd5b5061049f6119fe565b6040516104ac9190613849565b60405180910390f35b3480156104c157600080fd5b506104dc60048036038101906104d791906137e0565b611a28565b6040516104e99190613b40565b60405180910390f35b3480156104fe57600080fd5b50610507611a45565b6040516105149190613b40565b60405180910390f35b34801561052957600080fd5b50610544600480360381019061053f919061380d565b611a9d565b005b34801561055257600080fd5b5061056d600480360381019061056891906137a0565b611c31565b005b34801561057b57600080fd5b50610596600480360381019061059191906137e0565b611d55565b005b6105b260048036038101906105ad919061380d565b611e5b565b005b3480156105c057600080fd5b506105db60048036038101906105d691906137a0565b6122c2565b005b3480156105e957600080fd5b5061060460048036038101906105ff919061380d565b6123db565b604051610618989796959493929190613b5b565b60405180910390f35b34801561062d57600080fd5b50610648600480360381019061064391906137a0565b61281e565b005b34801561065657600080fd5b50610671600480360381019061066c91906137e0565b6129d4565b005b34801561067f57600080fd5b5061069a6004803603810190610695919061380d565b612a28565b005b3480156106a857600080fd5b506106c360048036038101906106be919061380d565b612aed565b005b3480156106d157600080fd5b506106ec60048036038101906106e791906137a0565b612c81565b005b3480156106fa57600080fd5b506107156004803603810190610710919061380d565b612de2565b005b34801561072357600080fd5b5061073e600480360381019061073991906137e0565b612f76565b005b34801561074c57600080fd5b50610767600480360381019061076291906137e0565b613018565b6040516107749190613b40565b60405180910390f35b34801561078957600080fd5b50610792613035565b60405161079f9190613849565b60405180910390f35b3480156107b457600080fd5b506107cf60048036038101906107ca91906137e0565b61305f565b005b3480156107dd57600080fd5b506107f860048036038101906107f391906137e0565b6130b2565b005b61080333613018565b610842576040517f08c379a000000000000000000000000000000000000000000000000000000000815260040161083990613c59565b60405180910390fd5b8160008111610886576040517f08c379a000000000000000000000000000000000000000000000000000000000815260040161087d90613cc5565b60405180910390fd5b81600073ffffffffffffffffffffffffffffffffffffffff168173ffffffffffffffffffffffffffffffffffffffff1614156108f7576040517f08c379a00000000000000000000000000000000000000000000000000000000081526004016108ee90613d31565b60405180910390fd5b6109008361326c565b8260086000868152602001908152602001600020600a0160006101000a81548173ffffffffffffffffffffffffffffffffffffffff021916908373ffffffffffffffffffffffffffffffffffffffff16021790555050505050565b610964336119e1565b6109a3576040517f08c379a000000000000000000000000000000000000000000000000000000000815260040161099a90613d9d565b60405180910390fd5b6109ac8161326c565b8073ffffffffffffffffffffffffffffffffffffffff167f2dc5af27f00486a48c2455869e7d6bb7d1564629e6bf6e5f5667c994bb2f9251426040516109f29190613873565b60405180910390a250565b60008160008111610a43576040517f08c379a0000000000000000000000000000000000000000000000000000000008152600401610a3a90613cc5565b60405180910390fd5b6008600084815260200190815260200160002060020160009054906101000a900473ffffffffffffffffffffffffffffffffffffffff16915050919050565b6000600754905090565b610a9533611a28565b610ad4576040517f08c379a0000000000000000000000000000000000000000000000000000000008152600401610acb90613e2f565b60405180910390fd5b610add81613283565b50565b8060008111610b24576040517f08c379a0000000000000000000000000000000000000000000000000000000008152600401610b1b90613cc5565b60405180910390fd5b8160016007811115610b3957610b38613e4f565b5b6008600083815260200190815260200160002060090160009054906101000a900460ff166007811115610b6f57610b6e613e4f565b5b14610baf576040517f08c379a0000000000000000000000000000000000000000000000000000000008152600401610ba690613eca565b60405180910390fd5b610bb833611a28565b610bf7576040517f08c379a0000000000000000000000000000000000000000000000000000000008152600401610bee90613e2f565b60405180910390fd5b60076008600085815260200190815260200160002060090160006101000a81548160ff02191690836007811115610c3157610c30613e4f565b5b02179055507f9decdceab35a9ef9f4b030784e1c00838c80bd95ebde49384dfaa6f980732d398342604051610c67929190613eea565b60405180910390a1505050565b610c7d33611a28565b610cbc576040517f08c379a0000000000000000000000000000000000000000000000000000000008152600401610cb390613e2f565b60405180910390fd5b600160076000828254610ccf9190613f42565b925050819055506000600754600654610ce89190613f42565b905060405180610180016040528060075481526020016007548152602001600460009054906101000a900473ffffffffffffffffffffffffffffffffffffffff1673ffffffffffffffffffffffffffffffffffffffff168152602001600460009054906101000a900473ffffffffffffffffffffffffffffffffffffffff1673ffffffffffffffffffffffffffffffffffffffff1681526020018581526020018481526020018281526020018381526020016000815260200160026007811115610db557610db4613e4f565b5b8152602001600073ffffffffffffffffffffffffffffffffffffffff168152602001600073ffffffffffffffffffffffffffffffffffffffff16815250600860006007548152602001908152602001600020600082015181600001556020820151816001015560408201518160020160006101000a81548173ffffffffffffffffffffffffffffffffffffffff021916908373ffffffffffffffffffffffffffffffffffffffff16021790555060608201518160030160006101000a81548173ffffffffffffffffffffffffffffffffffffffff021916908373ffffffffffffffffffffffffffffffffffffffff1602179055506080820151816004019080519060200190610ec5929190613655565b5060a0820151816005019080519060200190610ee2929190613655565b5060c0820151816006015560e0820151816007019080519060200190610f09929190613655565b5061010082015181600801556101208201518160090160006101000a81548160ff02191690836007811115610f4157610f40613e4f565b5b02179055506101408201518160090160016101000a81548173ffffffffffffffffffffffffffffffffffffffff021916908373ffffffffffffffffffffffffffffffffffffffff16021790555061016082015181600a0160006101000a81548173ffffffffffffffffffffffffffffffffffffffff021916908373ffffffffffffffffffffffffffffffffffffffff1602179055509050507fc25a34432c9ef8c3e121c19cd384e660d83cab2a2a614519af47849ad7dea7546007544260405161100c929190613eea565b60405180910390a150505050565b60608160008111611060576040517f08c379a000000000000000000000000000000000000000000000000000000000815260040161105790613cc5565b60405180910390fd5b60006008600085815260200190815260200160002060090160009054906101000a900460ff16600781111561109857611097613e4f565b5b905060008114156110e0576040518060400160405280600781526020017f4f7264657265640000000000000000000000000000000000000000000000000081525092506112cd565b6001811415611126576040518060400160405280600481526020017f506169640000000000000000000000000000000000000000000000000000000081525092506112cc565b600281141561116c576040518060400160405280600681526020017f436f6f6b6564000000000000000000000000000000000000000000000000000081525092506112cb565b60038114156111b2576040518060400160405280600981526020017f436f6e6669726d6564000000000000000000000000000000000000000000000081525092506112ca565b60048114156111f8576040518060400160405280600981526020017f50726f636573736564000000000000000000000000000000000000000000000081525092506112c9565b600581141561123e576040518060400160405280600681526020017f5061636b6564000000000000000000000000000000000000000000000000000081525092506112c8565b6006811415611284576040518060400160405280600a81526020017f446973706174636865640000000000000000000000000000000000000000000081525092506112c7565b60078114156112c6576040518060400160405280600881526020017f526563656976656400000000000000000000000000000000000000000000000081525092505b5b5b5b5b5b5b5b5050919050565b600460009054906101000a900473ffffffffffffffffffffffffffffffffffffffff1673ffffffffffffffffffffffffffffffffffffffff163373ffffffffffffffffffffffffffffffffffffffff16141561136557600460009054906101000a900473ffffffffffffffffffffffffffffffffffffffff1673ffffffffffffffffffffffffffffffffffffffff16ff5b565b80600081116113ab576040517f08c379a00000000000000000000000000000000000000000000000000000000081526004016113a290613cc5565b60405180910390fd5b81600660078111156113c0576113bf613e4f565b5b6008600083815260200190815260200160002060090160009054906101000a900460ff1660078111156113f6576113f5613e4f565b5b14611436576040517f08c379a000000000000000000000000000000000000000000000000000000000815260040161142d90613fe4565b60405180910390fd5b61143f33613018565b61147e576040517f08c379a000000000000000000000000000000000000000000000000000000000815260040161147590613c59565b60405180910390fd5b60066008600085815260200190815260200160002060090160006101000a81548160ff021916908360078111156114b8576114b7613e4f565b5b02179055506114c78333612c81565b7f9decdceab35a9ef9f4b030784e1c00838c80bd95ebde49384dfaa6f980732d3983426040516114f8929190613eea565b60405180910390a1505050565b8060008111611549576040517f08c379a000000000000000000000000000000000000000000000000000000000815260040161154090613cc5565b60405180910390fd5b816006600781111561155e5761155d613e4f565b5b6008600083815260200190815260200160002060090160009054906101000a900460ff16600781111561159457611593613e4f565b5b146115d4576040517f08c379a00000000000000000000000000000000000000000000000000000000081526004016115cb90613fe4565b60405180910390fd5b6115dd33613018565b61161c576040517f08c379a000000000000000000000000000000000000000000000000000000000815260040161161390613c59565b60405180910390fd5b60066008600085815260200190815260200160002060090160006101000a81548160ff0219169083600781111561165657611655613e4f565b5b0217905550611665833361281e565b7f83f709bac2889b65ee3dba04dc2780022c7ebd4fad2f817e92046a5be03ac6878342604051611696929190613eea565b60405180910390a1505050565b6116ab611a45565b6116ea576040517f08c379a00000000000000000000000000000000000000000000000000000000081526004016116e190614050565b60405180910390fd5b600073ffffffffffffffffffffffffffffffffffffffff16600360009054906101000a900473ffffffffffffffffffffffffffffffffffffffff1673ffffffffffffffffffffffffffffffffffffffff167f5c486528ec3e3f0ea91181cff8116f02bfa350e03b8b6f12e00765adbb5af85c60405160405180910390a36000600360006101000a81548173ffffffffffffffffffffffffffffffffffffffff021916908373ffffffffffffffffffffffffffffffffffffffff160217905550565b6117b433613018565b6117f3576040517f08c379a00000000000000000000000000000000000000000000000000000000081526004016117ea90613c59565b60405180910390fd5b6117fc816132dd565b8073ffffffffffffffffffffffffffffffffffffffff167fbd55d3e81a859ffec0d9ef348cd5d71726b2270aff4105f50d66e037ec078c34426040516118429190613873565b60405180910390a250565b8060008111611891576040517f08c379a000000000000000000000000000000000000000000000000000000000815260040161188890613cc5565b60405180910390fd5b81600560078111156118a6576118a5613e4f565b5b6008600083815260200190815260200160002060090160009054906101000a900460ff1660078111156118dc576118db613e4f565b5b1461191c576040517f08c379a0000000000000000000000000000000000000000000000000000000008152600401611913906140bc565b60405180910390fd5b61192533611a28565b611964576040517f08c379a000000000000000000000000000000000000000000000000000000000815260040161195b90613e2f565b60405180910390fd5b60066008600085815260200190815260200160002060090160006101000a81548160ff0219169083600781111561199e5761199d613e4f565b5b02179055507fb3c241758eed41f41cbea9cb9a8356524f679956602f0f53bb01f815abd0833783426040516119d4929190613eea565b60405180910390a1505050565b60006119f78260026132f490919063ffffffff16565b9050919050565b6000600460009054906101000a900473ffffffffffffffffffffffffffffffffffffffff16905090565b6000611a3e8260006132f490919063ffffffff16565b9050919050565b6000600360009054906101000a900473ffffffffffffffffffffffffffffffffffffffff1673ffffffffffffffffffffffffffffffffffffffff163373ffffffffffffffffffffffffffffffffffffffff1614905090565b8060008111611ae1576040517f08c379a0000000000000000000000000000000000000000000000000000000008152600401611ad890613cc5565b60405180910390fd5b8160026007811115611af657611af5613e4f565b5b6008600083815260200190815260200160002060090160009054906101000a900460ff166007811115611b2c57611b2b613e4f565b5b14611b6c576040517f08c379a0000000000000000000000000000000000000000000000000000000008152600401611b6390614128565b60405180910390fd5b611b7533611a28565b611bb4576040517f08c379a0000000000000000000000000000000000000000000000000000000008152600401611bab90613e2f565b60405180910390fd5b60046008600085815260200190815260200160002060090160006101000a81548160ff02191690836007811115611bee57611bed613e4f565b5b02179055507f950b09e901f64e4ab9b871d275d75e90fc84a5ba62cbba02b843039d624a08208342604051611c24929190613eea565b60405180910390a1505050565b611c39611a45565b611c78576040517f08c379a0000000000000000000000000000000000000000000000000000000008152600401611c6f90614050565b60405180910390fd5b80600073ffffffffffffffffffffffffffffffffffffffff168173ffffffffffffffffffffffffffffffffffffffff161415611ce9576040517f08c379a0000000000000000000000000000000000000000000000000000000008152600401611ce090613d31565b60405180910390fd5b611cf282613283565b816008600085815260200190815260200160002060020160006101000a81548173ffffffffffffffffffffffffffffffffffffffff021916908373ffffffffffffffffffffffffffffffffffffffff160217905550611d5082611d55565b505050565b611d5d611a45565b611d9c576040517f08c379a0000000000000000000000000000000000000000000000000000000008152600401611d9390614050565b60405180910390fd5b80600073ffffffffffffffffffffffffffffffffffffffff168173ffffffffffffffffffffffffffffffffffffffff161415611e0d576040517f08c379a0000000000000000000000000000000000000000000000000000000008152600401611e0490613d31565b60405180910390fd5b81600460006101000a81548173ffffffffffffffffffffffffffffffffffffffff021916908373ffffffffffffffffffffffffffffffffffffffff160217905550611e578261305f565b5050565b8060008111611e9f576040517f08c379a0000000000000000000000000000000000000000000000000000000008152600401611e9690613cc5565b60405180910390fd5b600860008381526020019081526020016000206008015480341015611ef9576040517f08c379a0000000000000000000000000000000000000000000000000000000008152600401611ef0906141ba565b60405180910390fd5b828360006007811115611f0f57611f0e613e4f565b5b6008600083815260200190815260200160002060090160009054906101000a900460ff166007811115611f4557611f44613e4f565b5b14611f85576040517f08c379a0000000000000000000000000000000000000000000000000000000008152600401611f7c90614226565b60405180910390fd5b611f8e336119e1565b611fcd576040517f08c379a0000000000000000000000000000000000000000000000000000000008152600401611fc490613d9d565b60405180910390fd5b60003390508060086000888152602001908152602001600020600a0160006101000a81548173ffffffffffffffffffffffffffffffffffffffff021916908373ffffffffffffffffffffffffffffffffffffffff16021790555060006008600088815260200190815260200160002060030160009054906101000a900473ffffffffffffffffffffffffffffffffffffffff1690506000600860008981526020019081526020016000206008015490506001600860008a815260200190815260200160002060090160006101000a81548160ff021916908360078111156120b7576120b6613e4f565b5b021790555060008273ffffffffffffffffffffffffffffffffffffffff16826040516120e290614277565b60006040518083038185875af1925050503d806000811461211f576040519150601f19603f3d011682016040523d82523d6000602084013e612124565b606091505b5050905080612168576040517f08c379a000000000000000000000000000000000000000000000000000000000815260040161215f906142fe565b60405180910390fd5b7f223154f03370c4c2e8065e6a9b7eafdab7f1a069e866f228a758a841b807c9568942604051612199929190613eea565b60405180910390a1505050505060006008600083815260200190815260200160002060090160019054906101000a900473ffffffffffffffffffffffffffffffffffffffff1690506000600860008481526020019081526020016000206008015490506000813461220a919061431e565b905060008373ffffffffffffffffffffffffffffffffffffffff168260405161223290614277565b60006040518083038185875af1925050503d806000811461226f576040519150601f19603f3d011682016040523d82523d6000602084013e612274565b606091505b50509050806122b8576040517f08c379a00000000000000000000000000000000000000000000000000000000081526004016122af9061439e565b60405180910390fd5b5050505050505050565b8160008111612306576040517f08c379a00000000000000000000000000000000000000000000000000000000081526004016122fd90613cc5565b60405180910390fd5b81600073ffffffffffffffffffffffffffffffffffffffff168173ffffffffffffffffffffffffffffffffffffffff161415612377576040517f08c379a000000000000000000000000000000000000000000000000000000000815260040161236e90613d31565b60405180910390fd5b612380836132dd565b826008600086815260200190815260200160002060090160016101000a81548173ffffffffffffffffffffffffffffffffffffffff021916908373ffffffffffffffffffffffffffffffffffffffff16021790555050505050565b6000806000606060006060600080886000811161242d576040517f08c379a000000000000000000000000000000000000000000000000000000000815260040161242490613cc5565b60405180910390fd5b600860008b8152602001908152602001600020600001549850600860008b8152602001908152602001600020600101549750600860008b8152602001908152602001600020600601549650600860008b81526020019081526020016000206007018054612499906143ed565b80601f01602080910402602001604051908101604052809291908181526020018280546124c5906143ed565b80156125125780601f106124e757610100808354040283529160200191612512565b820191906000526020600020905b8154815290600101906020018083116124f557829003601f168201915b50505050509550600860008b81526020019081526020016000206008015494506000600860008c815260200190815260200160002060090160009054906101000a900460ff16600781111561256a57612569613e4f565b5b905060008114156125b2576040518060400160405280600781526020017f4f72646572656400000000000000000000000000000000000000000000000000815250945061279f565b60018114156125f8576040518060400160405280600481526020017f5061696400000000000000000000000000000000000000000000000000000000815250945061279e565b600281141561263e576040518060400160405280600681526020017f436f6f6b65640000000000000000000000000000000000000000000000000000815250945061279d565b6003811415612684576040518060400160405280600981526020017f436f6e6669726d65640000000000000000000000000000000000000000000000815250945061279c565b60048114156126ca576040518060400160405280600981526020017f50726f6365737365640000000000000000000000000000000000000000000000815250945061279b565b6005811415612710576040518060400160405280600681526020017f5061636b65640000000000000000000000000000000000000000000000000000815250945061279a565b6006811415612756576040518060400160405280600a81526020017f44697370617463686564000000000000000000000000000000000000000000008152509450612799565b6007811415612798576040518060400160405280600881526020017f526563656976656400000000000000000000000000000000000000000000000081525094505b5b5b5b5b5b5b5b600860008c815260200190815260200160002060090160019054906101000a900473ffffffffffffffffffffffffffffffffffffffff169350600860008c8152602001908152602001600020600a0160009054906101000a900473ffffffffffffffffffffffffffffffffffffffff1692505050919395975091939597565b80600073ffffffffffffffffffffffffffffffffffffffff168173ffffffffffffffffffffffffffffffffffffffff16141561288f576040517f08c379a000000000000000000000000000000000000000000000000000000000815260040161288690613d31565b60405180910390fd5b600060086000858152602001908152602001600020600a0160009054906101000a900473ffffffffffffffffffffffffffffffffffffffff1690508073ffffffffffffffffffffffffffffffffffffffff168373ffffffffffffffffffffffffffffffffffffffff1614612938576040517f08c379a000000000000000000000000000000000000000000000000000000000815260040161292f90614491565b60405180910390fd5b80600460006101000a81548173ffffffffffffffffffffffffffffffffffffffff021916908373ffffffffffffffffffffffffffffffffffffffff160217905550806008600086815260200190815260200160002060020160006101000a81548173ffffffffffffffffffffffffffffffffffffffff021916908373ffffffffffffffffffffffffffffffffffffffff16021790555050505050565b6129dd33611a28565b612a1c576040517f08c379a0000000000000000000000000000000000000000000000000000000008152600401612a1390613e2f565b60405180910390fd5b612a2581613386565b50565b612a31336119e1565b612a70576040517f08c379a0000000000000000000000000000000000000000000000000000000008152600401612a6790613d9d565b60405180910390fd5b60006008600083815260200190815260200160002060090160006101000a81548160ff02191690836007811115612aaa57612aa9613e4f565b5b02179055507fc9c8278df7d1e72d88c44e3308484ec9d198429e0da228d7d3db6581d946033560075442604051612ae2929190613eea565b60405180910390a150565b8060008111612b31576040517f08c379a0000000000000000000000000000000000000000000000000000000008152600401612b2890613cc5565b60405180910390fd5b8160046007811115612b4657612b45613e4f565b5b6008600083815260200190815260200160002060090160009054906101000a900460ff166007811115612b7c57612b7b613e4f565b5b14612bbc576040517f08c379a0000000000000000000000000000000000000000000000000000000008152600401612bb3906144fd565b60405180910390fd5b612bc533611a28565b612c04576040517f08c379a0000000000000000000000000000000000000000000000000000000008152600401612bfb90613e2f565b60405180910390fd5b60056008600085815260200190815260200160002060090160006101000a81548160ff02191690836007811115612c3e57612c3d613e4f565b5b02179055507fabff0e7b526b3546deaa921577d9b1e957a41739419f3465e63ead6051574e878342604051612c74929190613eea565b60405180910390a1505050565b80600073ffffffffffffffffffffffffffffffffffffffff168173ffffffffffffffffffffffffffffffffffffffff161415612cf2576040517f08c379a0000000000000000000000000000000000000000000000000000000008152600401612ce990613d31565b60405180910390fd5b60006008600085815260200190815260200160002060090160019054906101000a900473ffffffffffffffffffffffffffffffffffffffff1690508073ffffffffffffffffffffffffffffffffffffffff168373ffffffffffffffffffffffffffffffffffffffff1614612d9b576040517f08c379a0000000000000000000000000000000000000000000000000000000008152600401612d9290614569565b60405180910390fd5b80600460006101000a81548173ffffffffffffffffffffffffffffffffffffffff021916908373ffffffffffffffffffffffffffffffffffffffff16021790555050505050565b8060008111612e26576040517f08c379a0000000000000000000000000000000000000000000000000000000008152600401612e1d90613cc5565b60405180910390fd5b8160066007811115612e3b57612e3a613e4f565b5b6008600083815260200190815260200160002060090160009054906101000a900460ff166007811115612e7157612e70613e4f565b5b14612eb1576040517f08c379a0000000000000000000000000000000000000000000000000000000008152600401612ea890613fe4565b60405180910390fd5b612eba33613018565b612ef9576040517f08c379a0000000000000000000000000000000000000000000000000000000008152600401612ef090613c59565b60405180910390fd5b60066008600085815260200190815260200160002060090160006101000a81548160ff02191690836007811115612f3357612f32613e4f565b5b02179055507fb3c241758eed41f41cbea9cb9a8356524f679956602f0f53bb01f815abd083378342604051612f69929190613eea565b60405180910390a1505050565b612f7f336119e1565b612fbe576040517f08c379a0000000000000000000000000000000000000000000000000000000008152600401612fb590613d9d565b60405180910390fd5b612fc7816133e0565b8073ffffffffffffffffffffffffffffffffffffffff167fa116f0ee5787718140c479c562d9adda97bee63979fc2e8a7bddb47948fce6564260405161300d9190613873565b60405180910390a250565b600061302e8260016132f490919063ffffffff16565b9050919050565b6000600360009054906101000a900473ffffffffffffffffffffffffffffffffffffffff16905090565b613067611a45565b6130a6576040517f08c379a000000000000000000000000000000000000000000000000000000000815260040161309d90614050565b60405180910390fd5b6130af816133f7565b50565b6130bb33613018565b6130fa576040517f08c379a00000000000000000000000000000000000000000000000000000000081526004016130f190613c59565b60405180910390fd5b61310381613527565b8073ffffffffffffffffffffffffffffffffffffffff167fa3ab7333c318866d97e85edecc6942f223cfe878e790bf7339ad279fb6941ca9426040516131499190613873565b60405180910390a250565b600073ffffffffffffffffffffffffffffffffffffffff168173ffffffffffffffffffffffffffffffffffffffff1614156131c4576040517f08c379a00000000000000000000000000000000000000000000000000000000081526004016131bb906145d5565b60405180910390fd5b6131ce82826132f4565b1561320e576040517f08c379a000000000000000000000000000000000000000000000000000000000815260040161320590614641565b60405180910390fd5b60018260000160008373ffffffffffffffffffffffffffffffffffffffff1673ffffffffffffffffffffffffffffffffffffffff16815260200190815260200160002060006101000a81548160ff0219169083151502179055505050565b61328081600261315490919063ffffffff16565b50565b61329781600061315490919063ffffffff16565b8073ffffffffffffffffffffffffffffffffffffffff167f30fdfb5b96c8f1d53ce2c2df0c23849ad3b9a86a4b0aae4303d182d635593c4860405160405180910390a250565b6132f181600161315490919063ffffffff16565b50565b60008073ffffffffffffffffffffffffffffffffffffffff168273ffffffffffffffffffffffffffffffffffffffff16141561332f57600080fd5b8260000160008373ffffffffffffffffffffffffffffffffffffffff1673ffffffffffffffffffffffffffffffffffffffff16815260200190815260200160002060009054906101000a900460ff16905092915050565b61339a81600061353e90919063ffffffff16565b8073ffffffffffffffffffffffffffffffffffffffff167fe2f8baf829f0cb6d609190eec3e8755addaa195065d640434d2ceecb9944c5f160405160405180910390a250565b6133f481600261353e90919063ffffffff16565b50565b600073ffffffffffffffffffffffffffffffffffffffff168173ffffffffffffffffffffffffffffffffffffffff161415613467576040517f08c379a000000000000000000000000000000000000000000000000000000000815260040161345e906146ad565b60405180910390fd5b80600360006101000a81548173ffffffffffffffffffffffffffffffffffffffff021916908373ffffffffffffffffffffffffffffffffffffffff1602179055508073ffffffffffffffffffffffffffffffffffffffff16600360009054906101000a900473ffffffffffffffffffffffffffffffffffffffff1673ffffffffffffffffffffffffffffffffffffffff167f5c486528ec3e3f0ea91181cff8116f02bfa350e03b8b6f12e00765adbb5af85c60405160405180910390a350565b61353b81600161353e90919063ffffffff16565b50565b600073ffffffffffffffffffffffffffffffffffffffff168173ffffffffffffffffffffffffffffffffffffffff1614156135ae576040517f08c379a00000000000000000000000000000000000000000000000000000000081526004016135a590614719565b60405180910390fd5b6135b882826132f4565b6135f7576040517f08c379a00000000000000000000000000000000000000000000000000000000081526004016135ee90614785565b60405180910390fd5b60008260000160008373ffffffffffffffffffffffffffffffffffffffff1673ffffffffffffffffffffffffffffffffffffffff16815260200190815260200160002060006101000a81548160ff0219169083151502179055505050565b828054613661906143ed565b90600052602060002090601f01602090048101928261368357600085556136ca565b82601f1061369c57805160ff19168380011785556136ca565b828001600101855582156136ca579182015b828111156136c95782518255916020019190600101906136ae565b5b5090506136d791906136db565b5090565b5b808211156136f45760008160009055506001016136dc565b5090565b6000604051905090565b600080fd5b600080fd5b6000819050919050565b61371f8161370c565b811461372a57600080fd5b50565b60008135905061373c81613716565b92915050565b600073ffffffffffffffffffffffffffffffffffffffff82169050919050565b600061376d82613742565b9050919050565b61377d81613762565b811461378857600080fd5b50565b60008135905061379a81613774565b92915050565b600080604083850312156137b7576137b6613702565b5b60006137c58582860161372d565b92505060206137d68582860161378b565b9150509250929050565b6000602082840312156137f6576137f5613702565b5b60006138048482850161378b565b91505092915050565b60006020828403121561382357613822613702565b5b60006138318482850161372d565b91505092915050565b61384381613762565b82525050565b600060208201905061385e600083018461383a565b92915050565b61386d8161370c565b82525050565b60006020820190506138886000830184613864565b92915050565b600080fd5b600080fd5b6000601f19601f8301169050919050565b7f4e487b7100000000000000000000000000000000000000000000000000000000600052604160045260246000fd5b6138e182613898565b810181811067ffffffffffffffff82111715613900576138ff6138a9565b5b80604052505050565b60006139136136f8565b905061391f82826138d8565b919050565b600067ffffffffffffffff82111561393f5761393e6138a9565b5b61394882613898565b9050602081019050919050565b82818337600083830152505050565b600061397761397284613924565b613909565b90508281526020810184848401111561399357613992613893565b5b61399e848285613955565b509392505050565b600082601f8301126139bb576139ba61388e565b5b81356139cb848260208601613964565b91505092915050565b6000806000606084860312156139ed576139ec613702565b5b600084013567ffffffffffffffff811115613a0b57613a0a613707565b5b613a17868287016139a6565b935050602084013567ffffffffffffffff811115613a3857613a37613707565b5b613a44868287016139a6565b925050604084013567ffffffffffffffff811115613a6557613a64613707565b5b613a71868287016139a6565b9150509250925092565b600081519050919050565b600082825260208201905092915050565b60005b83811015613ab5578082015181840152602081019050613a9a565b83811115613ac4576000848401525b50505050565b6000613ad582613a7b565b613adf8185613a86565b9350613aef818560208601613a97565b613af881613898565b840191505092915050565b60006020820190508181036000830152613b1d8184613aca565b905092915050565b60008115159050919050565b613b3a81613b25565b82525050565b6000602082019050613b556000830184613b31565b92915050565b600061010082019050613b71600083018b613864565b613b7e602083018a613864565b613b8b6040830189613864565b8181036060830152613b9d8188613aca565b9050613bac6080830187613864565b81810360a0830152613bbe8186613aca565b9050613bcd60c083018561383a565b613bda60e083018461383a565b9998505050505050505050565b7f6f6e6c7920446973706174636865722063616e2063616c6c2066756e6374696f60008201527f6e00000000000000000000000000000000000000000000000000000000000000602082015250565b6000613c43602183613a86565b9150613c4e82613be7565b604082019050919050565b60006020820190508181036000830152613c7281613c36565b9050919050565b7f736b752063616e6e6f7420626520300000000000000000000000000000000000600082015250565b6000613caf600f83613a86565b9150613cba82613c79565b602082019050919050565b60006020820190508181036000830152613cde81613ca2565b9050919050565b7f63616e6e6f7420626520626c61636b20686f6c65206163636f756e7400000000600082015250565b6000613d1b601c83613a86565b9150613d2682613ce5565b602082019050919050565b60006020820190508181036000830152613d4a81613d0e565b9050919050565b7f6f6e6c7920436f6e73756d65722063616e2063616c6c2066756e6374696f6e00600082015250565b6000613d87601f83613a86565b9150613d9282613d51565b602082019050919050565b60006020820190508181036000830152613db681613d7a565b9050919050565b7f6f6e6c792072657374617572616e742063616e2063616c6c2066756e6374696f60008201527f6e00000000000000000000000000000000000000000000000000000000000000602082015250565b6000613e19602183613a86565b9150613e2482613dbd565b604082019050919050565b60006020820190508181036000830152613e4881613e0c565b9050919050565b7f4e487b7100000000000000000000000000000000000000000000000000000000600052602160045260246000fd5b7f6e6f7420696e2070616964207374617465000000000000000000000000000000600082015250565b6000613eb4601183613a86565b9150613ebf82613e7e565b602082019050919050565b60006020820190508181036000830152613ee381613ea7565b9050919050565b6000604082019050613eff6000830185613864565b613f0c6020830184613864565b9392505050565b7f4e487b7100000000000000000000000000000000000000000000000000000000600052601160045260246000fd5b6000613f4d8261370c565b9150613f588361370c565b9250827fffffffffffffffffffffffffffffffffffffffffffffffffffffffffffffffff03821115613f8d57613f8c613f13565b5b828201905092915050565b7f6e6f7420726561647920666f7220646973706174636800000000000000000000600082015250565b6000613fce601683613a86565b9150613fd982613f98565b602082019050919050565b60006020820190508181036000830152613ffd81613fc1565b9050919050565b7f6f6e6c79206f776e65722063616e2063616c6c2066756e6374696f6e00000000600082015250565b600061403a601c83613a86565b915061404582614004565b602082019050919050565b600060208201905081810360008301526140698161402d565b9050919050565b7f6e6f7420696e207061636b656420737461746500000000000000000000000000600082015250565b60006140a6601383613a86565b91506140b182614070565b602082019050919050565b600060208201905081810360008301526140d581614099565b9050919050565b7f6e6f7420696e20636f6f6b656420737461746500000000000000000000000000600082015250565b6000614112601383613a86565b915061411d826140dc565b602082019050919050565b6000602082019050818103600083015261414181614105565b9050919050565b7f616d6f756e742070616964206d75737420626520686967686572207468616e2060008201527f6974656d20707269636500000000000000000000000000000000000000000000602082015250565b60006141a4602a83613a86565b91506141af82614148565b604082019050919050565b600060208201905081810360008301526141d381614197565b9050919050565b7f6e6f7420696e206f726465726564207374617465000000000000000000000000600082015250565b6000614210601483613a86565b915061421b826141da565b602082019050919050565b6000602082019050818103600083015261423f81614203565b9050919050565b600081905092915050565b50565b6000614261600083614246565b915061426c82614251565b600082019050919050565b600061428282614254565b9150819050919050565b7f6661696c656420746f2073656e6420657468657220746f20726573746175726160008201527f6e74000000000000000000000000000000000000000000000000000000000000602082015250565b60006142e8602283613a86565b91506142f38261428c565b604082019050919050565b60006020820190508181036000830152614317816142db565b9050919050565b60006143298261370c565b91506143348361370c565b92508282101561434757614346613f13565b5b828203905092915050565b7f6661696c656420746f2073656e64206574686572000000000000000000000000600082015250565b6000614388601483613a86565b915061439382614352565b602082019050919050565b600060208201905081810360008301526143b78161437b565b9050919050565b7f4e487b7100000000000000000000000000000000000000000000000000000000600052602260045260246000fd5b6000600282049050600182168061440557607f821691505b60208210811415614419576144186143be565b5b50919050565b7f636f6e73756d6572206163636f756e74206d757374206265206578697374696e60008201527f6700000000000000000000000000000000000000000000000000000000000000602082015250565b600061447b602183613a86565b91506144868261441f565b604082019050919050565b600060208201905081810360008301526144aa8161446e565b9050919050565b7f6e6f7420696e2070726f63657373656420737461746500000000000000000000600082015250565b60006144e7601683613a86565b91506144f2826144b1565b602082019050919050565b60006020820190508181036000830152614516816144da565b9050919050565b7f6d75737420626520726561647920746f20626520646973706174636865640000600082015250565b6000614553601e83613a86565b915061455e8261451d565b602082019050919050565b6000602082019050818103600083015261458281614546565b9050919050565b7f63616e6e6f742061646420686f6c650000000000000000000000000000000000600082015250565b60006145bf600f83613a86565b91506145ca82614589565b602082019050919050565b600060208201905081810360008301526145ee816145b2565b9050919050565b7f6163636f756e74206d757374206e6f74206861766520726f6c65000000000000600082015250565b600061462b601a83613a86565b9150614636826145f5565b602082019050919050565b6000602082019050818103600083015261465a8161461e565b9050919050565b7f63616e6e6f74207472616e7366657220746f2061646472203000000000000000600082015250565b6000614697601983613a86565b91506146a282614661565b602082019050919050565b600060208201905081810360008301526146c68161468a565b9050919050565b7f616464726573732063616e6e6f7420626520626c61636b20686f6c6500000000600082015250565b6000614703601c83613a86565b915061470e826146cd565b602082019050919050565b60006020820190508181036000830152614732816146f6565b9050919050565b7f61646472657373206d757374206861766520726f6c6500000000000000000000600082015250565b600061476f601683613a86565b915061477a82614739565b602082019050919050565b6000602082019050818103600083015261479e81614762565b905091905056fea2646970667358221220102ba04a0017adac1381bbe3ea0428262c03c4f042cb530a74d07bb21a03569064736f6c63430008090033",
  "immutableReferences": {},
  "source": "// SPDX-License-Identifier: MIT\npragma solidity >=0.5.0 <0.9.0;\n\n\nimport './AccessControl/ConsumerRole.sol';\nimport './AccessControl/RestaurantRole.sol';\nimport './AccessControl/DispatcherRole.sol';\n\nimport './Core/Ownable.sol';\n\ncontract SupplyChain is RestaurantRole, DispatcherRole, ConsumerRole, Ownable {\n\n  // define owner\n  address owner;\n\n  address deployer;\n\n  // 'upc' universal product code\n  uint upc;\n\n  // 'sku' stock keeping unit\n  uint sku;\n\n  mapping (uint => Item) items;\n\n  enum State {\n    Ordered,\n    Paid,\n    Cooked,\n    Confirmed,\n    Processed,\n    Packed,\n    Dispatched,\n    Received\n  }\n\n  struct Item {\n      uint sku;\n      uint upc;\n      address ownerID;\n      address originRestaurantID;\n      string originRestaurantName;\n      string originRestaurantInfo;\n      uint productID;\n      string productNotes;\n      uint productPrice;\n      State itemState;\n      address dispatcherID;\n      address consumerID;\n  }\n\n\n  // LogItemOrder\n  event LogItemOrder(uint256 upc, uint timestamp);\n\n  // LogItemPaid\n  event LogItemPaid(uint256 sku, uint timestamp);\n\n  // LogItemConfirmed\n  event LogItemConfirmed(uint256 sku, uint timestamp);\n\n  // LogItemProcessed\n  event LogItemProcessed(uint256 sku, uint timestamp);\n\n  // LogItemPacked\n  event LogItemPacked(uint256 sku, uint timestamp);\n\n  // LogItemDispatched\n  event LogItemDispatched(uint256 sku, uint timestamp);\n\n  // LogitemReceived\n  event LogitemReceived(uint256 sku, uint timestamp);\n\n  event LogItemCooked(uint256 sku, uint timestamp);\n\n\n  modifier notZeroAddress(address _account) {\n     require(_account != address(0), 'cannot be black hole account');\n     _;\n }\n  \n  modifier checkSKU(uint _sku) {\n      require(_sku > 0, 'sku cannot be 0');\n      _;\n  }\n\n  modifier verifyCaller(address _account) {\n      require(msg.sender == _account, 'unauthorized');\n      _;\n  }\n\n  modifier ordered(uint _sku) {\n    require(items[_sku].itemState == State.Ordered, 'not in ordered state');\n    _;\n  }\n\n  modifier paid(uint _sku) {\n    require(items[_sku].itemState == State.Paid, 'not in paid state');\n    _;\n  }\n\n  modifier cooked(uint _sku) {\n    require(items[_sku].itemState == State.Cooked, 'not in cooked state');\n    _;\n  }\n\n  modifier processed(uint _sku) {\n    require(items[_sku].itemState == State.Processed, 'not in processed state');\n    _;\n  }\n  \n  modifier confirmed(uint _sku) {\n      require(items[_sku].itemState == State.Confirmed, 'status: not confirmed by consumer');\n      _;\n  }\n\n  modifier packed(uint _sku) {\n      require(items[_sku].itemState == State.Packed, 'not in packed state');\n      _;\n  }\n\n  modifier dispatch(uint _sku) {\n      require(items[_sku].itemState == State.Dispatched, 'not ready for dispatch');\n      _;\n  }\n\n  modifier received(uint _sku) {\n      require(items[_sku].itemState == State.Received, 'not in received state');\n      _;\n  }\n  \n  modifier paidEnough(uint _price) {\n    require(msg.value >= _price, 'amount paid must be higher than item price');\n    _;\n  }\n  \n  modifier checkValue(uint _sku) {\n    _;\n    address dispatcher = items[_sku].dispatcherID;\n    uint price = items[_sku].productPrice;\n    uint amountToRefund = msg.value - price;\n    (bool success,) = payable(dispatcher).call{value: amountToRefund}('');\n    require(success, 'failed to send ether');\n  }\n\n  constructor() {\n    deployer = msg.sender;\n    owner = msg.sender;\n    sku = 0;\n    upc = 0;\n  }\n\n\n  function kill() public {\n    if(msg.sender == owner) {\n      selfdestruct(payable(owner));\n    }\n  }\n\n  function transferOwnershipToAccount(address _account) public onlyOwner notZeroAddress(_account) {\n      owner = _account;\n      transferOwnership(_account);\n    }\n\n  function addRestaurantAccount(uint _sku, address _account) \n    public\n    onlyOwner\n    notZeroAddress(_account)\n    {\n      _addRestaurant(_account);\n      items[_sku].ownerID = _account;\n      transferOwnershipToAccount(_account);\n    }\n\n\n    function transferOwnershipToDispatcher(uint _sku, address _account) notZeroAddress(_account) public {\n      address dispatcher = items[_sku].dispatcherID;\n      require(_account == dispatcher, 'must be ready to be dispatched');\n      owner = dispatcher;\n    }\n\n\n    function enableDisapatcherAccount(uint _sku, address _account) public checkSKU(_sku) notZeroAddress(_account) {\n      _addDispatcher(_account);\n      items[_sku].dispatcherID = _account;\n    }\n\n    function enableConsumerAccount(uint _sku, address _account) public onlyDispatcher checkSKU(_sku) notZeroAddress(_account) {\n      _addConsumer(_account);\n      items[_sku].consumerID = _account;\n    }\n\n\n\n    function transferOwnershipToConsumer(uint _sku, address _account) public notZeroAddress(_account) {\n      address consumer = items[_sku].consumerID;\n      require(_account == consumer, 'consumer account must be existing');\n      owner = consumer;\n      items[_sku].ownerID = consumer;\n    }\n\n  // comeback to this\n    function OrderItem(\n      uint _sku\n      ) public onlyConsumer {\n        items[_sku].itemState = State.Ordered;\n        emit LogItemOrder(sku, block.timestamp);\n      }\n\n    \n    function PayForItem(uint _sku) public payable checkSKU(_sku) paidEnough(items[_sku].productPrice) checkValue(_sku) ordered(_sku) onlyConsumer {\n      address consumer = msg.sender;\n      items[_sku].consumerID = consumer;\n      address restaurant = items[_sku].originRestaurantID;\n      uint price = items[_sku].productPrice;\n      items[_sku].itemState = State.Paid;\n      (bool succes, ) = payable(restaurant).call{value: price}('');\n      require(succes, 'failed to send ether to restaurant');\n      emit LogItemPaid(_sku, block.timestamp);\n    }\n\n\n    function ReceiveOrder(uint _sku) public checkSKU(_sku) paid(_sku) onlyRestaurant {\n      items[_sku].itemState = State.Received;\n      emit LogitemReceived(_sku, block.timestamp);\n    }\n\n\n    function CookOrder(\n      string memory _originRestaurantName, \n      string memory _originRestaurantInfo,\n      string memory _productNotes\n    ) public onlyRestaurant {\n      sku += 1;\n      uint productID = upc + sku;\n      items[sku] = Item({\n        sku: sku,\n        upc: sku,\n        ownerID: owner,\n        originRestaurantID: owner,\n        originRestaurantName: _originRestaurantName,\n        originRestaurantInfo: _originRestaurantInfo,\n        productID: productID,\n        productNotes: _productNotes,\n        productPrice: 0,\n        itemState: State.Cooked,\n        dispatcherID: address(0),\n        consumerID: address(0)\n      });\n\n      emit LogItemCooked(sku, block.timestamp);\n    }\n\n    function ProcessOrder(uint _sku) public checkSKU(_sku) cooked(_sku) onlyRestaurant  {\n      items[_sku].itemState = State.Processed;\n      emit LogItemProcessed(_sku, block.timestamp);\n    }\n\n    function PackageOrder(uint _sku) public checkSKU(_sku) processed(_sku) onlyRestaurant  {\n      items[_sku].itemState = State.Packed;\n      emit LogItemPacked(_sku, block.timestamp);\n    }\n\n    function DispatchOrder (uint _sku) public checkSKU(_sku) packed(_sku) onlyRestaurant  {\n      items[_sku].itemState = State.Dispatched;\n      emit LogItemDispatched(_sku, block.timestamp);\n    }\n\n\n    function ReceiveDispatchedOrder(uint _sku) public checkSKU(_sku) dispatch(_sku) onlyDispatcher  {\n      items[_sku].itemState = State.Dispatched;\n      transferOwnershipToDispatcher(_sku, msg.sender);\n      emit LogitemReceived(_sku, block.timestamp);\n    }\n\n\n    function DispatcherDispatchesOrder(uint _sku) public checkSKU(_sku) dispatch(_sku) onlyDispatcher  {\n      items[_sku].itemState = State.Dispatched;\n      emit LogItemDispatched(_sku, block.timestamp);\n    }\n\n\n    function ConsumerReceivesItem(uint _sku) public checkSKU(_sku) dispatch(_sku) onlyDispatcher  {\n      items[_sku].itemState = State.Dispatched;\n      transferOwnershipToConsumer(_sku, msg.sender);\n      emit LogItemConfirmed(_sku, block.timestamp);\n    }\n\n\n    function getItemStatus(uint _sku) public checkSKU(_sku) view returns(string memory status) {\n    uint itemStatus = uint(items[_sku].itemState);\n    if(itemStatus == 0) {\n        status = 'Ordered';\n    } else if(itemStatus == 1) {\n        status = 'Paid';\n    } else if(itemStatus == 2) {\n        status = 'Cooked';\n        \n    }  else if(itemStatus == 3) {\n        status = 'Confirmed';\n    }\n    else if(itemStatus == 4) {\n        status = 'Processed';\n    } else if(itemStatus == 5) {\n        status = 'Packed';\n    } else if(itemStatus == 6) {\n        status = 'Dispatched';\n    } else if(itemStatus == 7) {\n        status = 'Received';\n    }\n    \n  }\n  \n    \n  function getTotalItems() public view returns(uint) {\n    return sku;\n  }\n  \n  \n  function getOwner() public view returns(address) {\n    return owner;\n  }\n\n  function getItemOwner(uint _sku) checkSKU(_sku) public view returns(address) {\n    return items[_sku].ownerID;\n  }\n\n\n  // function fetchRestaurantDetails(uint _upc)  public view returns (\n  //   uint itemSKU,\n  //   address ownerID,\n  //   address originRestaurantID,\n  //   string memory originRestaurantInfo,\n  //   string memory originRestaurantName\n  // ){\n  //   require(_upc > 0, 'sku cannot be 0');\n  //   return (\n  //     items[_upc].sku,\n  //     items[_upc].ownerID,\n  //     items[_upc].originRestaurantID,\n  //     items[_upc].originRestaurantInfo,\n  //     items[_upc].originRestaurantName,\n  //   );\n      \n  // }\n  \n  \n    \n  function fetchProductDetails(uint _upc)  public checkSKU(_upc) view returns (\n    uint itemSKU,\n    uint itemUPC,\n    uint productID,\n    string memory productNotes,\n    uint productPrice,\n    string memory status,\n    address dispatcherID,\n    address consumerID\n    ) {\n      itemSKU = items[_upc].sku;\n      itemUPC = items[_upc].upc;\n      productID = items[_upc].productID;\n      productNotes = items[_upc].productNotes;\n      productPrice = items[_upc].productPrice;\n      uint itemState = uint(items[_upc].itemState);\n     if(itemState == 0) {\n        status = 'Ordered';\n    } else if(itemState == 1) {\n        status = 'Paid';\n    } else if(itemState == 2) {\n        status = 'Cooked';\n        \n    }  else if(itemState == 3) {\n        status = 'Confirmed';\n    }\n    else if(itemState == 4) {\n        status = 'Processed';\n    } else if(itemState == 5) {\n        status = 'Packed';\n    } else if(itemState == 6) {\n        status = 'Dispatched';\n    } else if(itemState == 7) {\n        status = 'Received';\n    }\n      dispatcherID = items[_upc].dispatcherID;\n      consumerID = items[_upc].consumerID;\n  }\n\n}\n",
  "sourcePath": "/home/godwin/blockchain-developer-bootcamp-final-project/contracts/SupplyChain.sol",
  "compiler": {
    "name": "solc",
    "version": "0.8.9+commit.e5eed63a.Emscripten.clang"
  },
  "schemaVersion": "3.4.3",
  "updatedAt": "2021-11-01T18:59:25.491Z",
  "devdoc": {
    "kind": "dev",
    "methods": {},
    "version": 1
  },
  "userdoc": {
    "kind": "user",
    "methods": {},
    "version": 1
  }
}